:100000000C943E010C946F010C946F010C946F01E1
:100010000C946F010C946F010C946F010C946F01A0
:100020000C946F010C946F010C946F010C946F0190
:100030000C946F010C946F010C946F010C946F0180
:100040000C946F010C9459060C946F010C946F0181
:100050000C946F010C946F010C946F010C94850546
:100060000C946F010C946F010C946F010C946F0150
:100070000C946F010C946F010C946F010C946F0140
:100080000C942B060C946F010C946F010C946F016F
:100090000C946F010C946F010C946F010C946F0120
:1000A0000C946F010C946F010C94FD050C946F017E
:1000B0000C946F010C946F010C946F010C94CF059C
:1000C0000C946F010C946F010C946F010C946F01F0
:1000D0000C946F010C946F010C944F050C94250542
:1000E0000C946F010C9439040C94F9030C943102B4
:1000F0000C9468030C948D030C9454020C949A0293
:100100000C9460030C947B030C946B030C947103AC
:100110000C9497030C947F030C94E7020C949603C1
:100120000C9456030C9491030C945C030C9462029F
:100130000C9489030C9404020C949B030C94A90A5C
:100140000C94C8030C9464030C9475030C948303FF
:100150000C9440020C948706000021002400270024
:100160002A002D00300033000101000004010701C6
:100170000A0100002200250028002B002E0031007B
:10018000340002010000050108010B0100002000FD
:100190002300260029002C002F003200000100005F
:1001A00003010601090105050505070508080808FA
:1001B000020202020A0A08080404040401010101FF
:1001C00001010101030303030303030304070707FA
:1001D0000C0C0C0C0C0C0C0C02020202060606069F
:1001E000060606060B0B0B0B0B0B0B0B010210206C
:1001F000200808102040102040800201020108045D
:1002000002010102040810204080804020100804F0
:100210000201800402018040201008040201080449
:10022000020101020408102040800102040810208D
:10023000408000000A0B02090C0D0E0807030401A0
:1002400000000000000000000000000000000000AE
:10025000000000000000000000000000000012117B
:10026000100000000000000000000000000000007E
:1002700000000000000000008706A90A11241FBE2C
:10028000CFEFD1E2DEBFCDBF00E00CBF12E0A0E0B7
:10029000B2E0E8E1FBE100E00BBF02C007900D9285
:1002A000AE33B107D9F723E0AEE3B2E001C01D924F
:1002B000A83FB207E1F711E0CDE3D1E000E006C0CE
:1002C00021970109802FFE010E94550BCC33D107E5
:1002D00080E00807A9F70E945F070C947A0D0C9440
:1002E000000096E0899FD0011124AB57BC4F909637
:1002F0007C936E935F9791E091969C939197E09198
:10030000F203F091F3039091F103992339F03097C0
:1003100051F0811108C08091A1031994309719F010
:100320005C968C91FACF0895CF92DF92EF92FF9274
:100330000F931F9396E0899FF0011124EB57FC4F18
:1003400011A2278D30A12130310551F178F02230F2
:10035000310509F451C02330310509F452C01F9111
:100360000F91FF90EF90DF90CF9008956623B9F33F
:1003700061E070E00E9471012FB7F89480914A0209
:1003800090914B02A0914C02B0914D022FBF8093EF
:10039000DD039093DE03A093DF03B093E003DFCF90
:1003A0009FB7F894C0904A02D0904B02E0904C0264
:1003B000F0904D029FBF0091DD031091DE0320916C
:1003C000DF033091E003C01AD10AE20AF30A009178
:1003D000EF031091F00330E020E00C151D052E0511
:1003E0003F0550F462E070E01F910F91FF90EF9095
:1003F000DF90CF900C9471016111B1CF63E070E098
:10040000F3CF70E060E0F0CFAF92BF92CF92DF9277
:10041000EF92FF920F931F93CF93DF936C017B01B9
:100420008B01040F151FEB015E01AE18BF08C0174A
:10043000D10759F06991D601ED91FC910190F081BD
:10044000E02DC6011995892B79F7C501DF91CF9170
:100450001F910F91FF90EF90DF90CF90BF90AF90E2
:100460000895FC01538D448D252F30E0842F90E0BA
:10047000821B930B541710F0CF960895019708959F
:10048000FC01918D828D981761F0A28DAE0FBF2F68
:10049000B11D5D968C91928D9F5F9F73928F90E0BE
:1004A00008958FEF9FEF0895FC01918D828D98172D
:1004B00031F0828DE80FF11D858D90E008958FEF6A
:1004C0009FEF0895FC01918D228D892F90E0805C33
:1004D0009F4F821B91098F73992708958EE492E0B4
:1004E0000E94620221E0892B09F420E0822F089506
:1004F000FC01A48DA80FB92FB11DA35ABF4F2C9199
:10050000848D90E001968F739927848FA689B7898F
:100510002C93A089B1898C91837080648C93938D86
:10052000848D981306C00288F389E02D80818F7D29
:1005300080830895EF92FF920F931F93CF93DF93E1
:10054000EC0181E0888F9B8D8C8D98131AC0E8890F
:10055000F989808185FF15C09FB7F894EE89FF89DE
:100560006083E889F98980818370806480839FBF7C
:1005700081E090E0DF91CF911F910F91FF90EF907C
:100580000895F62E0B8D10E00F5F1F4F0F7311278C
:10059000E02E8C8D8E110CC00FB607FCFACFE889C7
:1005A000F989808185FFF5CFCE010E947802F1CFD5
:1005B000EB8DEC0FFD2FF11DE35AFF4FF0829FB73B
:1005C000F8940B8FEA89FB8980818062CFCFCF932B
:1005D000DF93EC01888D8823B9F0AA89BB89E8896B
:1005E000F9898C9185FD03C0808186FD0DC00FB611
:1005F00007FCF7CF8C9185FFF2CF808185FFEDCF8F
:10060000CE010E947802E9CFDF91CF91089580E07A
:1006100090E0892B49F080E090E0892B29F00E943E
:10062000000081110E94000080E090E0892B49F0D9
:1006300080E090E0892B29F00E94000081110E9447
:10064000000080E090E0892B49F080E090E0892B69
:1006500029F00E94000081110E94000080E090E0DB
:10066000892B29F00E946E0281110C9400000895DC
:100670008150823108F05AC0E82FF0E08827EC5B07
:10068000FC4F8F4F0C94550B6403680356035C03B7
:10069000600396036B03710375037B037F0383037E
:1006A00089038D039603910397039B038091800038
:1006B0008F77809380000895809180008F7DF9CF9F
:1006C00080918000877FF5CF84B58F7784BD0895B2
:1006D00084B58F7DFBCF8091B0008F778093B00081
:1006E00008958091B0008F7DF9CF809190008F7731
:1006F000809390000895809190008F7DF9CF809134
:100700009000877FF5CF8091A0008F778093A00025
:1007100008958091A0008F7DF9CF8091A000877F00
:10072000F5CF809120018F778093200108958091EB
:1007300020018F7DF9CF80912001877FF5CFCF9366
:10074000DF93282F30E0F901EE5CFD4F8491F90131
:10075000E451FE4FD491F901EA55FE4FC491CC23E8
:10076000A1F081110E943803EC2FF0E0EE0FFF1F83
:10077000E457FE4FA591B491EC91ED2381E090E018
:1007800009F480E0DF91CF91089580E090E0FACF06
:10079000862F0C949F031F93CF93DF93282F30E075
:1007A000F901EE5CFD4F8491F901E451FE4FD491C3
:1007B000F901EA55FE4FC491CC23A9F0162F8111FF
:1007C0000E943803EC2FF0E0EE0FFF1FEE58FE4FB3
:1007D000A591B4918FB7F894EC91111108C0D09500
:1007E000DE23DC938FBFDF91CF911F910895DE2B25
:1007F000F8CF862F642F0C94CB03CF93DF9390E038
:10080000FC01E451FE4F24918A559E4FFC018491D6
:100810008823C9F090E0880F991FFC01E85AFE4F29
:10082000A591B491FC01EE58FE4FC591D491611190
:100830000DC09FB7F8948C91209582238C9388816A
:10084000282328839FBFDF91CF910895623051F410
:100850009FB7F8943C91822F809583238C93E881F5
:100860002E2BEFCF8FB7F894EC912E2B2C938FBFBC
:10087000EACF862F642F0C94FD03AF92BF92CF92E4
:10088000DF92EF92FF920F931F93CF93DF936B0151
:100890007A01EC01C25CDD4F28813CE0389F800189
:1008A000399F100D1124A0907B03B12C27FF1FC08E
:1008B000FB011182108288818F5F88838881980173
:1008C000280F311D87FD3A95F6012A153B051CF4CA
:1008D00088818C30C4F180819181049680349C4958
:1008E00008F473C0F60180819181049670C08881FC
:1008F0009801280F311D87FD3A952A153B05DCF636
:100900008881A801480F511D87FD5A95FA01EE0F05
:10091000FF1FE40FF51FE551FD4F808186FFCBCF10
:100920008881F801E80FF11D87FDFA95CF01EE0FE0
:10093000FF1FE80FF91FE551FD4F808160E08F73C5
:100940000E94CB03B8CF808191812881A801420FFA
:10095000511D27FD5A959A01FA01EE0FFF1FE20F74
:10096000F31FE551FD4F21813281820F931FF70163
:100970009183808388819801280F311D87FD3A95E6
:10098000F901EE0FFF1FE20FF31FE551FD4F8081CC
:1009900086FF22C08881080F111D87FD1A95F80176
:1009A000EE0FFF1FE00FF11FE551FD4F808161E069
:1009B0008F73DF91CF911F910F91FF90EF90DF9098
:1009C000CF90BF90AF900C94CB0380E49CE9F701EB
:1009D000918380838FEF8883DF91CF911F910F9157
:1009E000FF90EF90DF90CF90BF90AF900895CF939E
:1009F000DF93EC0180917C0390917D03009759F087
:100A000020917E0330917F032C173D0720F081E079
:100A1000DF91CF910895BE016F5F7F4F0E94890CD7
:100A2000009789F090937D0380937C03D0937F039C
:100A3000C0937E032091800330918103232B39F7EB
:100A4000FC011082E4CF80E0E3CF1F920F920FB63B
:100A50000F9211240BB60F922F933F934F935F93F6
:100A60006F937F938F939F93AF93BF93EF93FF9376
:100A70008EE492E00E947802FF91EF91BF91AF91D6
:100A80009F918F917F916F915F914F913F912F91A6
:100A90000F900BBE0F900FBE0F901F9018951F92D6
:100AA0000F920FB60F9211240BB60F922F938F93C4
:100AB0009F93EF93FF93E0915E02F0915F0280813C
:100AC000E0916402F091650282FD1DC090818091E9
:100AD00067028F5F8F7320916802821741F0E09167
:100AE0006702F0E0E25BFD4F958F80936702FF9114
:100AF000EF919F918F912F910F900BBE0F900FBE92
:100B00000F901F9018958081F2CF1F920F920FB611
:100B10000F9211242F933F938F939F93AF93BF9383
:100B200080914A0290914B02A0914C02B0914D02EB
:100B30003091460223E0230F2D3758F50196A11D71
:100B4000B11D2093460280934A0290934B02A093DA
:100B50004C02B0934D028091420290914302A091C9
:100B60004402B09145020196A11DB11D809342023D
:100B700090934302A0934402B0934502BF91AF917A
:100B80009F918F913F912F910F900FBE0F901F90CB
:100B9000189526E8230F0296A11DB11DD2CF1F92F2
:100BA0000F920FB60F9211240BB60F922F933F9313
:100BB0004F935F936F937F938F939F93AF93BF9365
:100BC000EF93FF9348E251E064E271E090E080E04F
:100BD0000E943D04FF91EF91BF91AF919F918F9142
:100BE0007F916F915F914F913F912F910F900BBE2D
:100BF0000F900FBE0F901F9018951F920F920FB677
:100C00000F9211240BB60F922F933F934F935F9344
:100C10006F937F938F939F93AF93BF93EF93FF93C4
:100C200048EA50E064EA70E083E090E00E943D040E
:100C3000FF91EF91BF91AF919F918F917F916F91B4
:100C40005F914F913F912F910F900BBE0F900FBE70
:100C50000F901F9018951F920F920FB60F921124AC
:100C60000BB60F922F933F934F935F936F937F93A6
:100C70008F939F93AF93BF93EF93FF9348E950E017
:100C800064E970E082E090E00E943D04FF91EF9102
:100C9000BF91AF919F918F917F916F915F914F9194
:100CA0003F912F910F900BBE0F900FBE0F901F9092
:100CB00018951F920F920FB60F9211240BB60F9238
:100CC0002F933F934F935F936F937F938F939F9354
:100CD000AF93BF93EF93FF9348E850E064E870E070
:100CE00081E090E00E943D04FF91EF91BF91AF91B0
:100CF0009F918F917F916F915F914F913F912F9134
:100D00000F900BBE0F900FBE0F901F901895109272
:100D100051021092500288EE93E0A0E0B0E0809380
:100D2000520290935302A0935402B093550282E270
:100D300092E090934F0280934E0285E391E090936E
:100D40005B0280935A0284E391E090935D0280936A
:100D50005C0280E391E090935F0280935E0281E306
:100D600091E0909361028093600282E391E090931E
:100D700063028093620286E391E090936502809320
:100D80006402109267021092680210926902109237
:100D90006A021092870310928B0310928A031092BA
:100DA0008C0384E392E09093860380938503E1EAC9
:100DB000F3E01082148213821582369683E0ED3DB3
:100DC000F807B9F784E092E09093E8038093E70393
:100DD00080E092E09093EA038093E90384E08093BB
:100DE000EB038093EC0388E092E09093E60380931A
:100DF000E5038AE090E09093EE038093ED0384EFA7
:100E000091E09093F0038093EF031092F30310921C
:100E1000F2031092E1031092E2031092E3031092A6
:100E2000E4031092F10380917B038033D8F591E0C5
:100E3000980F90937B038093820390E0FC01EE0F68
:100E4000FF1FE80FF91FE551FD4F88EB9BE09283F0
:100E5000818310927D0310927C0310927F03109285
:100E60007E03109281031092800390E080E00E9444
:100E7000F70420917C0330917D03811117C0211567
:100E8000310519F0C9010E94000C10927D031092E7
:100E90007C03109281031092800310927F031092C2
:100EA0007E0308958FEF80938203D3CF1092810346
:100EB000109280036CE372E0C9010C94730DCF9320
:100EC000DF931F921F92CDB7DEB7789484B582600E
:100ED00084BD84B5816084BD85B5826085BD85B5DE
:100EE000816085BD80916E00816080936E0010925C
:100EF00081008091810082608093810080918100D7
:100F00008160809381008091800081608093800067
:100F10008091B10084608093B1008091B0008160C5
:100F20008093B000809191008260809391008091C5
:100F30009100816080939100809190008160809306
:100F400090008091A10082608093A1008091A10017
:100F500081608093A1008091A00081608093A000B7
:100F60008091210182608093210180912101816023
:100F700080932101809120018160809320018091E4
:100F80007A00846080937A0080917A0082608093F6
:100F90007A0080917A00816080937A0080917A0053
:100FA000806880937A001092C10080918203803320
:100FB00008F052C061E08DE00E94FD038091820341
:100FC000282F30E0F901EE0FFF1FE20FF31FE5516C
:100FD000FD4F9081907C9D609083109283031092CE
:100FE00084032CE0622F0E94490B829FB0011124E0
:100FF00030E020E0AB01420F531FFA01EE0FFF1F5C
:10100000E40FF51FE551FD4F908196FD17C02F5F4E
:101010003F4F2C30310571F7813009F091C01092AB
:10102000800082E0809381001092850010928400FD
:10103000B19A80916F00826080936F00E09182038B
:101040008E2F90E0FC01EE0FFF1FE80FF91FE55116
:10105000FD4F808180648083E0915E02F0915F02A9
:1010600082E08083E0915A02F0915B021082E0916D
:101070005C02F0915D028FEC808310926602E09139
:101080006202F091630286E08083E0916002F09159
:101090006102808180618083E0916002F091610251
:1010A000808188608083E0916002F091610280819C
:1010B00080688083E0916002F091610280818F7D81
:1010C000808322242A94322CB4EB4B2E512C612C99
:1010D000712C51E05093F1038FB7F89440914A027C
:1010E00050914B0260914C0270914D028FBF8091E4
:1010F000E1039091E203A091E303B091E403481B64
:10110000590B6A0B7B0B8091ED039091EE03B0E0DD
:10111000A0E084179507A607B70708F042C110E0C2
:101120008091EB031817C0F5E091E703F091E80315
:10113000E10FF11D62E080810E94FD031F5FF0CF8F
:10114000823061F41092900080939100109295008B
:101150001092940088BB8093710070CF833069F443
:101160001092A00082E08093A1001092A50010923E
:10117000A40089BB8093720061CF81115FCF109270
:10118000200182E080932101109225011092240118
:101190008ABB8093730052CFF12C8091EC03F81638
:1011A00008F063C0CF2CD12CE091E903F091EA0361
:1011B000EC0DFD1D61E080810E94FD03E091E903DB
:1011C000F091EA03EC0DFD1D60E080810E94CB03ED
:1011D00081E090E0A0E0B0E00F2C04C0880F991FE0
:1011E000AA1FBB1F0A94D2F74C015C01A094B094D3
:1011F000E12C8091EB03E81608F50E2D10E0E0914C
:10120000E703F091E803E00FF11F80810E949F0344
:101210000C5F1F4F000F111FF801EB57FC4F892B7C
:1012200041F4808191818829992991838083E39475
:10123000E0CF808191818A219B21F7CFE091E90362
:10124000F091EA03EC0DFD1D61E080810E94CB036B
:101250008091E9039091EA03C80ED91E60E0F6017F
:1012600080810E94FD03F39498CF05E813E0F80114
:10127000878D90A1892B21F4148E368E258E11A294
:10128000369653E0E13CF50799F7F12C8091EB039A
:10129000F81608F053C0E12CCF2CD12CCC0CDD1C5F
:1012A000B60163577C4F6B012091EC03E21608F006
:1012B00043C0F601608171810E2C02C0769567955E
:1012C0000A94E2F7F29E900111242E0D311DE5E8FB
:1012D000F3E080E0458D568D2417350709F437C1BA
:1012E0008F5F36968A30B1F760FF24C0E5E8F3E0FF
:1012F00090E080E0448D411118C0E091E503F09149
:10130000E603E20FF31F408156E0589FF001599F1A
:10131000F00D1124EB57FC4F448F368F258F10A210
:10132000178E61E00E94940105C0019636968A30BE
:10133000910501F7E394B8CFF394A8CF80E0F801CA
:1013400091A19111892F0A5F1F4FF3E0013C1F0704
:10135000B1F79FB7F89440914A0250914B026091C7
:101360004C0270914D029FBF4093E1035093E20302
:101370006093E3037093E403882399F08091A603BC
:10138000882379F08091A4039091A503019749F4F3
:10139000F090A103F0924902F11008C00E940703E7
:1013A00098CE1092F10310924902F8CF5DE3F51246
:1013B000A8C080917C0390917D03009709F476C0CA
:1013C0000E94B20A9B01653B710508F073C0DB0106
:1013D00024EF31E00E945D0BA30192010E94EE0A0E
:1013E00024523A4F4F4F5F4F3093480220934702A9
:1013F00042E050E06AE372E08EE492E00E94040270
:10140000209182032033A8F5409147025091480271
:101410008091830368E870E0681B710987FD73950C
:10142000CB01880F991F880F991F481759078CF017
:1014300080918403E8E5F2E0E81BF10987FDF3956C
:10144000CF01880F991F880F991F481759070CF46F
:10145000CA010297880F991F4FB7F89430E0F9013D
:10146000EE0FFF1FE20FF31FE551FD4F92838183C3
:101470004FBF90E080E00E94F70420917C03309100
:101480007D03811134C02115310519F0C9010E9475
:10149000000C10927D0310927C0310928103109235
:1014A000800310927F0310927E0378CF60E070E09B
:1014B000CB0188CF645B7109653B710508F098CF5B
:1014C00028563140032E000C440B550B2C543F4F33
:1014D0004F4F5F4FA4EFB1E00E940D0BA3019201AB
:1014E0000E94EE0A28513C4F4F4F5F4F7DCF109224
:1014F0008103109280036CE372E0C9010E94730DB6
:101500004DCFF9821A8200918003109181030F5F01
:101510001F4FC8010E94F704882399F020917C0393
:1015200030917D038091800390918103BE016F5FB4
:101530007F4F820F931F0E94730D109381030093BE
:1015400080036F2D8EE492E00E949A0227CF617093
:10155000E9CE80917C0390917D03009711F00C946B
:10156000000C08951F93FC0199278827BC01E8947B
:1015700011911032E9F3193010F01E30C8F31B320C
:1015800051F01D3249F4689406C00E94D90A610FD7
:10159000711D811D911D119110531A30B0F33EF44D
:1015A00090958095709561957F4F8F4F9F4F1F91BC
:1015B0000895592F482F372F262F660F771F881F22
:1015C000991F660F771F881F991F620F731F841F53
:1015D000951F660F771F881F991F0895052E97FB8B
:1015E0001EF400940E94050B57FD07D00E94180BB3
:1015F00007FC03D04EF40C94050B509540953095A4
:1016000021953F4F4F4F5F4F08959095809570956E
:1016100061957F4F8F4F9F4F08950E943A0BA59F72
:10162000900DB49F900DA49F800D911D11240895DD
:10163000A1E21A2EAA1BBB1BFD010DC0AA1FBB1FD6
:10164000EE1FFF1FA217B307E407F50720F0A21B48
:10165000B30BE40BF50B661F771F881F991F1A94B5
:1016600069F760957095809590959B01AC01BD01DF
:10167000CF010895A29FB001B39FC001A39F700D39
:10168000811D1124911DB29F700D811D1124911D8A
:101690000895991B79E004C0991F961708F0961BCE
:1016A000881F7A95C9F780950895EE0FFF1F881F50
:1016B0008BBF0790F691E02D19940E943A0BB7FF6B
:1016C0000895821B930B08950F931F93CF93DF937D
:1016D0008230910510F482E090E0E091F603F09101
:1016E000F70330E020E0B0E0A0E0309799F4211556
:1016F000310509F44AC0281B390B24303105D8F5CF
:101700008A819B816115710589F1FB019383828335
:10171000FE0111C040815181028113814817590790
:10172000E0F04817590799F4109761F012960C935E
:10173000129713961C933296CF01DF91CF911F9190
:101740000F9108950093F6031093F703F4CF21153A
:10175000310551F04217530738F0A901DB019A0116
:10176000BD01DF01F801C1CFEF01F9CF9093F7037D
:101770008093F603CDCFFE01E20FF31F8193919387
:101780002250310939832883D7CF2091F403309137
:10179000F503232B41F420911A0230911B02309360
:1017A000F5032093F40320911802309119022115BA
:1017B000310541F42DB73EB740911C0250911D02F6
:1017C000241B350BE091F403F091F503E217F307C6
:1017D000A0F42E1B3F0B2817390778F0AC014E5FA1
:1017E0005F4F2417350748F04E0F5F1F5093F503E6
:1017F0004093F403819391939FCFF0E0E0E09CCF7E
:10180000CF93DF930097E9F0FC01329713821282A5
:10181000A091F603B091F703ED0130E020E01097BE
:10182000A1F420813181820F931F2091F403309124
:10183000F5032817390709F061C0F093F503E09329
:10184000F403DF91CF910895EA01CE17DF07E8F5A1
:101850004A815B819E0141155105B1F7E901FB8386
:10186000EA8349915991C40FD51FEC17FD0761F424
:10187000808191810296840F951FE9019983888365
:10188000828193819B838A83F0E0E0E012968D91C0
:101890009C9113970097B9F52D913C911197CD012B
:1018A0000296820F931F2091F4033091F5032817BD
:1018B000390739F6309751F51092F7031092F60375
:1018C000B093F503A093F403BCCFD383C2834081CC
:1018D0005181840F951FC817D90761F44E5F5F4F80
:1018E00088819981480F591F518340838A819B8148
:1018F000938382832115310509F0B0CFF093F7036C
:10190000E093F6039ECFFD01DC01C0CF138212826B
:10191000D7CF4F925F926F927F928F929F92AF92AA
:10192000BF92CF92DF92EF92FF920F931F93CF93CC
:10193000DF938C01009799F4CB01DF91CF911F9138
:101940000F91FF90EF90DF90CF90BF90AF909F905E
:101950008F907F906F905F904F900C94640BFC0180
:10196000E60FF71F9C0122503109E217F30708F434
:10197000AEC0D901CD91DC911197C617D70720F1E0
:10198000C530D10578F0CE0104978617970750F03F
:10199000C61BD70B2297C193D1936D937C93CF0134
:1019A0000E94000CC801DF91CF911F910F91FF9011
:1019B000EF90DF90CF90BF90AF909F908F907F90EF
:1019C0006F905F904F9008955B01AC1ABD0A4C0177
:1019D0008C0E9D1EA091F603B091F703512C412C63
:1019E000F12CE12C109731F58091F4039091F503DF
:1019F0008815990509F05CC04616570608F058C0CE
:101A00008091180290911902009741F48DB79EB70A
:101A100040911C0250911D02841B950BE817F90799
:101A200008F055C0F093F503E093F403F9017183D6
:101A30006083B8CF8D919C91119712966C901297FC
:101A400013967C901397A815B90559F56C0142E0DF
:101A5000C40ED11CCA14DB0420F1AC014A195B0985
:101A6000DA011296159780F0628273825183408367
:101A7000D9016D937C93E114F10471F0D7011396B1
:101A8000FC93EE9312978ECF22968C0F9D1FF90137
:101A900091838083F301EFCFF093F703E093F60394
:101AA00081CF4816590608F42C017D01D3019ACF45
:101AB000CB010E94640B7C01009749F0AE01B80194
:101AC0000E946A0DC8010E94000C87016BCF10E0D4
:101AD00000E068CFFB01DC0102C001900D92415093
:101AE0005040D8F70895FB01DC0101900D920020D1
:101AF000E1F7089511E0CDE3D1E000E006C0802FCA
:101B0000FE010E94550B2196011DCE33D10780E0C6
:081B10000807A9F7F894FFCFC4
:101B18001A1B1C1D161718193738392F3435362A51
:101B28003132332D43303D2B0000F8038000000094
:101B380000009A0204023102E702620240025402E3
:0E1B4800000000003904F903C8030D0A000074
:00000001FF
