:100000000C9428010C9459010C9459010C94590139
:100010000C9459010C9459010C9459010C945901F8
:100020000C9459010C9459010C9459010C945901E8
:100030000C9459010C9459010C9459010C945901D8
:100040000C9459010C947F050C9459010C9459019E
:100050000C9459010C9459010C9459010C94AB0463
:100060000C9459010C9475040C944B040C94590194
:100070000C9459010C9459010C9459010C94590198
:100080000C9451050C9459010C9459010C9459018C
:100090000C9459010C9459010C9459010C94590178
:1000A0000C9459010C9459010C9423050C9459019A
:1000B0000C9459010C9459010C9459010C94F504B9
:1000C0000C9459010C9459010C9459010C94590148
:1000D0000C9459010C9459010C9459010C94590138
:1000E0000C9459010C9431030C9445030C940A03AD
:1000F0000C9423030C9472020C94BC010C943F03E7
:100100000C9412030C9416030C94CB010C941F0353
:100110000C94F8020C940E030C9449030C94DF0128
:100120000C948F010C943B030C9429030C9437031B
:100130000C94F3020C9425020C94AD050C94190355
:100140000C942D030C94ED0100000A0B02090C0D18
:100150000E0807030401000000000000000000007A
:10016000000000000000000000000000000000008F
:10017000000000001211100000000000000000004C
:10018000000000000000000000000000000000006F
:100190002200250028002B002E003100340002012F
:1001A0000000050108010B010000210024002700C8
:1001B0002A002D0030003300010100000401070176
:1001C0000A010505050507050808080802020202DC
:1001D0000A0A0808040404040101010101010101E3
:1001E0000303030303030303040707070C0C0C0CAE
:1001F0000C0C0C0C02020202060606060606060697
:100200000B0B0B0B0B0B0B0B010210202008081023
:100210002040102040800201020108040201010276
:10022000040810204080804020100804020180044F
:1002300002018040201008040201080402010102AA
:100240000408102040800102040810204080AD0501
:1002500011241FBECFEFD1E2DEBFCDBF00E00CBF47
:1002600012E0A0E0B2E0E4E4F0E100E00BBF02C085
:1002700007900D92A034B107D9F723E0A0E4B2E0D3
:1002800001C01D92A338B207E1F711E0C8E2D1E046
:1002900000E006C021970109802FFE010E94180886
:1002A000C732D10780E00807A9F70E940A060C941C
:1002B00020080C94000090E0FC01E85FFD4F2491C1
:1002C0008E539E4FFC018491882399F090E0880F13
:1002D000991FFC01E855FE4FA591B491FC01E2572E
:1002E000FE4F859194918FB7F894EC91E22BEC93AB
:1002F0008FBF089520918003203380F40297880FE8
:10030000991F4FB7F89430E0F901EE0FFF1FE20F8D
:10031000F31FE151FD4F928381834FBF0895AF9248
:10032000BF92CF92DF92EF92FF920F931F93CF93E2
:10033000DF936C017B018B01040F151FEB015E0144
:10034000AE18BF08C017D10759F06991D601ED91D9
:10035000FC910190F081E02DC6011995892B79F768
:10036000C501DF91CF911F910F91FF90EF90DF902A
:10037000CF90BF90AF900895FC01538D448D252FF1
:1003800030E0842F90E0821B930B541710F0CF962F
:10039000089501970895FC01918D828D981761F061
:1003A000A28DAE0FBF2FB11D5D968C91928D9F5F78
:1003B0009F73928F90E008958FEF9FEF0895FC0157
:1003C000918D828D981731F0828DE80FF11D858D0A
:1003D00090E008958FEF9FEF0895FC01918D228D9D
:1003E000892F90E0805C9F4F821B91098F73992722
:1003F000089582E592E00E94ED0121E0892B09F445
:1004000020E0822F0895FC01A48DA80FB92FB11D03
:10041000A35ABF4F2C91848D90E001968F7399273A
:10042000848FA689B7892C93A089B1898C91837018
:1004300080648C93938D848D981306C00288F38911
:10044000E02D80818F7D80830895EF92FF920F933E
:100450001F93CF93DF93EC0181E0888F9B8D8C8D70
:1004600098131AC0E889F989808185FF15C09FB764
:10047000F894EE89FF896083E889F9898081837027
:10048000806480839FBF81E090E0DF91CF911F91D6
:100490000F91FF90EF900895F62E0B8D10E00F5FF7
:1004A0001F4F0F731127E02E8C8D8E110CC00FB6CD
:1004B00007FCFACFE889F989808185FFF5CFCE0165
:1004C0000E940302F1CFEB8DEC0FFD2FF11DE35ADB
:1004D000FF4FF0829FB7F8940B8FEA89FB898081E8
:1004E0008062CFCFCF93DF93EC01888D8823B9F062
:1004F000AA89BB89E889F9898C9185FD03C080812F
:1005000086FD0DC00FB607FCF7CF8C9185FFF2CFAB
:10051000808185FFEDCFCE010E940302E9CFDF91FC
:10052000CF91089580E090E0892B29F00E94F90195
:1005300081110E94000080E090E0892B49F080E06A
:1005400090E0892B29F00E94000081110E94000098
:1005500080E090E0892B49F080E090E0892B29F041
:100560000E94000081110E94000080E090E0892B31
:1005700049F080E090E0892B29F00E940000811171
:100580000C9400000895282F30E0F901E85BFE4F3D
:100590009491F901E85FFD4F44912E533E4FF901CC
:1005A0002491222309F435C0992311F191509231FD
:1005B000F8F4E92FF0E08827EF51FD4F8F4F0C94AE
:1005C000180812031603F3020A030E03F8021903B4
:1005D0001F03230329032D03310337033B03F802D1
:1005E0003F0345034903809180008F77809380000B
:1005F000E22FF0E0EE0FFF1FE257FE4FA591B491FE
:100600008FB7F894EC91611148C040954E234C93FC
:100610008FBF0895809180008F7DE8CF809180000A
:10062000877FE4CF84B58F7784BDE2CF84B58F7D9B
:10063000FBCF8091B0008F778093B000D9CF8091AD
:10064000B0008F7DF9CF809190008F7780939000DC
:10065000CFCF809190008F7DF9CF80919000877FE0
:10066000F5CF8091A0008F778093A000C1CF8091BB
:10067000A0008F7DF9CF8091A000877FF5CF80917A
:1006800020018F7780932001B3CF809120018F7D4F
:10069000F9CF80912001877FF5CF4E2BB8CF3FB7A0
:1006A000F8948091450290914602A0914702B09142
:1006B000480226B5A89B05C02F3F19F00196A11D41
:1006C000B11D3FBFBA2FA92F982F8827BC01CD019C
:1006D000620F711D811D911D42E0660F771F881FFB
:1006E000991F4A95D1F70895AF92BF92CF92DF92AA
:1006F000EF92FF920F931F93CF93DF936B017A01D9
:10070000EC01C05CDD4F28813CE0389F8001399FBF
:10071000100D1124A0907F03B12C27FF1FC0FB01F7
:100720001182108288818F5F888388819801280FC9
:10073000311D87FD3A95F6012A153B051CF4888189
:100740008C30C4F180819181049680349C4908F4F6
:1007500073C0F60180819181049670C088819801F0
:10076000280F311D87FD3A952A153B05DCF6888157
:10077000A801480F511D87FD5A95FA01EE0FFF1F82
:10078000E40FF51FE151FD4F808186FFCBCF8881BB
:10079000F801E80FF11D87FDFA95CF01EE0FFF1F5D
:1007A000E80FF91FE151FD4F808160E08F730E94D7
:1007B000C302B8CF808191812881A801420F511DC9
:1007C00027FD5A959A01FA01EE0FFF1FE20FF31F62
:1007D000E151FD4F21813281820F931FF7019183F7
:1007E000808388819801280F311D87FD3A95F90192
:1007F000EE0FFF1FE20FF31FE151FD4F808186FFD7
:1008000022C08881080F111D87FD1A95F801EE0F8F
:10081000FF1FE00FF11FE151FD4F808161E08F73F9
:10082000DF91CF911F910F91FF90EF90DF90CF90CC
:10083000BF90AF900C94C30280E49CE9F7019183D0
:1008400080838FEF8883DF91CF911F910F91FF906D
:10085000EF90DF90CF90BF90AF900895CF93DF934C
:10086000FC0101900020E9F73197AF01481B590BBB
:10087000BC0182E592E00E948F01EC0142E050E071
:1008800062E172E082E592E00E948F018C0F9D1F71
:10089000DF91CF9108951F920F920FB60F921124FE
:1008A0000BB60F922F933F934F935F936F937F936A
:1008B0008F939F93AF93BF93EF93FF9382E592E063
:1008C0000E940302FF91EF91BF91AF919F918F9191
:1008D0007F916F915F914F913F912F910F900BBE40
:1008E0000F900FBE0F901F9018951F920F920FB68A
:1008F0000F9211240BB60F922F938F939F93EF9328
:10090000FF93E0916202F09163028081E0916802BE
:10091000F091690282FD1DC0908180916B028F5F12
:100920008F7320916C02821741F0E0916B02F0E02E
:10093000EE5AFD4F958F80936B02FF91EF919F913F
:100940008F912F910F900BBE0F900FBE0F901F90A5
:1009500018958081F2CF1F920F920FB60F9211243B
:100960002F933F938F939F93AF93BF9380914902AF
:1009700090914A02A0914B02B0914C0230914402F6
:1009800023E0230F2D3758F50196A11DB11D2093AB
:1009900044028093490290934A02A0934B02B09381
:1009A0004C028091450290914602A0914702B0917D
:1009B00048020196A11DB11D809345029093460205
:1009C000A0934702B0934802BF91AF919F918F913E
:1009D0003F912F910F900FBE0F901F90189526E812
:1009E000230F0296A11DB11DD2CF1F920F920FB6F9
:1009F0000F9211240BB60F922F933F934F935F9357
:100A00006F937F938F939F93AF93BF93EF93FF93D6
:100A100048E251E064E271E090E080E00E947403FB
:100A2000FF91EF91BF91AF919F918F917F916F91C6
:100A30005F914F913F912F910F900BBE0F900FBE82
:100A40000F901F9018951F920F920FB60F921124BE
:100A50000BB60F922F933F934F935F936F937F93B8
:100A60008F939F93AF93BF93EF93FF9348EA50E028
:100A700064EA70E083E090E00E947403FF91EF91DC
:100A8000BF91AF919F918F917F916F915F914F91A6
:100A90003F912F910F900BBE0F900FBE0F901F90A4
:100AA00018951F920F920FB60F9211240BB60F924A
:100AB0002F933F934F935F936F937F938F939F9366
:100AC000AF93BF93EF93FF9348E950E064E970E080
:100AD00082E090E00E947403FF91EF91BF91AF918B
:100AE0009F918F917F916F915F914F913F912F9146
:100AF0000F900BBE0F900FBE0F901F9018951F9276
:100B00000F920FB60F9211240BB60F922F933F93B3
:100B10004F935F936F937F938F939F93AF93BF9305
:100B2000EF93FF9348E850E064E870E081E090E0E4
:100B30000E947403FF91EF91BF91AF919F918F91AC
:100B40007F916F915F914F913F912F910F900BBECD
:100B50000F900FBE0F901F90189510925502109293
:100B6000540288EE93E0A0E0B0E0809356029093A8
:100B70005702A0935802B093590284E092E09093F8
:100B800053028093520285EC90E090935F02809331
:100B90005E0284EC90E0909361028093600280ECAE
:100BA00090E0909363028093620281EC90E09093D6
:100BB00065028093640282EC90E0909367028093D8
:100BC000660286EC90E0909369028093680210922E
:100BD0006B0210926C0210926D0210926E02809164
:100BE0007F03803398F491E0980F90937F03809374
:100BF000800390E0FC01EE0FFF1FE80FF91FE151A9
:100C0000FD4F88EB9BE09283818308958FEF809363
:100C100080030895789484B5826084BD84B5816032
:100C200084BD85B5826085BD85B5816085BD8091B7
:100C30006E00816080936E0010928100809181002F
:100C40008260809381008091810081608093810027
:100C5000809180008160809380008091B1008460E9
:100C60008093B1008091B00081608093B00080914A
:100C700091008260809391008091910081608093C7
:100C80009100809190008160809390008091A100FC
:100C900082608093A1008091A10081608093A10077
:100CA0008091A00081608093A000809121018260EA
:100CB00080932101809121018160809321018091A5
:100CC000200181608093200180917A00846080936C
:100CD0007A0080917A00826080937A0080917A0015
:100CE000816080937A0080917A00806880937A0096
:100CF0001092C100E0916202F091630282E0808371
:100D0000E0915E02F0915F021082E0916002F0914A
:100D100061028FEC808310926A02E0916602F0918A
:100D2000670286E08083E0916402F0916502808131
:100D300080618083E0916402F09165028081886027
:100D40008083E0916402F0916502808180688083F5
:100D5000E0916402F091650280818F7D80838091B3
:100D60008003803308F051C08DE00E945B018091C8
:100D70008003282F30E0F901EE0FFF1FE20FF31F71
:100D8000E151FD4F9081907C9D6090831092810392
:100D9000109282032CE0622F0E940C08829FB00107
:100DA000112430E020E0AB01420F531FFA01EE0F97
:100DB000FF1FE40FF51FE151FD4F908196FD17C015
:100DC0002F5F3F4F2C30310571F7813009F072C031
:100DD0001092800082E08093810010928500109232
:100DE0008400B19A80916F00826080936F00E091DF
:100DF00080038E2F90E0FC01EE0FFF1FE80FF91F1C
:100E0000E151FD4F8081806480838AE00E945B0114
:100E10008BE00E945B0189E00E945B0188E00E94F8
:100E20005B0182E592E00E94ED01892B09F4DBC0B1
:100E30002FB7F8948091490290914A02A0914B02F9
:100E4000B0914C022FBF80934D0290934E02A0931D
:100E50004F02B093500282E592E00E94ED01892B8F
:100E600009F454C02FB7F8948091490290914A0236
:100E7000A0914B02B0914C022FBF40914D02509176
:100E80004E0260914F0270915002841B950BA60B8D
:100E9000B70B85369105A105B105C0F582E592E055
:100EA0000E94CB01873709F063C061E08AE00E94AD
:100EB000C302D1CF823061F41092900080939100F0
:100EC000109295001092940088BB809371008FCF90
:100ED000833069F41092A00082E08093A100109208
:100EE000A5001092A40089BB8093720080CF81116D
:100EF0007ECF1092200182E0809321011092250183
:100F0000109224018ABB8093730071CF82E592E036
:100F10000E94ED01892B29F082E592E00E94CB012D
:100F2000F5CF0E944F034B015C0182E8C82ED12C03
:100F3000E12CF12C0E944F03681979098A099B0959
:100F4000683E734081059105A8F321E0C21AD108DB
:100F5000E108F10888EE880E83E0981EA11CB11C00
:100F6000C114D104E104F10429F70E94920259CF7F
:100F7000833719F461E08BE09ACF823329F486ED50
:100F800096E00E947A0167CF813319F48AE397E0F3
:100F9000F8CF833319F482EE94E0F3CF843319F45D
:100FA0008EE794E0EECF883639F485E192E00E9436
:100FB0002E0461E088E07BCF8C3669F482E292E017
:100FC0000E942E048091510291E089278093510262
:100FD00061E089E06CCF8B3609F03DCF80E392E091
:100FE0000E942E04F5CF80915102811104C060E06F
:100FF00089E00E94C30260E088E00E94C30260E0D2
:101000008AE00E94C30260E08BE00E94C3028CED84
:1010100095E00E947A01A9CF991B79E004C0991F3D
:10102000961708F0961B881F7A95C9F78095089542
:10103000EE0FFF1F881F8BBF0790F691E02D1994CC
:04104000F894FFCF52
:101044000000000025028F01BC017202ED01CB01FA
:10105400DF010D0A005072657373656420486F6E7A
:101064006B00546F67676C65204C69676874730024
:1010740050726573736564206C69676874730000EB
:00000001FF
