:020000040000FA
:100000000C9451010C9482010C9482010C94820195
:100010000C9482010C9482010C9482010C94820154
:100020000C9482010C9482010C9482010C94820144
:100030000C9482010C9482010C9482010C94820134
:100040000C9482010C9482010C9482010C94820124
:100050000C9482010C9482010C9482010C94720B1A
:100060000C9482010C943C0B0C94120B0C948201A6
:100070000C9482010C9482010C9482010C948201F4
:100080000C9482010C9482010C9482010C948201E4
:100090000C9482010C9482010C9482010C94BC0B90
:1000A0000C9482010C9482010C9482010C948201C4
:1000B0000C9482010C9482010C9482010C948201B4
:1000C0000C9482010C9482010C9482010C948201A4
:1000D0000C9482010C9482010C9482010C94820194
:1000E0000C9482010C9416030C94A7010C94320317
:1000F0000C9464090C9409030C942E030C942707A8
:100100000C940D030C94A9010C94DE030C940407C9
:100110000C9410030C94B6050C948C020C94FB0206
:100120000C94F9010C942E070C943F020C94E00CF3
:100130000C943C030C9420030C9405030C941407BA
:100140000C948F070C946D030C9424030C945B07A0
:100150000C9405070C9401030C941A030C944003AF
:100160000C9407020C94E5010C94A8010C9436033E
:100170000C943B030C94D6010C949E030C9428031E
:1001800000002100240027002A002D003000330049
:1001900001010000040107010A01000022002500FE
:1001A00028002B002E003100340002010000050160
:1001B00008010B01000020002300260029002C006C
:1001C0002F003200000100000301060109010505AE
:1001D0000505070508080808020202020A0A0808BD
:1001E00004040404010101010101010103030303EB
:1001F00003030303040707070C0C0C0C0C0C0C0C7A
:100200000202020206060606060606060B0B0B0B8A
:100210000B0B0B0B010210202008081020401020AF
:1002200040800201020108040201010204081020BA
:1002300040808040201008040201800402018040B8
:100240002010080402010804020101020408102021
:100250004080010204081020408000000A0B0209BF
:100260000C0D0E0807030401000000000000000050
:10027000000000000000000000000000000000007E
:10028000000000000000121110000000000000003B
:10029000000000000000000000000000000000005E
:1002A000E00C11241FBECFEFD1E2DEBFCDBF00E0D6
:1002B0000CBF12E0A0E0B2E0E0E0F1E200E00BBF32
:1002C00002C007900D92A43CB107D9F724E0A4EC3A
:1002D000B2E001C01D92AC3BB207E1F711E0C1E50D
:1002E000D1E000E006C021970109802FFE010E94A5
:1002F0007610C035D10780E00807A9F70E94AB0D42
:100300000C947E100C94000096E0899FD00111247B
:10031000AB5CBB4F90967C936E935F9791E0919608
:100320009C939197E091A204F091A3049091A10471
:10033000992339F0309751F0811108C08091510410
:100340001994309719F05C968C91FACF089508951E
:100350000895AF92BF92CF92DF92EF92FF920F93E8
:100360001F93CF93DF936C017B018B01040F151F4B
:10037000EB015E01AE18BF08C017D10759F06991B3
:10038000D601ED91FC910190F081E02DC601199507
:10039000892B79F7C501DF91CF911F910F91FF90C4
:1003A000EF90DF90CF90BF90AF900895FC01538DF8
:1003B000448D252F30E0842F90E0821B930B54173F
:1003C00010F0CF96089501970895FC01918D828DCC
:1003D000981761F0A28DAE0FBF2FB11D5D968C9165
:1003E000928D9F5F9F73928F90E008958FEF9FEFA4
:1003F0000895FC01918D828D981731F0828DE80F60
:10040000F11D858D90E008958FEF9FEF0895FC0119
:10041000918D228D892F90E0805C9F4F821B9109E6
:100420008F73992708958CE893E00E94070221E0DA
:10043000892B09F420E0822F0895FC01A48DA80FD8
:10044000B92FB11DA35ABF4F2C91848D90E0019616
:100450008F739927848FA689B7892C93A089B18936
:100460008C91837080648C93938D848D981306C0D7
:100470000288F389E02D80818F7D80830895EF923B
:10048000FF920F931F93CF93DF93EC0181E0888F4E
:100490009B8D8C8D98131AC0E889F989808185FF1E
:1004A00015C09FB7F894EE89FF896083E889F989C0
:1004B00080818370806480839FBF81E090E0DF91C2
:1004C000CF911F910F91FF90EF900895F62E0B8D15
:1004D00010E00F5F1F4F0F731127E02E8C8D8E11D0
:1004E0000CC00FB607FCFACFE889F989808185FF37
:1004F000F5CFCE010E941D02F1CFEB8DEC0FFD2F49
:10050000F11DE35AFF4FF0829FB7F8940B8FEA89F1
:10051000FB8980818062CFCFCF93DF93EC01888D00
:100520008823B9F0AA89BB89E889F9898C9185FD6E
:1005300003C0808186FD0DC00FB607FCF7CF8C91FC
:1005400085FFF2CF808185FFEDCFCE010E941D0295
:10055000E9CFDF91CF91089580E090E0892B29F0D9
:100560000E94130281110E94000080E090E0892B1C
:1005700049F080E090E0892B29F00E940000811171
:100580000E94000080E090E0892B49F080E090E03C
:10059000892B29F00E94000081110E94000080E058
:1005A00090E0892B49F080E090E0892B29F00E94AF
:1005B000000081110C94000008958150823108F0F0
:1005C0005AC0E82FF0E08827E751FD4F8F4F0C9479
:1005D000761009030D03FB02010305033B0310031F
:1005E00016031A032003240328032E0332033B03BC
:1005F00036033C034003809180008F778093800016
:100600000895809180008F7DF9CF80918000877F51
:10061000F5CF84B58F7784BD089584B58F7DFBCFEA
:100620008091B0008F778093B00008958091B000E2
:100630008F7DF9CF809190008F77809390000895FF
:10064000809190008F7DF9CF80919000877FF5CFCA
:100650008091A0008F778093A00008958091A000E2
:100660008F7DF9CF8091A000877FF5CF8091200109
:100670008F77809320010895809120018F7DF9CF9D
:1006800080912001877FF5CFCF93DF93282F30E033
:10069000F901E65AFD4F8491F901EC5EFD4FD491CA
:1006A000F901E253FE4FC491CC23A1F081110E94C5
:1006B000DD02EC2FF0E0EE0FFF1FEC54FE4FA59192
:1006C000B491EC91ED2381E090E009F480E0DF91BA
:1006D000CF91089580E090E0FACF862F0C944403E8
:1006E0001F93CF93DF93282F30E0F901E65AFD4F97
:1006F0008491F901EC5EFD4FD491F901E253FE4F74
:10070000C491CC23A9F0162F81110E94DD02EC2F99
:10071000F0E0EE0FFF1FE656FE4FA591B4918FB7A4
:10072000F894EC91111108C0D095DE23DC938FBFB3
:10073000DF91CF911F910895DE2BF8CF862F642F84
:100740000C947003CF93DF9390E0FC01EC5EFD4FBF
:10075000249182539E4FFC0184918823C9F090E03C
:10076000880F991FFC01E058FE4FA591B491FC0140
:10077000E656FE4FC591D49161110DC09FB7F89414
:100780008C91209582238C938881282328839FBF76
:10079000DF91CF910895623051F49FB7F8943C9166
:1007A000822F809583238C93E8812E2BEFCF8FB7F8
:1007B000F894EC912E2B2C938FBFEACF862F642FC9
:1007C0000C94A2033FB7F89480910D0390910E030F
:1007D000A0910F03B091100326B5A89B05C02F3F31
:1007E00019F00196A11DB11D3FBFBA2FA92F982F57
:1007F0008827BC01CD01620F711D811D911D42E052
:10080000660F771F881F991F4A95D1F708952FB754
:10081000F8946091090370910A0380910B03909101
:100820000C032FBF08950F931F93CF93DF93C82F0F
:10083000D62F86E0C89FF0011124EB5CFB4F11A27C
:10084000878D90A181309105F1F058F082309105AB
:10085000F1F1039709F440C0DF91CF911F910F91FF
:1008600008956623C9F361E070E08C2F0E94840133
:100870000E94070460938D0470938E0480938F040C
:1008800090939004E9CF0E94070400918D04109189
:100890008E0420918F0430919004AB01BC01401B69
:1008A000510B620B730B80919F049091A004B0E0F8
:1008B000A0E084179507A607B70748F462E070E048
:1008C0008C2FDF91CF911F910F910C94840163E0E5
:1008D00070E0D111C1CFF4CF70E060E0F1CF6F9242
:1008E0007F928F929F92AF92BF92CF92DF92EF92C0
:1008F000FF920F931F93CF93DF9381E08093A10426
:100900000E94070400919104109192042091930495
:1009100030919404AB01BC01401B510B620B730B73
:1009200080919D0490919E04B0E0A0E0841795070B
:10093000A607B70708F014C1C0E080919B04C81750
:1009400060F4E0919704F0919804EC0FF11D62E0DF
:1009500080810E94A203CF5FF0CF712C812C912C5B
:100960005401839480919C04781608F05FC0072D91
:1009700010E0E0919904F0919A04E00FF11F61E01A
:1009800080810E94A203E0919904F0919A04E00F03
:10099000F11F60E080810E947003D501C401072C23
:1009A00004C0880F991FAA1FBB1F0A94D2F76C01BD
:1009B0007C01E094F094612C80919B046816F8F41B
:1009C000C62DD0E0E0919704F0919804EC0FFD1F44
:1009D00080810E9444032496CC0FDD1FCB5CDB4F4B
:1009E000892B41F4888199818C299D299983888359
:1009F0006394E2CF888199818E219F21F7CFE09186
:100A00009904F0919A04E00FF11F61E080810E9447
:100A100070038091990490919A04080F191F60E067
:100A2000F80180810E94A20373949CCFC5E3D4E0B7
:100A3000FE018FEF9FEF278D30A1232B21F4148E21
:100A4000968F858F11A2369624E0E137F20799F749
:100A5000F12C96E0D92E80919B04F81608F050C036
:100A6000E12C0F2D10E0000F111F035C1B4F209194
:100A70009C04E21608F042C0F801608171810E2CDE
:100A800002C0769567950A94E2F7F29E90011124D0
:100A90002E0D311DE5E3F4E080E0458D568D2417E1
:100AA000350709F461C08F5F36968A30B1F760FF71
:100AB00023C0E5E3F4E090E080E0448D411117C0ED
:100AC000E0919504F0919604E20FF31F4081D89EC7
:100AD000F001D99EF00D1124EB5CFB4F448F368F53
:100AE000258F10A2178E61E00E94130405C00196A5
:100AF00036968A30910509F7E394B9CFF394ABCFDA
:100B000010E089A18111182F2696F4E0C137DF0784
:100B1000C1F70E940704609391047093920480933C
:100B20009304909394041123D9F080915604882360
:100B3000B9F08091540490915504019789F4809103
:100B40005104DF91CF911F910F91FF90EF90DF90B3
:100B5000CF90BF90AF909F908F907F906F900895AF
:100B60001092A10480E0EDCF6170BECF0895209176
:100B7000E502260F3327331F21323105ECF4209193
:100B80006203FC0190E080E0243069F082E0089587
:100B9000A091E5022191AC014B535D4FA40FB52FFD
:100BA000B11D2C930196861798F38091E502680F8A
:100BB0006093E50280E0089581E008951092620359
:100BC00081E08093610310923C0361E084E10E9424
:100BD000700361E085E10E947003E9EBF0E0808141
:100BE0008E7F808380818D7F808388E48093B800AE
:100BF00085E48093BC000895CF93DF9391E09093B8
:100C0000C4028823B9F0C091B800D091BA00809195
:100C1000BC008A7B8093BC0060E084E10E9470038A
:100C200060E085E10E9470030E94DE05D093BA0067
:100C3000C093B800DF91CF910895CF92DF92EF92E9
:100C4000FF920F931F93CF93DF93D0918B0381E09B
:100C5000D13208F09CC0C0918A030E94E2036B016C
:100C60007C018091620381116CC082E080936203F9
:100C700081E0809361038FEF8093600310925F03A4
:100C8000D0935E03AAE6B3E0EEE3F3E080E0D8138E
:100C90008DC010923D0380913D03CC0FC82BC093B3
:100CA0003D0380913C03813009F084C010923C03E5
:100CB0000E94E2036B017C0180913D038093BB00A5
:100CC0008091640390916503A0916603B0916703DE
:100CD000892B8A2B8B2BA1F00E94E20300916403E5
:100CE0001091650320916603309167036C197D09AB
:100CF0008E099F09061717072807390708F442C00D
:100D00008091BC0083FDD8CF85EC8093BC000E940D
:100D1000E2036B017C0180916203823009F44CC0D4
:100D2000809160038F3F09F469C080916003803235
:100D300009F466C080916003803309F463C084E0E5
:100D400026C08091640390916503A0916603B091E1
:100D50006703892B8A2B8B2B09F483CF0E94E20334
:100D6000009164031091650320916603309167033D
:100D70006C197D098E099F0906171707280739077F
:100D800008F06FCF809163030E94FC0585E010920C
:100D9000690310928B0310926803DF91CF911F912A
:100DA0000F91FF90EF90DF90CF9008959D919193D8
:100DB0008F5F6DCF85EEA9CF80916403909165031D
:100DC000A0916603B0916703892B8A2B8B2B09F4C2
:100DD000A2CF0E94E2030091640310916503209169
:100DE0006603309167036C197D098E099F09061708
:100DF00017072807390708F08ECFC4CF80E0C7CF88
:100E000082E0C5CF83E0C3CF0895E09116038091BF
:100E10001503E81730F4F0E0E95EFC4F808190E0C4
:100E200008958FEF9FEF0895909116038091150319
:100E30002FEF3FEF981748F4E92FF0E0E95EFC4F01
:100E4000208130E09F5F90931603C901089580913F
:100E5000150390911603891B990B0895CF92DF9289
:100E6000EF92FF920F931F93CF93DF937C01CB01FF
:100E70008A0120916803222389F0EB016B01C40EE3
:100E8000D51ECC15DD0569F06991D701ED91FC9176
:100E90000190F081E02DC7011995F3CF642F0E94D6
:100EA000B705C801DF91CF911F910F91FF90EF908F
:100EB000DF90CF900895CF93DF931F92CDB7DEB729
:100EC0006983209168032223F9F020918B0320325B
:100ED00058F021E030E0FC013383228390E080E091
:100EE0000F90DF91CF91089580916903E82FF0E092
:100EF000E659FC4F998190838F5F809369038093BB
:100F00008B0381E090E0ECCF61E0CE0101960E947E
:100F1000B705F7CF682F89E294E00C945B0790E067
:100F200080E008958F929F92AF92BF92CF92DF920E
:100F3000EF92FF92CF93DF93EC01009709F04FC03F
:100F400061E08EE10E94700361E08FE10E94700316
:100F500061E080E20E94700361E081E20E94700320
:100F60000E94E2034B015C0188EEC82E83E0D82E7C
:100F7000E12CF12C0E94E203681979098A099B0986
:100F8000683E734081059105A8F321E0C21AD1089B
:100F9000E108F10888EE880E83E0981EA11CB11CC0
:100FA000C114D104E104F10429F760E08EE10E944C
:100FB000700360E08FE10E94700360E080E20E94B5
:100FC000700360E081E2DF91CF91FF90EF90DF90BE
:100FD000CF90BF90AF909F908F900C94700301972B
:100FE0000497A0F460E08EE10E94700360E08FE15E
:100FF0000E94700360E080E20E94700360E081E282
:101000000E94700361E08C2F835EDDCFDF91CF9172
:10101000FF90EF90DF90CF90BF90AF909F908F9018
:101020000895CF93DF93EC0160E08E810E947003FE
:1010300061E08E810E94700360E08E810E947003E7
:101040008BE891E00197F1F7DF91CF910895CF926E
:10105000DF92EF92FF920F931F93CF93DF936C0178
:101060007C0187E0E80EF11CD0E0C0E0062F10E024
:10107000B8010C2E02C0759567950A94E2F761706D
:10108000F70181917F010E9470032196C430D10540
:1010900079F7C601DF91CF911F910F91FF90EF90EB
:1010A000DF90CF900C941108CF92DF92EF92FF92D5
:1010B0000F931F93CF93DF93EC01F62E642F8C8157
:1010C0000E9470038D818F3F19F060E00E947003D1
:1010D0000F2D10E08F8584FF25C06E0187E0C80EBC
:1010E000D11CF12CE12CB8010E2C02C0759567952E
:1010F0000A94E2F76170F60181916F010E9470031A
:10110000FFEFEF1AFF0A88E0E816F10461F7CE015D
:10111000DF91CF911F910F91FF90EF90DF90CF90D3
:101120000C941108B80184E0759567958A95E1F7EC
:10113000CE010E9427086F2DCE01DF91CF911F9124
:101140000F91FF90EF90DF90CF900C94270840E034
:10115000682F84EA94E00C94540881E00E94A70868
:101160008BE39FE10197F1F70895CF93DF938230EE
:1011700029F49091B30498609093B3048093B704DA
:101180001092B80480E48093B90480E18093BA049B
:1011900080E58093BB0461E08091A8040E94A203D3
:1011A0008091A9048F3F19F061E00E94A20361E0E1
:1011B0008091AA040E94A203C4EAD4E09E01245AAA
:1011C00034408091B30484FD0BC084E090E021960C
:1011D0002817390744F461E08E810E94A203EECF04
:1011E00088E090E0F4CF8BE39DE00197F1F760E0B9
:1011F0008091A8040E94700360E08091AA040E947C
:1012000070038091A9048F3F19F060E00E94700381
:101210008091B30484FD34C063E084EA94E00E94CA
:101220002708CBE4D6E4CE010197F1F763E084EA26
:1012300094E00E9427082197F1F763E084EA94E0A4
:101240000E94270883E592E00197F1F762E084EAC3
:1012500094E00E9427088091B30480620E94A7084E
:1012600084E08093B4048CE00E94A7080E94AD083B
:1012700082E08093B50486E0DF91CF910C94A708BB
:1012800080620E94A7088BE496E40197F1F78091B1
:10129000B30480620E94A70883E592E00197F1F70A
:1012A0008091B30480620E94A708D5CF9091B704C3
:1012B000891710F08FEF890FE82FF0E0EC55FB4F06
:1012C000848980680C94A70841E00E94540881E05A
:1012D00090E00895FB0101900020E9F73197AF01FC
:1012E000461B570BDC01ED91FC910280F381E02D50
:1012F00019948F929F92AF92BF92EF92FF920F93A9
:101300001F93CF93DF93CDB7DEB7A1970FB6F894B5
:10131000DEBF0FBECDBF7C01FA01CB0119A2223086
:1013200008F42AE08E010F5D1F4F822E912CB12C04
:10133000A12CBF01A50194010E945410F901CA011A
:101340006A300CF5605DD8016E938D01232B242B40
:10135000252B79F790E080E0109721F0BD01C701BF
:101360000E946A09A1960FB6F894DEBF0FBECDBFEA
:10137000DF91CF911F910F91FF90EF90BF90AF90B1
:101380009F908F900895695CDECFCF92DF92EF92AD
:10139000FF920F931F93CF93DF93EC016A017B01C0
:1013A000E881F9810190F081E02D6DE219958C01C1
:1013B00044275527BA014C195D096E097F092AE0B7
:1013C000CE010E947909800F911FDF91CF911F916B
:1013D0000F91FF90EF90DF90CF900895CF93DF9320
:1013E000AC01990F660B770B77FF10C08CE893E088
:1013F0000E94C509EC016BE572E08CE893E00E9465
:101400006A098C0F9D1FDF91CF9108952AE08CE827
:1014100093E00E947909EECFAB01770F660B770B53
:1014200077FD0C94C5092AE00C9479094F925F92DC
:101430006F927F92BF92CF92DF92EF92FF920F93C3
:101440001F93CF93DF93FC01C081D181828193816F
:10145000C80FD91F84819581C80FD91F86819781B4
:10146000C80FD91F1C161D060CF096C08F01D12C79
:10147000C12CEE24E394F12CBB24B394F701E1508A
:10148000F048EE0FFF1FE00FF11F80819181C81619
:10149000D90674F18FEFE81AF80AD12CC12C25E097
:1014A000E216F10459F70E94AD0880E00E94560947
:1014B0006EE572E084EA94E00E946A0981E00E948D
:1014C00056096BE672E084EA94E00E946A0990E0B3
:1014D00080E0DF91CF911F910F91FF90EF90DF900F
:1014E000CF90BF907F906F905F904F900C94920739
:1014F000C7010E9492070E94AD0880E00E94560931
:101500006CE772E084EA94E00E946A09BE0184EA12
:1015100094E00E940C0A81E00E94560968E872E09B
:1015200084EA94E00E946A09B70184EA94E00E9488
:101530000C0A0E940704609337037093380380936A
:10154000390390933A030E94070440903703509068
:1015500038036090390370903A036419750986095D
:101560009709673E73408105910580F40E946F04DE
:1015700080933B03833429F4809100028B25809370
:101580000002809100028111DECFD3CF8FEFC81A05
:10159000D80A219708F083CFDF91CF911F910F9147
:1015A000FF90EF90DF90CF90BF907F906F905F9013
:1015B0004F90089585ED8093BC00809164039091D5
:1015C0006503A0916603B09167030796A11DB11D45
:1015D00023E0B695A795979587952A95D1F7209101
:1015E000BC0024FD03C0109262030895409164037F
:1015F000509165036091660370916703452B462BFC
:10160000472B69F30097A105B10541F025E32A9521
:10161000F1F700000197A109B109E1CF80916303BF
:101620000C94FC051F920F920FB60F9211240BB66B
:101630000F922F933F934F935F936F937F938F936B
:101640009F93AF93BF93EF93FF938CE893E00E9437
:101650001D02FF91EF91BF91AF919F918F917F916B
:101660006F915F914F913F912F910F900BBE0F9013
:101670000FBE0F901F9018951F920F920FB60F92EA
:1016800011240BB60F922F938F939F93EF93FF9399
:10169000E0919C03F0919D038081E091A203F09181
:1016A000A30382FD1DC090818091A5038F5F8F737E
:1016B0002091A603821741F0E091A503F0E0E457E2
:1016C000FC4F958F8093A503FF91EF919F918F9190
:1016D0002F910F900BBE0F900FBE0F901F9018957B
:1016E0008081F2CF1F920F920FB60F9211242F9389
:1016F0003F938F939F93AF93BF93809109039091F2
:101700000A03A0910B03B0910C033091080323E06E
:10171000230F2D3758F50196A11DB11D2093080305
:101720008093090390930A03A0930B03B0930C03D7
:1017300080910D0390910E03A0910F03B0911003BF
:101740000196A11DB11D80930D0390930E03A093EC
:101750000F03B0931003BF91AF919F918F913F9171
:101760002F910F900FBE0F901F90189526E8230F12
:101770000296A11DB11DD2CF1F920F920FB60F92EC
:1017800011240BB60F922F933F934F935F936F9358
:101790007F938F939F93AF93BF93EF93FF9380912A
:1017A000B900887F803609F44DC008F040C0883207
:1017B00009F4A9C028F5803109F49DC0C8F4882334
:1017C00009F4FBC0883009F496C0FF91EF91BF91F6
:1017D000AF919F918F917F916F915F914F913F91C9
:1017E0002F910F900BBE0F900FBE0F901F9018956A
:1017F000883109F488C0803241F78093600314C0B7
:10180000803409F49DC040F48033B9F38833E9F69D
:101810008093600385ECB0C0803509F485C08835BD
:1018200009F496C0883489F60E94DA0ACECF883946
:1018300009F48CC038F5883729F050F4883611F057
:10184000803719F683E0809362031092070357C034
:10185000883809F47BC0803919F0803809F0B5CF99
:1018600080910703803208F071C0E091070381E0A6
:101870008E0F809307038091BB00F0E0E951FD4F8C
:1018800080833DC0803B39F0E0F4803A09F479C0B0
:10189000883A09F09ACF84E0809362031092E602BE
:1018A0001092E502E0911303F091140319958091D1
:1018B000E50281110FC081E08093E5021092C5021C
:1018C00009C0803C09F4A6CF883C09F4A3CF883B2B
:1018D00009F07BCFE091E60281E08E0F8093E60273
:1018E000F0E0EB53FD4F80818093BB009091E602C6
:1018F0008091E50229C080913D038093BB0085EC77
:101900008093BC0062CF90915F0380915E03981733
:1019100058F5E0915F0381E08E0F80935F03F0E064
:10192000E25CFC4F8081E9CFE0915F0381E08E0FA4
:1019300080935F038091BB00F0E0E25CFC4F80830A
:1019400090915F0380915E039817C8F285E8D8CF25
:10195000E0915F0381E08E0F80935F038091BB0075
:10196000F0E0E25CFC4F80838091610381115CCFE9
:1019700081E080933C0384EA8093BC001092620370
:1019800024CF85EC8093BC00109262038091070302
:10199000803230F4E0910703F0E0E951FD4F10820E
:1019A0006091070370E0E0911103F091120387EE5C
:1019B00092E019951092070308CF1092600334CF7C
:1019C00010928F0310928E0388EE93E0A0E0B0E0B7
:1019D0008093900390939103A0939203B093930309
:1019E00025E232E030938D0320938C0325EC30E028
:1019F000309399032093980324EC30E030939B03B9
:101A000020939A0320EC30E030939D0320939C03B5
:101A100021EC30E030939F0320939E0322EC30E0D2
:101A20003093A1032093A00326EC30E03093A3036E
:101A30002093A2031092A5031092A6031092A7036D
:101A40001092A80310922C0410922B0480932D0462
:101A500090932E04A0932F04B093300487E392E078
:101A600090932A04809329041092A7041092A6044C
:101A700083E592E09093A5048093A40480E380938F
:101A8000A8048FEF8093A90481E38093AA0482E3E2
:101A90008093AB0483E38093AC0484E38093AD0430
:101AA00085E38093AE041092AF041092B0041092BC
:101AB000B1041092B2041092B30481E00E94B50800
:101AC0001092370410923B0410923A0410923C0496
:101AD00089E492E09093360480933504E1E5F4E0E4
:101AE0001082148213821582369684E0ED38F8074E
:101AF000B9F785E092E0909398048093970481E091
:101B000092E090939A048093990484E080939B04DC
:101B100080939C0489E092E09093960480939504CE
:101B20008AE090E090939E0480939D0484EF91E07E
:101B30009093A00480939F041092A3041092A20497
:101B400010929104109292041092930410929404B3
:101B50001092A1040895CF93DF9300D000D01F927C
:101B60001F92CDB7DEB7789484B5826084BD84B50A
:101B7000816084BD85B5826085BD85B5816085BD88
:101B800080916E00816080936E0010928100809140
:101B900081008260809381008091810081608093C8
:101BA0008100809180008160809380008091B100ED
:101BB00084608093B1008091B00081608093B00018
:101BC000809191008260809391008091910081606A
:101BD000809391008091900081608093900080912B
:101BE000A10082608093A1008091A1008160809318
:101BF000A1008091A00081608093A00080912101CC
:101C00008260809321018091210181608093210174
:101C10008091200181608093200180917A0084600E
:101C200080937A0080917A00826080937A0080911C
:101C30007A00816080937A0080917A008068809336
:101C40007A001092C10082E00E94B5080E94AD089F
:101C500010921603109215031092690310928B03D1
:101C60000E94DE0587EA91E09093140380931303AA
:101C700088EA91E09093120380931103E0919C0312
:101C8000F0919D0382E08083E0919803F0919903A5
:101C90001082E0919A03F0919B038FEC8083109265
:101CA000A403E091A003F091A10386E08083E0917A
:101CB0009E03F0919F03808180618083E0919E0369
:101CC000F0919F03808188608083E0919E03F09172
:101CD0009F03808180688083E0919E03F0919F0341
:101CE00080818F7D808380E00E94560960E972E0E8
:101CF00084EA94E00E946A0990E5792E4E0129E079
:101D0000820E911C33243A9423E0622E35EE532E3A
:101D100045EC442E0E946F04182F80933B030E94D1
:101D200007046093370370933803809339039093CB
:101D30003A03112379F01F3281F488E0E9E1F2E0FF
:101D4000DE01119601900D928A95E1F7CE01019680
:101D50000E94160A0E94AC02DDCF1A3209F0FBC0C5
:101D600081E08093680370928A0310926903109255
:101D70008B0390E080E00E948A0781E090E00E945F
:101D80008A070E941D060E94E2036B017C0180917C
:101D90006203811162C081E08093620380936103DA
:101DA0003092600310925F0360925E0380933D0364
:101DB00080913D03806A80933D0380913C03813094
:101DC00009F0A2C010923C030E94E2036B017C0167
:101DD00080913D038093BB008091640390916503E3
:101DE000A0916603B0916703892B8A2B8B2BA1F0FE
:101DF0000E94E20300916403109165032091660341
:101E0000309167036C197D098E099F090617170722
:101E10002807390708F442C08091BC0083FDD8CF61
:101E20004092BC000E94E2036B017C01809162033E
:101E3000813009F46CC080915F03843008F089C060
:101E400080915F03EEE3F3E0A7E1B3E090E0981741
:101E500051F121912D939F5FFACF8091640390916E
:101E60006503A0916603B0916703892B8A2B8B2BA6
:101E700009F48DCF0E94E203009164031091650381
:101E800020916603309167036C197D098E099F09C3
:101E9000061717072807390708F079CF80916303E1
:101EA0000E94FC0580E010921603809315038E01BA
:101EB0000F5F1F4F780189E294E00E941407F80138
:101EC000819391938F01E815F905A9F768E972E00C
:101ED0008CE893E00E946A096BE572E08CE893E07D
:101EE0000E946A0989819A810E94EE098B819C81F6
:101EF0000E94EE098D819E810E94EE098F81988556
:101F00000E94EE09C70124CF5092BC008BCF809174
:101F1000640390916503A0916603B0916703892BD8
:101F20008A2B8B2B09F482CF0E94E2030091640379
:101F30001091650320916603309167036C197D0948
:101F40008E099F09061717072807390708F06ECF73
:101F5000A5CF84E077CF1B3209F0FCCE8E010F5F56
:101F60001F4F5801EE24E394F12C0E94AD0880E04D
:101F70000E94560962EA72E084EA94E00E946A09CB
:101F8000B70184EA94E00E940C0A69EA72E084EAEC
:101F900094E00E946A0981E00E945609D12CC12C6C
:101FA0000E946F04282E80933B0380ED820D8A30BF
:101FB000A8F441E0622D84EA94E00E945408FAE01B
:101FC000FC9DC001FD9D900D1124C22C220CDD084A
:101FD00020E3C21AD108C80ED91EE2CF8DE3281221
:101FE000DFCFF501C192D1925F01FFEFEF1AFF0A37
:101FF00025E0E216F10409F0B8CF60EB72E08CE85E
:1020000093E00E946A096BE572E08CE893E00E941D
:102010006A0989819A810E94EE098B819C810E94C4
:10202000EE098D819E810E94EE098F8198850E9424
:10203000EE0981E08093680370928A03109269032D
:1020400010928B0390E080E00E948A0781E090E08C
:102050000E948A07780188E0E80EF11CF80181915E
:1020600091918F018F3F910519F014F08FEF90E05F
:102070000E948A070E151F0589F70E941D060E94FF
:10208000AD0880E00E9456096AEB72E084EA94E0B1
:102090000E946A0981E00E94560962E772E084EAC0
:1020A00094E00E946A0956CEA1E21A2EAA1BBB1B1D
:1020B000FD010DC0AA1FBB1FEE1FFF1FA217B30714
:1020C000E407F50720F0A21BB30BE40BF50B661F2A
:1020D000771F881F991F1A9469F7609570958095EE
:1020E00090959B01AC01BD01CF010895EE0FFF1F3C
:1020F000881F8BBF0790F691E02D1994F894FFCFBD
:10210000011A1B1C1D161718193738392F3435368C
:102110002A3132332D43303D2B02000200020002EF
:1021200000000000003F02A901D6018C020702E571
:1021300001F901000000005B072E078F0704072745
:10214000071407050700000000DE039E036D03006F
:102150000000006409A9018F07B6050D0A00546943
:102160006D65204C6566743A203000506861736577
:102170003A20436F6D706C657465640054696D65D9
:10218000204C6566743A200050686173653A2000FF
:1021900057656C636F6D650052656164696E673A7F
:1021A0002000506861736520002074696D653A00F5
:1021B00057726974696E673A200053657474696E6A
:0421C000673A00007A
:10E000000D9489F10D94B2F10D94B2F10D94B2F129
:10E010000D94B2F10D94B2F10D94B2F10D94B2F1F0
:10E020000D94B2F10D94B2F10D94B2F10D94B2F1E0
:10E030000D94B2F10D94B2F10D94B2F10D94B2F1D0
:10E040000D94B2F10D94B2F10D94B2F10D94B2F1C0
:10E050000D94B2F10D94B2F10D94B2F10D94B2F1B0
:10E060000D94B2F10D94B2F10D94B2F10D94B2F1A0
:10E070000D94B2F10D94B2F10D94B2F10D94B2F190
:10E080000D94B2F10D94B2F10D94B2F10D94B2F180
:10E090000D94B2F10D94B2F10D94B2F10D94B2F170
:10E0A0000D94B2F10D94B2F10D94B2F10D94B2F160
:10E0B0000D94B2F10D94B2F10D94B2F10D94B2F150
:10E0C0000D94B2F10D94B2F10D94B2F10D94B2F140
:10E0D0000D94B2F10D94B2F10D94B2F10D94B2F130
:10E0E0000D94B2F141546D656761323536300041AF
:10E0F000726475696E6F206578706C6F72657220DE
:10E1000073746B3530305632206279204D4C530099
:10E11000426F6F746C6F616465723E004875683F52
:10E1200000436F6D70696C6564206F6E203D200048
:10E130004350552054797065202020203D20005FF9
:10E140005F4156525F415243485F5F3D2000415658
:10E1500052204C696243205665723D20004743437C
:10E160002056657273696F6E203D20004350552024
:10E1700049442020202020203D20004C6F7720663D
:10E18000757365202020203D20004869676820665F
:10E190007573652020203D200045787420667573D6
:10E1A00065202020203D20004C6F636B2066757336
:10E1B000652020203D20004D617220203720323024
:10E1C000313300312E362E3800342E332E350056A2
:10E1D00023202020414444522020206F7020636F70
:10E1E00064652020202020696E73747275637469E1
:10E1F0006F6E2061646472202020496E74657272B3
:10E20000757074006E6F20766563746F7200726A49
:10E210006D702020006A6D70200057686174207056
:10E220006F72743A00506F7274206E6F7420737541
:10E2300070706F72746564004D7573742062652030
:10E2400061206C6574746572002000577269747483
:10E25000696E672045450052656164696E672045B7
:10E26000450045452065727220636E743D00504F35
:10E27000525400303D5A65726F2061646472003FF1
:10E280003D43505520737461747300403D454550C3
:10E29000524F4D207465737400423D426C696E6B41
:10E2A000204C454400453D44756D70204545505215
:10E2B0004F4D00463D44756D7020464C415348001B
:10E2C000483D48656C70004C3D4C69737420492F83
:10E2D0004F20506F72747300513D51756974005234
:10E2E0003D44756D702052414D00563D73686F7707
:10E2F00020696E7465727275707420566563746FF0
:10E30000727300593D506F727420626C696E6B00BD
:10E310002A0011241FBECFEFD1E2DEBFCDBF01E046
:10E320000CBF12E0A0E0B2E0EEE1FDEF03E00BBFB6
:10E3300002C007900D92A030B107D9F712E0A0E01B
:10E34000B2E001C01D92AE30B107E1F70F9460F367
:10E350000D948DFE01E20EBF0FEF0DBF11241FBE05
:10E360000D9460F30D9400F020E030E040ED57E0B4
:10E3700005C0FA013197F1F72F5F3F4F2817390792
:10E38000C0F308959C01260F311DC901A0E0B0E043
:10E390002F5F3F4FABBFFC018791882361F08093D3
:10E3A000C6008091C00086FFFCCF8091C0008064D1
:10E3B0008093C000EACF08958DE08093C6008091DD
:10E3C000C00086FFFCCF8091C00080648093C000B5
:10E3D0008AE08093C6008091C00086FFFCCF8091C8
:10E3E000C00080648093C00008950F94C2F10F9420
:10E3F000DCF10895FC019081992359F09093C600B7
:10E400008091C00086FFFCCF8091C0008064809323
:10E41000C0003196992379F70895282F982F929567
:10E420009F70892F805D8A3308F0895F8093C600D2
:10E430008091C00086FFFCCF8091C00080648093F3
:10E44000C000822F8F70982F905D9A3308F0995FEB
:10E450009093C6008091C00086FFFCCF8091C000E1
:10E4600080648093C00008959C01FB01853691056E
:10E470001CF46330710594F0C90164E670E00F94F8
:10E480002EFE605D7F4F6093C6008091C00086FFC6
:10E49000FCCF8091C00080648093C0002B30310598
:10E4A00014F43297B4F0C90164E670E00F942EFEC4
:10E4B0006AE070E00F942EFE605D7F4F6093C600AF
:10E4C0008091C00086FFFCCF8091C0008064809363
:10E4D000C000C9016AE070E00F942EFEC0968093E0
:10E4E000C6008091C00086FFFCCF8091C000806490
:10E4F0008093C00008951F93182F8EE692EE60E07F
:10E500000F94C2F11093C6008091C00086FFFCCF2B
:10E510008091C00080648093C0000F94DCF11F9153
:10E5200008952F923F924F925F926F927F928F92B7
:10E530009F92AF92BF92CF92DF92EF92FF920F9392
:10E540001F93DF93CF93CDB7DEB762970FB6F894E2
:10E55000DEBF0FBECDBF382E622ECA01DB015C01CB
:10E560006D01772420E2222E2E010894411C511CBB
:10E570008BC081E0A81680E0B80681E0C80680E084
:10E58000D80628F0C601AA27BB270F940DF2BB2797
:10E59000AD2D9C2D8B2D0F940DF28A2D0F940DF225
:10E5A0002092C6008091C00086FFFCCF8091C00001
:10E5B00080648093C0009DE29093C6008091C0006B
:10E5C00086FFFCCF8091C00080648093C0002092C1
:10E5D000C6008091C00086FFFCCF8091C00080649F
:10E5E0008093C00019828601750188249924A1E0D6
:10E5F0003A1651F03A1620F0B2E03B1661F409C029
:10E600000BBFF701779007C0C7010F9477FE782EF4
:10E6100002C0F7017080872D0F940DF22092C60082
:10E620008091C00086FFFCCF8091C0008064809301
:10E63000C000872D8052F401EF70F0708F3520F408
:10E64000E40DF51D708204C0E40DF51D8EE280839B
:10E650000894E11CF11C011D111D0894811C911CE2
:10E6600090E18916910409F0C2CF80E190E0A0E02A
:10E67000B0E0A80EB91ECA1EDB1E198AC2010F9493
:10E68000FAF10F94DCF16A94662009F072CF629679
:10E690000FB6F894DEBF0FBECDBFCF91DF911F91B3
:10E6A0000F91FF90EF90DF90CF90BF90AF909F9031
:10E6B0008F907F906F905F904F903F902F90089534
:10E6C0002F923F924F925F926F927F928F929F9282
:10E6D000AF92BF92CF92DF92EF92FF920F931F9370
:10E6E000DF93CF93CDB7DEB7CD53D1400FB6F894BB
:10E6F000DEBF0FBECDBF01E20EBF0FEF0DBF94B75F
:10E70000F894A89514BE80916000886180936000A1
:10E7100010926000789493FF05C0E0910002F091A0
:10E7200001021995279A2F9A8091C00082608093E8
:10E73000C00080E18093C40088E18093C1000000A4
:10E74000EE24FF24870144E0A42EB12CCC24DD2448
:10E7500024C0C5010197F1F70894E11CF11C011DCB
:10E76000111D21E2E2162EE4F20620E0020720E06D
:10E77000120718F031E0C32ED12CC801B70127ECE5
:10E780003BE140E050E00F9441FE611571058105C9
:10E79000910519F485B1805885B98091C00087FD35
:10E7A00003C0C114D104A9F2A6014F5F5F4FC25E3E
:10E7B000DE4F59834883CE51D140C25EDE4F8881FF
:10E7C0009981CE51D140019711F00D9410FEC05D9A
:10E7D000DE4F19821882C053D14060E0C15DDE4F28
:10E7E0001882CF52D14088249924C35DDE4F19820C
:10E7F0001882CD52D140C05EDE4F188219821A8233
:10E800001B82C052D140CE5CDE4F188219821A8220
:10E810001B82C253D140EE24FF2487010BBFF701B6
:10E8200007911691C45CDE4F19830883CC53D14005
:10E830000D940BFEC25EDE4F28813981CE51D1404E
:10E840002130310509F52091C600C25EDE4F1982E4
:10E850001882CE51D14022C02F5F3F4F4F4F5F4FA4
:10E86000213082E138078AE7480780E0580780F0C6
:10E87000C45CDE4FE881F981CC53D140EF5FFF4F9C
:10E8800019F0EE27FF27099420E030E040E050E047
:10E890008091C00087FFE0CF2091C600C35DDE4FAE
:10E8A00048815981CD52D1404F5F5F4FC35DDE4FEC
:10E8B00059834883CD52D140213209F063C64A3092
:10E8C000510508F05FC60894811C911C53E0851621
:10E8D000910409F059C600E010E018C081E280936D
:10E8E000C6008091C00086FFFCCF8091C00080648C
:10E8F0008093C0002F5F3F4F2931310579F70F9486
:10E90000DCF10F5F1F4F0530110519F020E030E0FA
:10E91000E5CF10920A0210920B0210920C02109294
:10E920000D02109206021092070210920802109235
:10E930000902109202021092030210920402109235
:10E9400005028FEE90EE60E00F94F5F180E191EE1C
:10E9500060E00F94C2F18091C00087FFFCCF9091DE
:10E96000C600903608F09F759032B8F09093C600BC
:10E970008091C00086FFFCCF8091C00080648093AE
:10E98000C000A0E2A093C6008091C00086FFFCCF2B
:10E990008091C00080648093C000983409F4D7C18E
:10E9A0009934B8F4923409F459C1933458F490333B
:10E9B00019F1903308F4E3C59F33A1F1903409F0C5
:10E9C000DEC5BDC0953409F470C1963409F0D7C5D1
:10E9D00098C1923509F42BC2933538F49C3409F46C
:10E9E000F5C1913509F0CBC518C2963509F445C279
:10E9F000993509F0C4C567C483E792EE62E00F94CD
:10EA0000F5F110920602109207021092080210927D
:10EA1000090210920A0210920B0210920C0210923C
:10EA20000D0213C18FE792EE62E00F94F5F18FEEC5
:10EA300090EE60E00F94F5F181E291EE60E00F94CA
:10EA4000C2F187EB91EE60E00F94F5F180E391EE77
:10EA500060E00F94C2F184EE90EE60E00F94F5F167
:10EA60008FE391EE60E00F94C2F186E090E061E008
:10EA700070E00F9434F20F94DCF18DE591EE60E0DC
:10EA80000F94C2F189EC91EE60E00F94F5F18EE401
:10EA900091EE60E00F94C2F183EC91EE60E00F9490
:10EAA000F5F18CE691EE60E00F94C2F18EE10F94E7
:10EAB0000DF288E90F940DF281E00F940DF20F949E
:10EAC000DCF18BE791EE60E00F94C2F119E0E0E039
:10EAD000F0E010935700E4918E2F0F940DF20F94F5
:10EAE000DCF18AE891EE60E00F94C2F1E3E0F0E03F
:10EAF00010935700E4918E2F0F940DF20F94DCF1D8
:10EB000089E991EE60E00F94C2F1E2E0F0E0109349
:10EB10005700E4918E2F0F940DF20F94DCF188EAE8
:10EB200091EE60E00F94C2F1E1E0F0E01093570045
:10EB30001491812F0F940DF20F94DCF107CF8BE825
:10EB400092EE62E00F94F5F18BE492EE60E00F94A8
:10EB5000F5F10F94DCF100E010E019C0C8016F2D51
:10EB60000F947FFEFF2031F489E492EE60E00F9471
:10EB7000C2F10BC0F092C6008091C00086FFFCCFAE
:10EB80008091C00080648093C0000F5F1F4FC80158
:10EB900081519F41A0E0B0E0ABBFFC01F790BAE229
:10EBA000FB1621F0E2E000301E07C1F60F94DCF105
:10EBB0000F94DCF187E592EE60E00F94F5F10F948D
:10EBC000DCF1CC24DD2400E010E01EC0C8010F946D
:10EBD00077FEF82E882331F489E492EE60E00F94FA
:10EBE000C2F10BC08093C6008091C00086FFFCCFAD
:10EBF0008091C00080648093C000FE1419F00894D6
:10EC0000C11CD11C0F5F1F4FC80181519F41A0E063
:10EC1000B0E0ABBFFC01E790FAE2EF1621F022E092
:10EC20000030120799F60F94DCF10F94DCF182E6C4
:10EC300092EE60E00F94C2F1C60161E070E00F94C3
:10EC400034F20F94DCF10F94DCF110920202109276
:10EC50000302109204021092050278CE89E992EE26
:10EC600062E00F94F5F1279A2F9A16C02F9880E052
:10EC700090E0E0EDF7E03197F1F7019684369105E9
:10EC8000C1F72F9A80E090E0E0EDF7E03197F1F7DF
:10EC9000019684369105C1F78091C00087FFE6CFC9
:10ECA0008091C00087FFFCCF64C485EA92EE62E0E9
:10ECB0000F94F5F140910202509103026091040219
:10ECC0007091050281E020E10F9491F2809102029F
:10ECD00090910302A0910402B091050280509F4FD1
:10ECE000AF4FBF4F8093020290930302A0930402A0
:10ECF000B093050280509041A040B04008F426CE69
:10ED0000A4CF83EB92EE62E00F94F5F140910602FE
:10ED100050910702609108027091090280E020E1A1
:10ED20000F9491F28091060290910702A09108023F
:10ED3000B091090280509F4FAF4FBF4F80930602A2
:10ED400090930702A0930802B0930902FFCD80ECD4
:10ED500092EE62E00F94F5F183E792EE60E00F949B
:10ED6000F5F18FE792EE60E00F94F5F18BE892EE0B
:10ED700060E00F94F5F189E992EE60E00F94F5F10F
:10ED800085EA92EE60E00F94F5F183EB92EE60E09D
:10ED90000F94F5F180EC92EE60E00F94F5F187ECC2
:10EDA00092EE60E00F94F5F188ED92EE60E00F9442
:10EDB000F5F18FED92EE60E00F94F5F18AEE92EEB0
:10EDC00060E00F94F5F183E093EEBDCD87EC92EE19
:10EDD00062E00F94F5F181E40F947BF282E40F94EA
:10EDE0007BF283E40F947BF284E40F947BF285E45E
:10EDF0000F947BF286E40F947BF287E40F947BF20E
:10EE000088E40F947BF28AE40F947BF28BE40F94F6
:10EE10007BF28CE40F947BF299CD88ED92EE62E068
:10EE20000F94F5F1772473948824992409C48FED05
:10EE300092EE62E00F94F5F140910A0250910B02BC
:10EE400060910C0270910D0282E020E10F9491F22A
:10EE500080910A0290910B02A0910C02B0910D02D8
:10EE600080509F4FAF4FBF4F80930A0290930B0289
:10EE7000A0930C02B0930D0269CD8AEE92EE62E08F
:10EE80000F94F5F184EE90EE60E00F94F5F18FECC5
:10EE900091EE60E00F94F5F1662477244301CC5D98
:10EEA000DE4F19821882C452D140D401C301B695F5
:10EEB000A79597958795CA5DDE4F88839983AA8326
:10EEC000BB83C652D140CC5DDE4FA881B981C4520C
:10EED000D1401196CC5DDE4FB983A883C452D14096
:10EEE000CD0162E070E00F9434F2B0E2B093C6005E
:10EEF0008091C00086FFFCCF8091C0008064809329
:10EF0000C000EDE2E093C6008091C00086FFFCCF18
:10EF10008091C00080648093C000F0E2F093C6004E
:10EF20008091C00086FFFCCF8091C00080648093F8
:10EF3000C000CA5DDE4FE880F9800A811B81C6529D
:10EF4000D140BB27A12F902F8F2D0F940DF2CA5DBA
:10EF5000DE4F8881C652D1400F940DF2B0E2FB2EF5
:10EF6000F092C6008091C00086FFFCCF8091C00067
:10EF700080648093C0000DE30093C6008091C000C0
:10EF800086FFFCCF8091C00080648093C00010E2B7
:10EF90001093C6008091C00086FFFCCF8091C00016
:10EFA00080648093C0008BBEF3012791C65DDE4F65
:10EFB0002883CA52D140A22EBB24CC24DD2408943D
:10EFC000611C711C811C911C8BBEF3018791282E42
:10EFD0003324442455240894611C711C811C911C09
:10EFE0008BBEF3013791C55DDE4F3883CB52D140E4
:10EFF0000894611C711C811C911C8BBEF30147910C
:10F00000C45DDE4F4883CC52D140ADEFEA2EAFEF66
:10F01000FA2EAFEF0A2FAFEF1A2F6E0C7F1C801E57
:10F02000911E142D032DF22CEE24EA0CFB1C0C1D5A
:10F030001D1D0F940DF220E22093C6008091C000A8
:10F0400086FFFCCF8091C00080648093C000C65DC5
:10F05000DE4F8881CA52D1400F940DF230E23093D6
:10F06000C6008091C00086FFFCCF8091C000806404
:10F070008093C000C45DDE4F8881CC52D1400F9494
:10F080000DF240E24093C6008091C00086FFFCCFA5
:10F090008091C00080648093C000C55DDE4F888190
:10F0A000CB52D1400F940DF250E25093C6008091A4
:10F0B000C00086FFFCCF8091C00080648093C000B8
:10F0C0008FEFE8168FEFF80680E0080780E018075A
:10F0D00031F484E092EE60E00F94C2F1DFC0D80119
:10F0E000C7018070907CA070B0708050904CA040A0
:10F0F000B040D1F52FEF3FE340E050E0E222F322B1
:10F1000004231523CA5DDE4FA880B980CA80DB8046
:10F11000C652D140AE0CBF1CC01ED11EAA0CBB1CD7
:10F12000CC1CDD1C8EE092EE60E00F94C2F1BB2798
:10F13000A12F902F8F2D0F940DF28E2D0F940DF285
:10F1400030E23093C6008091C00086FFFCCF8091F2
:10F15000C00080648093C0004EE34093C60080915D
:10F16000C00086FFFCCF87C08EE09EEFA0E0B0E03D
:10F17000E822F9220A231B239CE0E91694E9F90608
:10F1800090E0090790E0190709F088C0C45DDE4FE0
:10F19000A881CC52D140EA2EFF2400E010E0102FCD
:10F1A0000F2DFE2CEE24C55DDE4FB881CB52D14031
:10F1B000EB0EF11C011D111DD601C501817090706F
:10F1C000A070B070DC0199278827E80EF91E0A1F8D
:10F1D0001B1F20EF30E040E050E0A222B322C42207
:10F1E000D52241E1AA0CBB1CCC1CDD1C4A95D1F7F1
:10F1F000EA0CFB1C0C1D1D1D81E090E0A0E0B0E0BE
:10F20000282239224A225B2235E1220C331C441C7D
:10F21000551C3A95D1F7E20CF31C041D151D57013E
:10F220006801AA0CBB1CCC1CDD1C85E192EE60E0E1
:10F230000F94C2F1C801AA27BB270F940DF2BB2778
:10F24000A12F902F8F2D0F940DF28E2D0F940DF274
:10F2500090E29093C6008091C00086FFFCCF809121
:10F26000C00080648093C000AEE3A093C60080918C
:10F27000C00086FFFCCF8091C00080648093C000F6
:10F28000C601AA27BB270F940DF2BB27AD2D9C2DDD
:10F290008B2D0F940DF28A2D0F940DF20F94DCF14B
:10F2A000CC5DDE4FE881F981C452D140F99709F471
:10F2B0004DCBF4E0EF2EF12C012D112D6E0C7F1CA7
:10F2C000801E911EF2CD83E093EE62E00F94F5F183
:10F2D0008AE192EE60E00F94C2F18091C00087FF56
:10F2E000FCCF1091C6001F751093C6008091C0001E
:10F2F00086FFFCCF8091C00080648093C0000F9493
:10F30000DCF1812F81548A3108F036C1163409F4BA
:10F3100095C0173490F4133409F44EC0143430F40B
:10F320001134F1F0123409F01DC130C0143409F465
:10F3300059C0153409F016C16BC01A3409F4C4C0A1
:10F340001B3438F4173409F48FC0183409F00AC19B
:10F35000A1C01B3409F4D2C01C3409F003C1E8C0B9
:10F360008FEF81B90DC082B1809582B980E090E0C5
:10F37000E0EDF7E03197F1F70196883C9105C1F790
:10F380008091C00087FFEFCF12B8EFC08FEF84B934
:10F390000DC085B1809585B980E090E0E0EDF7E0A3
:10F3A0003197F1F70196883C9105C1F78091C00033
:10F3B00087FFEFCF15B8D9C08FEF87B90DC088B1DF
:10F3C000809588B980E090E0E0EDF7E03197F1F7C3
:10F3D0000196883C9105C1F78091C00087FFEFCF6F
:10F3E00018B8C3C08FEF8AB90DC08BB180958BB9A7
:10F3F00080E090E0E0EDF7E03197F1F70196883C8E
:10F400009105C1F78091C00087FFEFCF1BB8ADC059
:10F410008FEF8DB90DC08EB180958EB980E090E0F0
:10F42000E0EDF7E03197F1F70196883C9105C1F7DF
:10F430008091C00087FFEFCF1EB897C08FEF80BBD1
:10F440000DC081B3809581BB80E090E0E0EDF7E0F6
:10F450003197F1F70196883C9105C1F78091C00082
:10F4600087FFEFCF11BA81C08FEF83BB0DC084B38C
:10F47000809584BB80E090E0E0EDF7E03197F1F714
:10F480000196883C9105C1F78091C00087FFEFCFBE
:10F4900014BA6BC08FEF809301010FC080910201FD
:10F4A00080958093020180E090E0E0EDF7E03197F5
:10F4B000F1F70196883C9105C1F78091C00087FF64
:10F4C000EDCF1092020151C08FEF809304010FC065
:10F4D0008091050180958093050180E090E0E0ED4A
:10F4E000F7E03197F1F70196883C9105C1F78091DB
:10F4F000C00087FFEDCF1092050137C08FEF8093DA
:10F5000007010FC08091080180958093080180E079
:10F5100090E0E0EDF7E03197F1F70196883C910536
:10F52000C1F78091C00087FFEDCF109208011DC088
:10F530008FEF80930A010FC080910B01809580931B
:10F540000B0180E090E0E0EDF7E03197F1F70196F4
:10F55000883C9105C1F78091C00087FFEDCF1092E4
:10F560000B0103C085E292EEEEC98091C00087FFD7
:10F57000FCCF8091C600EAC988E392EEE4C98CE131
:10F5800091EEE1C988249924933011F1943028F444
:10F59000913089F09230B8F408C0953061F195301F
:10F5A000F0F0963009F048C043C02B3109F042C951
:10F5B00091E06BE13FC96227C15DDE4F2883CF52E6
:10F5C000D14092E037C9B22FA0E0622793E032C960
:10F5D000822F90E0A82BB92B622794E02BC92E3004
:10F5E00009F039C3622795E0C05DDE4F19821882A9
:10F5F000C053D1401FC9E1E0F0E0EC0FFD1FC05D3A
:10F60000DE4F08811981C053D140E00FF11F2083E4
:10F610000F5F1F4FC05DDE4F19830883C053D14079
:10F6200062270A171B0709F005C9D80196E002C92D
:10F63000261709F010C303C0973009F0FBC87724E0
:10F640009981933109F412C19431C8F4963009F4C8
:10F65000D8C0973050F4923009F406C1933009F4C1
:10F660006DC0913009F059C253C0913109F477C08F
:10F67000923108F0BBC0903109F04FC2F5C098310B
:10F6800009F487C0993150F4953109F4EFC09531F0
:10F6900008F4C6C1963109F040C2C2C19A3109F4DA
:10F6A0006CC09A3108F491C09B3109F45BC09D3164
:10F6B00009F033C29D81903359F48F81882311F46E
:10F6C0009EE11CC0813011F091E018C098E916C08D
:10F6D000892F807591F0903539F4E0E0F0E089E011
:10F6E0008093570094910AC0983539F4E3E0F0E034
:10F6F00089E080935700949101C090E01A821B82A8
:10F700008D818C831D829E831F8227E030E009C299
:10F710001A8288E08B8381E48C8386E58D8382E581
:10F720008E8389E48F8383E5888780E589878FE5E9
:10F730008A8782E38B872BE030E0F3C18A818139AD
:10F7400041F0823941F0803911F48FE005C080E04A
:10F7500003C082E001C08AE01A828B8344C0772410
:10F76000739482C08D81882311F48EE12CC0813086
:10F7700011F081E028C088E926C01A82E1E0F0E0BB
:10F7800089E08093570084918B831C8224E030E0D1
:10F79000C8C18B81803589F48C81883039F4E2E0EE
:10F7A000F0E089E08093570084910DC0E0E0F0E044
:10F7B00089E080935700849106C0E3E0F0E089E09F
:10F7C0008093570084911A82DFCF8D81836C99E0FA
:10F7D000E1E0F0E0082E90935700E89507B600FCB2
:10F7E000FDCF1A821B8223E030E09BC180EC8A832C
:10F7F000CE5CDE4F188219821A821B82C253D1401E
:10F800008EC18A8190E0A0E0B0E0582F44273327D2
:10F8100022278B8190E0A0E0B0E0DC0199278827C7
:10F82000282B392B4A2B5B2B8D8190E0A0E0B0E098
:10F83000282B392B4A2B5B2B8C8190E0A0E0B0E089
:10F84000BA2FA92F982F8827282B392B4A2B5B2BCF
:10F85000220F331F441F551FC05EDE4F288339839C
:10F860004A835B83C052D1401A8259C13A81C95C34
:10F87000DE4F3883C753D140CA5CDE4F1882C6536F
:10F88000D1408B81C82EDD24CA5CDE4F488159816E
:10F89000C653D140C42AD52A933109F082C0CE5C28
:10F8A000DE4F88819981AA81BB81C253D1408050AB
:10F8B000904CA340B04030F583E0CE5CDE4FE88052
:10F8C000F9800A811B81C253D140F70100935B008C
:10F8D00080935700E89507B600FCFDCFCE5CDE4F65
:10F8E000088119812A813B81C253D14000501F4FAA
:10F8F0002F4F3F4FCE5CDE4F088319832A833B8313
:10F90000C253D140C05EDE4F488159816A817B81FC
:10F91000C052D140DE011B9631E08C9111962C91A2
:10F9200011971296C75CDE4F2883C953D140C85C3B
:10F93000DE4F1882C853D14090E0C85CDE4FE881AA
:10F94000F981C853D1408E2B9F2B0C01FA01609393
:10F950005B0030935700E89511244E5F5F4F6F4F67
:10F960007F4F0EEFE02E0FEFF02ECE0CDF1CC114F8
:10F97000D10499F685E0C05EDE4F088119812A81A5
:10F980003B81C052D140F80120935B008093570027
:10F99000E89507B600FCFDCF81E180935700E8951C
:10F9A00035C0C05EDE4F88819981AA81BB81C0527B
:10F9B000D140B695A795979587957C018601ABE0D8
:10F9C000AA2EB12CAC0EBD1E0BC0D5016D915D01F0
:10F9D000C7010F947FFE0894E11CF11C01501040F8
:10F9E0000115110591F7A60160E070E0440F551F65
:10F9F000661F771FC05EDE4FE880F9800A811B8199
:10FA0000C052D1404E0D5F1D601F711F1A82C05E33
:10FA1000DE4F488359836A837B83C052D1407FC0C5
:10FA2000FA80C55CDE4FF882CB53D140C65CDE4F16
:10FA30001882CA53D1408B81C82EDD24C65CDE4FAC
:10FA400008811981CA53D140C02AD12A1A828981DA
:10FA5000BE016D5F7F4F843121F59601C05EDE4FA0
:10FA6000E880F9800A811B81C052D1400BBFF701A9
:10FA700087919691DB018C9311969C936E5F7F4FDB
:10FA8000D801C7010296A11DB11DC05EDE4F88835B
:10FA90009983AA83BB83C052D14022503040F1F6F3
:10FAA00036C0C05EDE4F288139814A815B81C052F9
:10FAB000D1400894C108D108760100E010E0089414
:10FAC000C11CD11C0894E11CF11C011D111DE20E8A
:10FAD000F31E041F151F21BDBB27A52F942F832FB5
:10FAE00082BD2F5F3F4F4F4F5F4FF89A80B5DB01CC
:10FAF0008D93BD012E153F054007510761F7C05E8C
:10FB0000DE4F288339834A835B83C052D1409601FC
:10FB10002D5F3F4FFB01108204C080EC8A8322E0FE
:10FB200030E08BE18093C6008091C00086FFFCCF5F
:10FB30008091C00080648093C000C15DDE4FF88179
:10FB4000CF52D140F093C6008091C00086FFFCCF19
:10FB50008091C00080648093C000432F3093C60022
:10FB60008091C00086FFFCCF8091C00080648093AC
:10FB7000C000922F2093C6008091C00086FFFCCF6A
:10FB80008091C00080648093C0008EE08093C600A6
:10FB90008091C00086FFFCCF8091C000806480937C
:10FBA000C00065E1C15DDE4FE880CF52D1406E25D7
:10FBB00069276427FE01319610C090819093C6009A
:10FBC0008091C00086FFFCCF31968091C000806498
:10FBD0008093C0006927215030402115310569F715
:10FBE0006093C6008091C00086FFFCCF8091C0006A
:10FBF00080648093C00085B1805885B9772081F4F6
:10FC0000C15DDE4F0881CF52D1400F5FC15DDE4F35
:10FC10000883CF52D14090E0A0E0B0E00D941AF4F8
:10FC200027982F9880E090E020ED37E0F901319798
:10FC3000F1F7019684369105C9F700008091C00064
:10FC40008D7F8093C00081E180935700E895EE2777
:10FC5000FF270994FFCF90E00D941AF497FB092E2B
:10FC600007260AD077FD04D02ED006D000201AF443
:10FC7000709561957F4F0895F6F7909581959F4F08
:10FC80000895A1E21A2EAA1BBB1BFD010DC0AA1FDD
:10FC9000BB1FEE1FFF1FA217B307E407F50720F0F5
:10FCA000A21BB30BE40BF50B661F771F881F991F70
:10FCB0001A9469F760957095809590959B01AC01B9
:10FCC000BD01CF010895AA1BBB1B51E107C0AA1FAC
:10FCD000BB1FA617B70710F0A61BB70B881F991FED
:10FCE0005A95A9F780959095BC01CD010895F99991
:10FCF000FECF92BD81BDF89A992780B50895262F31
:10FD0000F999FECF1FBA92BD81BD20BD0FB6F89400
:0EFD1000FA9AF99A0FBE01960895F894FFCF63
:00000001FF
