:100000000C9451010C9482010C9482010C94820195
:100010000C9482010C9482010C9482010C94820154
:100020000C9482010C9482010C9482010C94820144
:100030000C9482010C9482010C9482010C94820134
:100040000C9482010C9482010C9482010C94820124
:100050000C9482010C9482010C9482010C94720B1A
:100060000C9482010C943C0B0C94120B0C948201A6
:100070000C9482010C9482010C9482010C948201F4
:100080000C9482010C9482010C9482010C948201E4
:100090000C9482010C9482010C9482010C94BC0B90
:1000A0000C9482010C9482010C9482010C948201C4
:1000B0000C9482010C9482010C9482010C948201B4
:1000C0000C9482010C9482010C9482010C948201A4
:1000D0000C9482010C9482010C9482010C94820194
:1000E0000C9482010C9416030C94A7010C94320317
:1000F0000C9464090C9409030C942E030C942707A8
:100100000C940D030C94A9010C94DE030C940407C9
:100110000C9410030C94B6050C948C020C94FB0206
:100120000C94F9010C942E070C943F020C94E00CF3
:100130000C943C030C9420030C9405030C941407BA
:100140000C948F070C946D030C9424030C945B07A0
:100150000C9405070C9401030C941A030C944003AF
:100160000C9407020C94E5010C94A8010C9436033E
:100170000C943B030C94D6010C949E030C9428031E
:1001800000002100240027002A002D003000330049
:1001900001010000040107010A01000022002500FE
:1001A00028002B002E003100340002010000050160
:1001B00008010B01000020002300260029002C006C
:1001C0002F003200000100000301060109010505AE
:1001D0000505070508080808020202020A0A0808BD
:1001E00004040404010101010101010103030303EB
:1001F00003030303040707070C0C0C0C0C0C0C0C7A
:100200000202020206060606060606060B0B0B0B8A
:100210000B0B0B0B010210202008081020401020AF
:1002200040800201020108040201010204081020BA
:1002300040808040201008040201800402018040B8
:100240002010080402010804020101020408102021
:100250004080010204081020408000000A0B0209BF
:100260000C0D0E0807030401000000000000000050
:10027000000000000000000000000000000000007E
:10028000000000000000121110000000000000003B
:10029000000000000000000000000000000000005E
:1002A000E00C11241FBECFEFD1E2DEBFCDBF00E0D6
:1002B0000CBF12E0A0E0B2E0E0E0F1E200E00BBF32
:1002C00002C007900D92A43CB107D9F724E0A4EC3A
:1002D000B2E001C01D92AC3BB207E1F711E0C1E50D
:1002E000D1E000E006C021970109802FFE010E94A5
:1002F0007610C035D10780E00807A9F70E94AB0D42
:100300000C947E100C94000096E0899FD00111247B
:10031000AB5CBB4F90967C936E935F9791E0919608
:100320009C939197E091A204F091A3049091A10471
:10033000992339F0309751F0811108C08091510410
:100340001994309719F05C968C91FACF089508951E
:100350000895AF92BF92CF92DF92EF92FF920F93E8
:100360001F93CF93DF936C017B018B01040F151F4B
:10037000EB015E01AE18BF08C017D10759F06991B3
:10038000D601ED91FC910190F081E02DC601199507
:10039000892B79F7C501DF91CF911F910F91FF90C4
:1003A000EF90DF90CF90BF90AF900895FC01538DF8
:1003B000448D252F30E0842F90E0821B930B54173F
:1003C00010F0CF96089501970895FC01918D828DCC
:1003D000981761F0A28DAE0FBF2FB11D5D968C9165
:1003E000928D9F5F9F73928F90E008958FEF9FEFA4
:1003F0000895FC01918D828D981731F0828DE80F60
:10040000F11D858D90E008958FEF9FEF0895FC0119
:10041000918D228D892F90E0805C9F4F821B9109E6
:100420008F73992708958CE893E00E94070221E0DA
:10043000892B09F420E0822F0895FC01A48DA80FD8
:10044000B92FB11DA35ABF4F2C91848D90E0019616
:100450008F739927848FA689B7892C93A089B18936
:100460008C91837080648C93938D848D981306C0D7
:100470000288F389E02D80818F7D80830895EF923B
:10048000FF920F931F93CF93DF93EC0181E0888F4E
:100490009B8D8C8D98131AC0E889F989808185FF1E
:1004A00015C09FB7F894EE89FF896083E889F989C0
:1004B00080818370806480839FBF81E090E0DF91C2
:1004C000CF911F910F91FF90EF900895F62E0B8D15
:1004D00010E00F5F1F4F0F731127E02E8C8D8E11D0
:1004E0000CC00FB607FCFACFE889F989808185FF37
:1004F000F5CFCE010E941D02F1CFEB8DEC0FFD2F49
:10050000F11DE35AFF4FF0829FB7F8940B8FEA89F1
:10051000FB8980818062CFCFCF93DF93EC01888D00
:100520008823B9F0AA89BB89E889F9898C9185FD6E
:1005300003C0808186FD0DC00FB607FCF7CF8C91FC
:1005400085FFF2CF808185FFEDCFCE010E941D0295
:10055000E9CFDF91CF91089580E090E0892B29F0D9
:100560000E94130281110E94000080E090E0892B1C
:1005700049F080E090E0892B29F00E940000811171
:100580000E94000080E090E0892B49F080E090E03C
:10059000892B29F00E94000081110E94000080E058
:1005A00090E0892B49F080E090E0892B29F00E94AF
:1005B000000081110C94000008958150823108F0F0
:1005C0005AC0E82FF0E08827E751FD4F8F4F0C9479
:1005D000761009030D03FB02010305033B0310031F
:1005E00016031A032003240328032E0332033B03BC
:1005F00036033C034003809180008F778093800016
:100600000895809180008F7DF9CF80918000877F51
:10061000F5CF84B58F7784BD089584B58F7DFBCFEA
:100620008091B0008F778093B00008958091B000E2
:100630008F7DF9CF809190008F77809390000895FF
:10064000809190008F7DF9CF80919000877FF5CFCA
:100650008091A0008F778093A00008958091A000E2
:100660008F7DF9CF8091A000877FF5CF8091200109
:100670008F77809320010895809120018F7DF9CF9D
:1006800080912001877FF5CFCF93DF93282F30E033
:10069000F901E65AFD4F8491F901EC5EFD4FD491CA
:1006A000F901E253FE4FC491CC23A1F081110E94C5
:1006B000DD02EC2FF0E0EE0FFF1FEC54FE4FA59192
:1006C000B491EC91ED2381E090E009F480E0DF91BA
:1006D000CF91089580E090E0FACF862F0C944403E8
:1006E0001F93CF93DF93282F30E0F901E65AFD4F97
:1006F0008491F901EC5EFD4FD491F901E253FE4F74
:10070000C491CC23A9F0162F81110E94DD02EC2F99
:10071000F0E0EE0FFF1FE656FE4FA591B4918FB7A4
:10072000F894EC91111108C0D095DE23DC938FBFB3
:10073000DF91CF911F910895DE2BF8CF862F642F84
:100740000C947003CF93DF9390E0FC01EC5EFD4FBF
:10075000249182539E4FFC0184918823C9F090E03C
:10076000880F991FFC01E058FE4FA591B491FC0140
:10077000E656FE4FC591D49161110DC09FB7F89414
:100780008C91209582238C938881282328839FBF76
:10079000DF91CF910895623051F49FB7F8943C9166
:1007A000822F809583238C93E8812E2BEFCF8FB7F8
:1007B000F894EC912E2B2C938FBFEACF862F642FC9
:1007C0000C94A2033FB7F89480910D0390910E030F
:1007D000A0910F03B091100326B5A89B05C02F3F31
:1007E00019F00196A11DB11D3FBFBA2FA92F982F57
:1007F0008827BC01CD01620F711D811D911D42E052
:10080000660F771F881F991F4A95D1F708952FB754
:10081000F8946091090370910A0380910B03909101
:100820000C032FBF08950F931F93CF93DF93C82F0F
:10083000D62F86E0C89FF0011124EB5CFB4F11A27C
:10084000878D90A181309105F1F058F082309105AB
:10085000F1F1039709F440C0DF91CF911F910F91FF
:1008600008956623C9F361E070E08C2F0E94840133
:100870000E94070460938D0470938E0480938F040C
:1008800090939004E9CF0E94070400918D04109189
:100890008E0420918F0430919004AB01BC01401B69
:1008A000510B620B730B80919F049091A004B0E0F8
:1008B000A0E084179507A607B70748F462E070E048
:1008C0008C2FDF91CF911F910F910C94840163E0E5
:1008D00070E0D111C1CFF4CF70E060E0F1CF6F9242
:1008E0007F928F929F92AF92BF92CF92DF92EF92C0
:1008F000FF920F931F93CF93DF9381E08093A10426
:100900000E94070400919104109192042091930495
:1009100030919404AB01BC01401B510B620B730B73
:1009200080919D0490919E04B0E0A0E0841795070B
:10093000A607B70708F014C1C0E080919B04C81750
:1009400060F4E0919704F0919804EC0FF11D62E0DF
:1009500080810E94A203CF5FF0CF712C812C912C5B
:100960005401839480919C04781608F05FC0072D91
:1009700010E0E0919904F0919A04E00FF11F61E01A
:1009800080810E94A203E0919904F0919A04E00F03
:10099000F11F60E080810E947003D501C401072C23
:1009A00004C0880F991FAA1FBB1F0A94D2F76C01BD
:1009B0007C01E094F094612C80919B046816F8F41B
:1009C000C62DD0E0E0919704F0919804EC0FFD1F44
:1009D00080810E9444032496CC0FDD1FCB5CDB4F4B
:1009E000892B41F4888199818C299D299983888359
:1009F0006394E2CF888199818E219F21F7CFE09186
:100A00009904F0919A04E00FF11F61E080810E9447
:100A100070038091990490919A04080F191F60E067
:100A2000F80180810E94A20373949CCFC5E3D4E0B7
:100A3000FE018FEF9FEF278D30A1232B21F4148E21
:100A4000968F858F11A2369624E0E137F20799F749
:100A5000F12C96E0D92E80919B04F81608F050C036
:100A6000E12C0F2D10E0000F111F035C1B4F209194
:100A70009C04E21608F042C0F801608171810E2CDE
:100A800002C0769567950A94E2F7F29E90011124D0
:100A90002E0D311DE5E3F4E080E0458D568D2417E1
:100AA000350709F461C08F5F36968A30B1F760FF71
:100AB00023C0E5E3F4E090E080E0448D411117C0ED
:100AC000E0919504F0919604E20FF31F4081D89EC7
:100AD000F001D99EF00D1124EB5CFB4F448F368F53
:100AE000258F10A2178E61E00E94130405C00196A5
:100AF00036968A30910509F7E394B9CFF394ABCFDA
:100B000010E089A18111182F2696F4E0C137DF0784
:100B1000C1F70E940704609391047093920480933C
:100B20009304909394041123D9F080915604882360
:100B3000B9F08091540490915504019789F4809103
:100B40005104DF91CF911F910F91FF90EF90DF90B3
:100B5000CF90BF90AF909F908F907F906F900895AF
:100B60001092A10480E0EDCF6170BECF0895209176
:100B7000E502260F3327331F21323105ECF4209193
:100B80006203FC0190E080E0243069F082E0089587
:100B9000A091E5022191AC014B535D4FA40FB52FFD
:100BA000B11D2C930196861798F38091E502680F8A
:100BB0006093E50280E0089581E008951092620359
:100BC00081E08093610310923C0361E084E10E9424
:100BD000700361E085E10E947003E9EBF0E0808141
:100BE0008E7F808380818D7F808388E48093B800AE
:100BF00085E48093BC000895CF93DF9391E09093B8
:100C0000C4028823B9F0C091B800D091BA00809195
:100C1000BC008A7B8093BC0060E084E10E9470038A
:100C200060E085E10E9470030E94DE05D093BA0067
:100C3000C093B800DF91CF910895CF92DF92EF92E9
:100C4000FF920F931F93CF93DF93D0918B0381E09B
:100C5000D13208F09CC0C0918A030E94E2036B016C
:100C60007C018091620381116CC082E080936203F9
:100C700081E0809361038FEF8093600310925F03A4
:100C8000D0935E03AAE6B3E0EEE3F3E080E0D8138E
:100C90008DC010923D0380913D03CC0FC82BC093B3
:100CA0003D0380913C03813009F084C010923C03E5
:100CB0000E94E2036B017C0180913D038093BB00A5
:100CC0008091640390916503A0916603B0916703DE
:100CD000892B8A2B8B2BA1F00E94E20300916403E5
:100CE0001091650320916603309167036C197D09AB
:100CF0008E099F09061717072807390708F442C00D
:100D00008091BC0083FDD8CF85EC8093BC000E940D
:100D1000E2036B017C0180916203823009F44CC0D4
:100D2000809160038F3F09F469C080916003803235
:100D300009F466C080916003803309F463C084E0E5
:100D400026C08091640390916503A0916603B091E1
:100D50006703892B8A2B8B2B09F483CF0E94E20334
:100D6000009164031091650320916603309167033D
:100D70006C197D098E099F0906171707280739077F
:100D800008F06FCF809163030E94FC0585E010920C
:100D9000690310928B0310926803DF91CF911F912A
:100DA0000F91FF90EF90DF90CF9008959D919193D8
:100DB0008F5F6DCF85EEA9CF80916403909165031D
:100DC000A0916603B0916703892B8A2B8B2B09F4C2
:100DD000A2CF0E94E2030091640310916503209169
:100DE0006603309167036C197D098E099F09061708
:100DF00017072807390708F08ECFC4CF80E0C7CF88
:100E000082E0C5CF83E0C3CF0895E09116038091BF
:100E10001503E81730F4F0E0E95EFC4F808190E0C4
:100E200008958FEF9FEF0895909116038091150319
:100E30002FEF3FEF981748F4E92FF0E0E95EFC4F01
:100E4000208130E09F5F90931603C901089580913F
:100E5000150390911603891B990B0895CF92DF9289
:100E6000EF92FF920F931F93CF93DF937C01CB01FF
:100E70008A0120916803222389F0EB016B01C40EE3
:100E8000D51ECC15DD0569F06991D701ED91FC9176
:100E90000190F081E02DC7011995F3CF642F0E94D6
:100EA000B705C801DF91CF911F910F91FF90EF908F
:100EB000DF90CF900895CF93DF931F92CDB7DEB729
:100EC0006983209168032223F9F020918B0320325B
:100ED00058F021E030E0FC013383228390E080E091
:100EE0000F90DF91CF91089580916903E82FF0E092
:100EF000E659FC4F998190838F5F809369038093BB
:100F00008B0381E090E0ECCF61E0CE0101960E947E
:100F1000B705F7CF682F89E294E00C945B0790E067
:100F200080E008958F929F92AF92BF92CF92DF920E
:100F3000EF92FF92CF93DF93EC01009709F04FC03F
:100F400061E08EE10E94700361E08FE10E94700316
:100F500061E080E20E94700361E081E20E94700320
:100F60000E94E2034B015C0188EEC82E83E0D82E7C
:100F7000E12CF12C0E94E203681979098A099B0986
:100F8000683E734081059105A8F321E0C21AD1089B
:100F9000E108F10888EE880E83E0981EA11CB11CC0
:100FA000C114D104E104F10429F760E08EE10E944C
:100FB000700360E08FE10E94700360E080E20E94B5
:100FC000700360E081E2DF91CF91FF90EF90DF90BE
:100FD000CF90BF90AF909F908F900C94700301972B
:100FE0000497A0F460E08EE10E94700360E08FE15E
:100FF0000E94700360E080E20E94700360E081E282
:101000000E94700361E08C2F835EDDCFDF91CF9172
:10101000FF90EF90DF90CF90BF90AF909F908F9018
:101020000895CF93DF93EC0160E08E810E947003FE
:1010300061E08E810E94700360E08E810E947003E7
:101040008BE891E00197F1F7DF91CF910895CF926E
:10105000DF92EF92FF920F931F93CF93DF936C0178
:101060007C0187E0E80EF11CD0E0C0E0062F10E024
:10107000B8010C2E02C0759567950A94E2F761706D
:10108000F70181917F010E9470032196C430D10540
:1010900079F7C601DF91CF911F910F91FF90EF90EB
:1010A000DF90CF900C941108CF92DF92EF92FF92D5
:1010B0000F931F93CF93DF93EC01F62E642F8C8157
:1010C0000E9470038D818F3F19F060E00E947003D1
:1010D0000F2D10E08F8584FF25C06E0187E0C80EBC
:1010E000D11CF12CE12CB8010E2C02C0759567952E
:1010F0000A94E2F76170F60181916F010E9470031A
:10110000FFEFEF1AFF0A88E0E816F10461F7CE015D
:10111000DF91CF911F910F91FF90EF90DF90CF90D3
:101120000C941108B80184E0759567958A95E1F7EC
:10113000CE010E9427086F2DCE01DF91CF911F9124
:101140000F91FF90EF90DF90CF900C94270840E034
:10115000682F84EA94E00C94540881E00E94A70868
:101160008BE39FE10197F1F70895CF93DF938230EE
:1011700029F49091B30498609093B3048093B704DA
:101180001092B80480E48093B90480E18093BA049B
:1011900080E58093BB0461E08091A8040E94A203D3
:1011A0008091A9048F3F19F061E00E94A20361E0E1
:1011B0008091AA040E94A203C4EAD4E09E01245AAA
:1011C00034408091B30484FD0BC084E090E021960C
:1011D0002817390744F461E08E810E94A203EECF04
:1011E00088E090E0F4CF8BE39DE00197F1F760E0B9
:1011F0008091A8040E94700360E08091AA040E947C
:1012000070038091A9048F3F19F060E00E94700381
:101210008091B30484FD34C063E084EA94E00E94CA
:101220002708CBE4D6E4CE010197F1F763E084EA26
:1012300094E00E9427082197F1F763E084EA94E0A4
:101240000E94270883E592E00197F1F762E084EAC3
:1012500094E00E9427088091B30480620E94A7084E
:1012600084E08093B4048CE00E94A7080E94AD083B
:1012700082E08093B50486E0DF91CF910C94A708BB
:1012800080620E94A7088BE496E40197F1F78091B1
:10129000B30480620E94A70883E592E00197F1F70A
:1012A0008091B30480620E94A708D5CF9091B704C3
:1012B000891710F08FEF890FE82FF0E0EC55FB4F06
:1012C000848980680C94A70841E00E94540881E05A
:1012D00090E00895FB0101900020E9F73197AF01FC
:1012E000461B570BDC01ED91FC910280F381E02D50
:1012F00019948F929F92AF92BF92EF92FF920F93A9
:101300001F93CF93DF93CDB7DEB7A1970FB6F894B5
:10131000DEBF0FBECDBF7C01FA01CB0119A2223086
:1013200008F42AE08E010F5D1F4F822E912CB12C04
:10133000A12CBF01A50194010E945410F901CA011A
:101340006A300CF5605DD8016E938D01232B242B40
:10135000252B79F790E080E0109721F0BD01C701BF
:101360000E946A09A1960FB6F894DEBF0FBECDBFEA
:10137000DF91CF911F910F91FF90EF90BF90AF90B1
:101380009F908F900895695CDECFCF92DF92EF92AD
:10139000FF920F931F93CF93DF93EC016A017B01C0
:1013A000E881F9810190F081E02D6DE219958C01C1
:1013B00044275527BA014C195D096E097F092AE0B7
:1013C000CE010E947909800F911FDF91CF911F916B
:1013D0000F91FF90EF90DF90CF900895CF93DF9320
:1013E000AC01990F660B770B77FF10C08CE893E088
:1013F0000E94C509EC016BE572E08CE893E00E9465
:101400006A098C0F9D1FDF91CF9108952AE08CE827
:1014100093E00E947909EECFAB01770F660B770B53
:1014200077FD0C94C5092AE00C9479094F925F92DC
:101430006F927F92BF92CF92DF92EF92FF920F93C3
:101440001F93CF93DF93FC01C081D181828193816F
:10145000C80FD91F84819581C80FD91F86819781B4
:10146000C80FD91F1C161D060CF096C08F01D12C79
:10147000C12CEE24E394F12CBB24B394F701E1508A
:10148000F048EE0FFF1FE00FF11F80819181C81619
:10149000D90674F18FEFE81AF80AD12CC12C25E097
:1014A000E216F10459F70E94AD0880E00E94560947
:1014B0006EE572E084EA94E00E946A0981E00E948D
:1014C00056096BE672E084EA94E00E946A0990E0B3
:1014D00080E0DF91CF911F910F91FF90EF90DF900F
:1014E000CF90BF907F906F905F904F900C94920739
:1014F000C7010E9492070E94AD0880E00E94560931
:101500006CE772E084EA94E00E946A09BE0184EA12
:1015100094E00E940C0A81E00E94560968E872E09B
:1015200084EA94E00E946A09B70184EA94E00E9488
:101530000C0A0E940704609337037093380380936A
:10154000390390933A030E94070440903703509068
:1015500038036090390370903A036419750986095D
:101560009709673E73408105910580F40E946F04DE
:1015700080933B03833429F4809100028B25809370
:101580000002809100028111DECFD3CF8FEFC81A05
:10159000D80A219708F083CFDF91CF911F910F9147
:1015A000FF90EF90DF90CF90BF907F906F905F9013
:1015B0004F90089585ED8093BC00809164039091D5
:1015C0006503A0916603B09167030796A11DB11D45
:1015D00023E0B695A795979587952A95D1F7209101
:1015E000BC0024FD03C0109262030895409164037F
:1015F000509165036091660370916703452B462BFC
:10160000472B69F30097A105B10541F025E32A9521
:10161000F1F700000197A109B109E1CF80916303BF
:101620000C94FC051F920F920FB60F9211240BB66B
:101630000F922F933F934F935F936F937F938F936B
:101640009F93AF93BF93EF93FF938CE893E00E9437
:101650001D02FF91EF91BF91AF919F918F917F916B
:101660006F915F914F913F912F910F900BBE0F9013
:101670000FBE0F901F9018951F920F920FB60F92EA
:1016800011240BB60F922F938F939F93EF93FF9399
:10169000E0919C03F0919D038081E091A203F09181
:1016A000A30382FD1DC090818091A5038F5F8F737E
:1016B0002091A603821741F0E091A503F0E0E457E2
:1016C000FC4F958F8093A503FF91EF919F918F9190
:1016D0002F910F900BBE0F900FBE0F901F9018957B
:1016E0008081F2CF1F920F920FB60F9211242F9389
:1016F0003F938F939F93AF93BF93809109039091F2
:101700000A03A0910B03B0910C033091080323E06E
:10171000230F2D3758F50196A11DB11D2093080305
:101720008093090390930A03A0930B03B0930C03D7
:1017300080910D0390910E03A0910F03B0911003BF
:101740000196A11DB11D80930D0390930E03A093EC
:101750000F03B0931003BF91AF919F918F913F9171
:101760002F910F900FBE0F901F90189526E8230F12
:101770000296A11DB11DD2CF1F920F920FB60F92EC
:1017800011240BB60F922F933F934F935F936F9358
:101790007F938F939F93AF93BF93EF93FF9380912A
:1017A000B900887F803609F44DC008F040C0883207
:1017B00009F4A9C028F5803109F49DC0C8F4882334
:1017C00009F4FBC0883009F496C0FF91EF91BF91F6
:1017D000AF919F918F917F916F915F914F913F91C9
:1017E0002F910F900BBE0F900FBE0F901F9018956A
:1017F000883109F488C0803241F78093600314C0B7
:10180000803409F49DC040F48033B9F38833E9F69D
:101810008093600385ECB0C0803509F485C08835BD
:1018200009F496C0883489F60E94DA0ACECF883946
:1018300009F48CC038F5883729F050F4883611F057
:10184000803719F683E0809362031092070357C034
:10185000883809F47BC0803919F0803809F0B5CF99
:1018600080910703803208F071C0E091070381E0A6
:101870008E0F809307038091BB00F0E0E951FD4F8C
:1018800080833DC0803B39F0E0F4803A09F479C0B0
:10189000883A09F09ACF84E0809362031092E602BE
:1018A0001092E502E0911303F091140319958091D1
:1018B000E50281110FC081E08093E5021092C5021C
:1018C00009C0803C09F4A6CF883C09F4A3CF883B2B
:1018D00009F07BCFE091E60281E08E0F8093E60273
:1018E000F0E0EB53FD4F80818093BB009091E602C6
:1018F0008091E50229C080913D038093BB0085EC77
:101900008093BC0062CF90915F0380915E03981733
:1019100058F5E0915F0381E08E0F80935F03F0E064
:10192000E25CFC4F8081E9CFE0915F0381E08E0FA4
:1019300080935F038091BB00F0E0E25CFC4F80830A
:1019400090915F0380915E039817C8F285E8D8CF25
:10195000E0915F0381E08E0F80935F038091BB0075
:10196000F0E0E25CFC4F80838091610381115CCFE9
:1019700081E080933C0384EA8093BC001092620370
:1019800024CF85EC8093BC00109262038091070302
:10199000803230F4E0910703F0E0E951FD4F10820E
:1019A0006091070370E0E0911103F091120387EE5C
:1019B00092E019951092070308CF1092600334CF7C
:1019C00010928F0310928E0388EE93E0A0E0B0E0B7
:1019D0008093900390939103A0939203B093930309
:1019E00025E232E030938D0320938C0325EC30E028
:1019F000309399032093980324EC30E030939B03B9
:101A000020939A0320EC30E030939D0320939C03B5
:101A100021EC30E030939F0320939E0322EC30E0D2
:101A20003093A1032093A00326EC30E03093A3036E
:101A30002093A2031092A5031092A6031092A7036D
:101A40001092A80310922C0410922B0480932D0462
:101A500090932E04A0932F04B093300487E392E078
:101A600090932A04809329041092A7041092A6044C
:101A700083E592E09093A5048093A40480E380938F
:101A8000A8048FEF8093A90481E38093AA0482E3E2
:101A90008093AB0483E38093AC0484E38093AD0430
:101AA00085E38093AE041092AF041092B0041092BC
:101AB000B1041092B2041092B30481E00E94B50800
:101AC0001092370410923B0410923A0410923C0496
:101AD00089E492E09093360480933504E1E5F4E0E4
:101AE0001082148213821582369684E0ED38F8074E
:101AF000B9F785E092E0909398048093970481E091
:101B000092E090939A048093990484E080939B04DC
:101B100080939C0489E092E09093960480939504CE
:101B20008AE090E090939E0480939D0484EF91E07E
:101B30009093A00480939F041092A3041092A20497
:101B400010929104109292041092930410929404B3
:101B50001092A1040895CF93DF9300D000D01F927C
:101B60001F92CDB7DEB7789484B5826084BD84B50A
:101B7000816084BD85B5826085BD85B5816085BD88
:101B800080916E00816080936E0010928100809140
:101B900081008260809381008091810081608093C8
:101BA0008100809180008160809380008091B100ED
:101BB00084608093B1008091B00081608093B00018
:101BC000809191008260809391008091910081606A
:101BD000809391008091900081608093900080912B
:101BE000A10082608093A1008091A1008160809318
:101BF000A1008091A00081608093A00080912101CC
:101C00008260809321018091210181608093210174
:101C10008091200181608093200180917A0084600E
:101C200080937A0080917A00826080937A0080911C
:101C30007A00816080937A0080917A008068809336
:101C40007A001092C10082E00E94B5080E94AD089F
:101C500010921603109215031092690310928B03D1
:101C60000E94DE0587EA91E09093140380931303AA
:101C700088EA91E09093120380931103E0919C0312
:101C8000F0919D0382E08083E0919803F0919903A5
:101C90001082E0919A03F0919B038FEC8083109265
:101CA000A403E091A003F091A10386E08083E0917A
:101CB0009E03F0919F03808180618083E0919E0369
:101CC000F0919F03808188608083E0919E03F09172
:101CD0009F03808180688083E0919E03F0919F0341
:101CE00080818F7D808380E00E94560960E972E0E8
:101CF00084EA94E00E946A0990E5792E4E0129E079
:101D0000820E911C33243A9423E0622E35EE532E3A
:101D100045EC442E0E946F04182F80933B030E94D1
:101D200007046093370370933803809339039093CB
:101D30003A03112379F01F3281F488E0E9E1F2E0FF
:101D4000DE01119601900D928A95E1F7CE01019680
:101D50000E94160A0E94AC02DDCF1A3209F0FBC0C5
:101D600081E08093680370928A0310926903109255
:101D70008B0390E080E00E948A0781E090E00E945F
:101D80008A070E941D060E94E2036B017C0180917C
:101D90006203811162C081E08093620380936103DA
:101DA0003092600310925F0360925E0380933D0364
:101DB00080913D03806A80933D0380913C03813094
:101DC00009F0A2C010923C030E94E2036B017C0167
:101DD00080913D038093BB008091640390916503E3
:101DE000A0916603B0916703892B8A2B8B2BA1F0FE
:101DF0000E94E20300916403109165032091660341
:101E0000309167036C197D098E099F090617170722
:101E10002807390708F442C08091BC0083FDD8CF61
:101E20004092BC000E94E2036B017C01809162033E
:101E3000813009F46CC080915F03843008F089C060
:101E400080915F03EEE3F3E0A7E1B3E090E0981741
:101E500051F121912D939F5FFACF8091640390916E
:101E60006503A0916603B0916703892B8A2B8B2BA6
:101E700009F48DCF0E94E203009164031091650381
:101E800020916603309167036C197D098E099F09C3
:101E9000061717072807390708F079CF80916303E1
:101EA0000E94FC0580E010921603809315038E01BA
:101EB0000F5F1F4F780189E294E00E941407F80138
:101EC000819391938F01E815F905A9F768E972E00C
:101ED0008CE893E00E946A096BE572E08CE893E07D
:101EE0000E946A0989819A810E94EE098B819C81F6
:101EF0000E94EE098D819E810E94EE098F81988556
:101F00000E94EE09C70124CF5092BC008BCF809174
:101F1000640390916503A0916603B0916703892BD8
:101F20008A2B8B2B09F482CF0E94E2030091640379
:101F30001091650320916603309167036C197D0948
:101F40008E099F09061717072807390708F06ECF73
:101F5000A5CF84E077CF1B3209F0FCCE8E010F5F56
:101F60001F4F5801EE24E394F12C0E94AD0880E04D
:101F70000E94560962EA72E084EA94E00E946A09CB
:101F8000B70184EA94E00E940C0A69EA72E084EAEC
:101F900094E00E946A0981E00E945609D12CC12C6C
:101FA0000E946F04282E80933B0380ED820D8A30BF
:101FB000A8F441E0622D84EA94E00E945408FAE01B
:101FC000FC9DC001FD9D900D1124C22C220CDD084A
:101FD00020E3C21AD108C80ED91EE2CF8DE3281221
:101FE000DFCFF501C192D1925F01FFEFEF1AFF0A37
:101FF00025E0E216F10409F0B8CF60EB72E08CE85E
:1020000093E00E946A096BE572E08CE893E00E941D
:102010006A0989819A810E94EE098B819C810E94C4
:10202000EE098D819E810E94EE098F8198850E9424
:10203000EE0981E08093680370928A03109269032D
:1020400010928B0390E080E00E948A0781E090E08C
:102050000E948A07780188E0E80EF11CF80181915E
:1020600091918F018F3F910519F014F08FEF90E05F
:102070000E948A070E151F0589F70E941D060E94FF
:10208000AD0880E00E9456096AEB72E084EA94E0B1
:102090000E946A0981E00E94560962E772E084EAC0
:1020A00094E00E946A0956CEA1E21A2EAA1BBB1B1D
:1020B000FD010DC0AA1FBB1FEE1FFF1FA217B30714
:1020C000E407F50720F0A21BB30BE40BF50B661F2A
:1020D000771F881F991F1A9469F7609570958095EE
:1020E00090959B01AC01BD01CF010895EE0FFF1F3C
:1020F000881F8BBF0790F691E02D1994F894FFCFBD
:10210000011A1B1C1D161718193738392F3435368C
:102110002A3132332D43303D2B02000200020002EF
:1021200000000000003F02A901D6018C020702E571
:1021300001F901000000005B072E078F0704072745
:10214000071407050700000000DE039E036D03006F
:102150000000006409A9018F07B6050D0A00546943
:102160006D65204C6566743A203000506861736577
:102170003A20436F6D706C657465640054696D65D9
:10218000204C6566743A200050686173653A2000FF
:1021900057656C636F6D650052656164696E673A7F
:1021A0002000506861736520002074696D653A00F5
:1021B00057726974696E673A200053657474696E6A
:0421C000673A00007A
:00000001FF
