:100000000C9440010C9454010C9454010C94540130
:100010000C9454010C9454010C9454010C9454010C
:100020000C9454010C9454010C9454010C945401FC
:100030000C9454010C9454010C9454010C945401EC
:100040000C9454010C9454010C9454010C945401DC
:100050000C9454010C9454010C9454010C946A02B5
:100060000C9454010C9454010C9454010C945401BC
:100070000C9454010C9454010C9454010C945401AC
:100080000C9454010C9454010C9454010C9454019C
:100090000C9454010C9454010C9454010C9454018C
:1000A0000C9454010C9454010C9454010C9454017C
:1000B0000C9454010C9454010C9454010C9454016C
:1000C0000C9454010C9454010C9454010C9454015C
:1000D0000C9454010C9454010C9454010C9454014C
:1000E0000C9454010C94C7030C94C5030C94AB01FD
:1000F0000C947E010C94FD030C9482010C94BD03BE
:100100000C94F7030C9489010C94C1030C947401B2
:100110000C947A010C9486010C948F010C94BF030B
:100120000C94FB030C94A7010C94B9010C94B50139
:100130000C9499010C94F9030C94B4010C949D0156
:100140000C94C3030C9493010C9498030C94F50342
:100150000C94A1010C94AF010C94FF030C94BB030D
:1001600000002100240027002A002D003000330069
:1001700001010000040107010A010000220025001E
:1001800028002B002E003100340002010000050180
:1001900008010B01000020002300260029002C008C
:1001A0002F003200000100000301060109010505CE
:1001B0000505070508080808020202020A0A0808DD
:1001C000040404040101010101010101030303030B
:1001D00003030303040707070C0C0C0C0C0C0C0C9A
:1001E0000202020206060606060606060B0B0B0BAB
:1001F0000B0B0B0B010210202008081020401020D0
:1002000040800201020108040201010204081020DA
:1002100040808040201008040201800402018040D8
:100220002010080402010804020101020408102041
:100230004080010204081020408000000A0B0209DF
:100240000C0D0E0807030401000000000000000070
:10025000000000000000000000000000000000009E
:10026000000000000000121110000000000000005B
:10027000000000000000000000000000000000007E
:1002800011241FBECFEFD1E2DEBFCDBF00E00CBF17
:1002900022E0A0E0B2E001C01D92AD30B207E1F76C
:1002A0000E94B4020C9409040C9400008150823125
:1002B00008F05AC0E82FF0E08827EE59FE4F8F4F24
:1002C0000C9401048201860174017A017E01B4015B
:1002D00089018F01930199019D01A101A701AB0142
:1002E000B401AF01B501B901809180008F7780938F
:1002F00080000895809180008F7DF9CF80918000EB
:10030000877FF5CF84B58F7784BD089584B58F7DC1
:10031000FBCF8091B0008F778093B00008958091DB
:10032000B0008F7DF9CF809190008F7780939000FF
:100330000895809190008F7DF9CF80919000877F04
:10034000F5CF8091A0008F778093A00008958091D1
:10035000A0008F7DF9CF8091A000877FF5CF80919D
:1003600020018F77809320010895809120018F7D57
:10037000F9CF80912001877FF5CFCF93DF93282F8E
:1003800030E0F901E65CFD4F8491F901EC50FE4F3D
:10039000D491F901E255FE4FC491CC23A1F0811113
:1003A0000E945601EC2FF0E0EE0FFF1FEC56FE4FBF
:1003B000A591B491EC91ED2381E090E009F480E007
:1003C000DF91CF91089580E090E0FACF1F93CF9313
:1003D000DF93282F30E0F901E65CFD4F8491F901AD
:1003E000EC50FE4FD491F901E255FE4FC491CC235D
:1003F000A9F0162F81110E945601EC2FF0E0EE0FAC
:10040000FF1FE658FE4FA591B4918FB7F894EC9179
:10041000111108C0D095DE23DC938FBFDF91CF91FF
:100420001F910895DE2BF8CFCF93DF9390E0FC016E
:10043000EC50FE4F249182559E4FFC0184918823FD
:10044000D1F090E0880F991FFC01E05AFE4FA59172
:10045000B491FC01E658FE4FC591D49161110EC0D4
:100460009FB7F8948C91E22FE0958E238C9328818E
:10047000E223E8839FBFDF91CF9108958FB7F8946F
:10048000EC91E22BEC938FBFF6CF3FB7F8948091BD
:10049000050290910602A0910702B091080226B5CC
:1004A000A89B05C02F3F19F00196A11DB11D3FBFAC
:1004B000BA2FA92F982F8827BC01CD01620F711D7B
:1004C000811D911D42E0660F771F881F991F4A9575
:1004D000D1F708951F920F920FB60F9211242F9308
:1004E0003F938F939F93AF93BF938091010290911D
:1004F0000202A0910302B09104023091000223E0B5
:10050000230F2D3758F50196A11DB11D2093000230
:100510008093010290930202A0930302B09304021D
:100520008091050290910602A0910702B091080205
:100530000196A11DB11D8093050290930602A09320
:100540000702B0930802BF91AF919F918F913F91A5
:100550002F910F900FBE0F901F90189526E8230F34
:100560000296A11DB11DD2CF789484B5826084BD5E
:1005700084B5816084BD85B5826085BD85B58160A7
:1005800085BD80916E00816080936E001092810025
:1005900080918100826080938100809181008160E0
:1005A00080938100809180008160809380008091A1
:1005B000B10084608093B1008091B000816080932D
:1005C000B0008091910082608093910080919100B1
:1005D0008160809391008091900081608093900071
:1005E0008091A10082608093A1008091A100816030
:1005F0008093A1008091A00081608093A0008091F1
:10060000210182608093210180912101816080938A
:1006100021018091200181608093200180917A00E6
:10062000846080937A0080917A00826080937A005F
:1006300080917A00816080937A0080917A0080684E
:1006400080937A001092C10061E080E00E94140261
:1006500061E081E00E94140261E082E00E941402E5
:1006600061E083E00E94140261E084E00E941402D1
:1006700061E085E00E94140261E086E00E941402BD
:1006800060E08AE00E94140260E08BE00E941402A5
:1006900060E08CE00E94140200E010E08CE00E9418
:1006A000BD01892B51F560E080E00E94E60160E029
:1006B00081E00E94E60160E082E00E94E60160E0E5
:1006C00083E00E94E60160E084E00E94E60160E0D1
:1006D00085E00E94E60160E086E00E94E60110925B
:1006E0000C0210920B0210920A02109209020115DC
:1006F0001105A1F20E940000D1CF8AE00E94BD0145
:10070000892BF1F4C0910B02D0910C02C730D105B6
:1007100090F4FE0161E08827EF56FC4F8F4F0C9458
:1007200001049803BB03BD03BF03C103C303C50397
:1007300080E00E94E6012196D0930C02C0930B0248
:100740008BE00E94BD01892B51F5C0910902D09127
:100750000A02C730D105F0F4FE0161E08827EC54AD
:10076000FC4F8F4F0C940104C703F503F703F90303
:10077000FB03FD03FF0381E0DCCF82E0DACF83E0FF
:10078000D8CF84E0D6CF85E0D4CF86E0D2CF86E044
:100790000E94E6012196D0930A02C09309020E94AA
:1007A00045024B015C0184EFC82EDD24D394E12C7B
:1007B000F12C0E944502681979098A099B09683E53
:1007C000734081059105A8F321E0C21AD108E10820
:1007D000F10888EE880E83E0981EA11CB11CC1149C
:1007E000D104E104F10429F782CF85E0D1CF84E080
:1007F000CFCF83E0CDCF82E0CBCF81E0C9CF80E007
:10080000C7CFEE0FFF1F881F8BBF0790F691E02D1B
:060810001994F894FFCFDB
:00000001FF
