:100000000C9422010C9453010C9453010C94530151
:100010000C9453010C9453010C9453010C94530110
:100020000C9453010C9453010C9453010C94530100
:100030000C9453010C9453010C9453010C945301F0
:100040000C9453010C9453010C9453010C945301E0
:100050000C9453010C9453010C9453010C949A0387
:100060000C9453010C9453010C9453010C945301C0
:100070000C9453010C9453010C9453010C945301B0
:100080000C9453010C9453010C9453010C945301A0
:100090000C9453010C9453010C9453010C94530190
:1000A0000C9453010C9453010C9453010C94530180
:1000B0000C9453010C9453010C9453010C94530170
:1000C0000C9453010C9453010C9453010C94530160
:1000D0000C9453010C9453010C9453010C94530150
:1000E0000C9453010C9453020C9419020C942702A3
:1000F0000C94F0010C941D020C9401020C94EC0180
:100100000C9452020C9494030C94E8010C94D101C9
:100110000C94D6010C9415020C9474010C94FD01FE
:100120000C9423020C941A050C940F020C940B02ED
:100130000C9407020C94F4010C94F70100000A0BD4
:1001400002090C0D0E080703040100000000000066
:10015000000000000000000000000000000000009F
:10016000000000000000000012111000000000005C
:10017000000000000000000000000000000000007F
:10018000000000002200250028002B002E00310076
:10019000340002010000050108010B0100002100EC
:1001A000240027002A002D00300033000101000048
:1001B000040107010A0105050505070508080808E7
:1001C000020202020A0A08080404040401010101EF
:1001D00001010101030303030303030304070707EA
:1001E0000C0C0C0C0C0C0C0C02020202060606068F
:1001F000060606060B0B0B0B0B0B0B0B010210205C
:10020000200808102040102040800201020108044C
:1002100002010102040810204080804020100804E0
:100220000201800402018040201008040201080439
:10023000020101020408102040800102040810207D
:1002400040801A0511241FBECFEFD1E2DEBFCDBF23
:1002500000E00CBF12E0A0E0B2E0E4E8FAE000E069
:100260000BBF02C007900D92A833B107D9F722E067
:10027000A8E3B2E001C01D92AB35B207E1F711E08F
:10028000C2E2D1E000E006C021970109802FFE0103
:100290000E943805C132D10780E00807A9F70E9403
:1002A000E4030C9440050C94000090E0FC01E45041
:1002B000FE4F24918A549E4FFC018491882399F02B
:1002C00090E0880F991FFC01E456FE4FA591B49170
:1002D000FC01EE57FE4F859194918FB7F894EC9105
:1002E000E22BEC938FBF0895AF92BF92CF92DF9233
:1002F000EF92FF920F931F93CF93DF936C017B01DB
:100300008B01040F151FEB015E01AE18BF08C0176B
:10031000D10759F06991D601ED91FC910190F081DE
:10032000E02DC6011995892B79F7C501DF91CF9191
:100330001F910F91FF90EF90DF90CF90BF90AF9003
:100340000895282F30E0F901E45CFE4F9491F90103
:10035000E450FE4F44912A543E4FF9012491222348
:1003600009F435C0992311F191509231F8F4E92F35
:10037000F0E08827E154FE4F8F4F0C943805F001D0
:10038000F401D101E801EC01D601F701FD01010200
:1003900007020B020F0215021902D6011D022302E9
:1003A0002702809180008F7780938000E22FF0E019
:1003B000EE0FFF1FEE57FE4FA591B4918FB7F89443
:1003C000EC91611148C040954E234C938FBF089526
:1003D000809180008F7DE8CF80918000877FE4CF7F
:1003E00084B58F7784BDE2CF84B58F7DFBCF8091BC
:1003F000B0008F778093B000D9CF8091B0008F7D0F
:10040000F9CF809190008F7780939000CFCF80912B
:1004100090008F7DF9CF80919000877FF5CF8091FC
:10042000A0008F778093A000C1CF8091A0008F7D26
:10043000F9CF8091A000877FF5CF809120018F7741
:1004400080932001B3CF809120018F7DF9CF8091DF
:100450002001877FF5CF4E2BB8CF3FB7F89480911E
:100460003D0290913E02A0913F02B091400226B51C
:10047000A89B05C02F3F19F00196A11DB11D3FBFDC
:10048000BA2FA92F982F8827BC01CD01620F711DAB
:10049000811D911D42E0660F771F881F991F4A95A5
:1004A000D1F70895089590E080E00895CF93DF9309
:1004B000EC0160E08E810E94A10161E08E810E94CA
:1004C000A10160E08E810E94A1018BE891E001977B
:1004D000F1F7DF91CF910895CF92DF92EF92FF92E3
:1004E0000F931F93CF93DF936C017C0187E0E80E9D
:1004F000F11CD0E0C0E0062F10E0B8010C2E02C0C5
:10050000759567950A94E2F76170F70181917F0113
:100510000E94A1012196C430D10579F7C601DF916F
:10052000CF911F910F91FF90EF90DF90CF900C949F
:100530005602CF92DF92EF92FF920F931F93CF93C9
:10054000DF93EC01F62E642F8C810E94A1018D8136
:100550008F3F19F060E00E94A1010F2D10E08F8500
:1005600084FF25C06E0187E0C80ED11CF12CE12C60
:10057000B8010E2C02C0759567950A94E2F7617078
:10058000F60181916F010E94A101FFEFEF1AFF0AAE
:1005900088E0E816F10461F7CE01DF91CF911F9159
:1005A0000F91FF90EF90DF90CF900C945602B8011E
:1005B00084E0759567958A95E1F7CE010E946C02FB
:1005C0006F2DCE01DF91CF911F910F91FF90EF9092
:1005D000DF90CF900C946C0240E0682F83E492E0AF
:1005E0000C949902CF93DF93823029F490915202B8
:1005F000986090935202809356021092570280E4C2
:100600008093580280E18093590280E580935A02DA
:10061000809147020E945501809148028F3F11F05E
:100620000E945501809149020E945501C3E4D2E025
:100630009E01235432408091520284FD0AC084E01E
:1006400090E02196281739073CF48E810E945501CD
:10065000EFCF88E090E0F5CF8BE39DE00197F1F7D5
:1006600060E0809147020E94A10160E08091490210
:100670000E94A101809148028F3F19F060E00E9422
:10068000A1018091520284FD39C063E083E492E0CD
:100690000E946C02CBE4D6E4CE010197F1F763E04F
:1006A00083E492E00E946C022197F1F763E083E417
:1006B00092E00E946C0283E592E00197F1F762E01C
:1006C00083E492E00E946C028091520280620E9458
:1006D000EC0284E0809353028CE00E94EC0281E003
:1006E0000E94EC028BE39FE10197F1F782E0809397
:1006F000540286E0DF91CF910C94EC0280620E945C
:10070000EC028BE496E40197F1F78091520280624B
:100710000E94EC0283E592E00197F1F7809152028A
:1007200080620E94EC02D0CF41E00E94990281E0F9
:1007300090E008951F920F920FB60F9211242F93FD
:100740003F938F939F93AF93BF9380913902909182
:100750003A02A0913B02B0913C023091380223E072
:10076000230F2D3758F50196A11DB11D2093380296
:100770008093390290933A02A0933B02B0933C02DB
:1007800080913D0290913E02A0913F02B0914002C3
:100790000196A11DB11D80933D0290933E02A0934E
:1007A0003F02B0934002BF91AF919F918F913F91D3
:1007B0002F910F900FBE0F901F90189526E8230FD2
:1007C0000296A11DB11DD2CF789484B5826084BDFC
:1007D00084B5816084BD85B5826085BD85B5816045
:1007E00085BD80916E00816080936E0010928100C3
:1007F000809181008260809381008091810081607E
:10080000809381008091800081608093800080913E
:10081000B10084608093B1008091B00081608093CA
:10082000B00080919100826080939100809191004E
:10083000816080939100809190008160809390000E
:100840008091A10082608093A1008091A1008160CD
:100850008093A1008091A00081608093A00080918E
:100860002101826080932101809121018160809328
:1008700021018091200181608093200180917A0084
:10088000846080937A0080917A00826080937A00FD
:1008900080917A00816080937A0080917A008068EC
:1008A00080937A001092C10082E00E94F20281E0FF
:1008B0000E94EC028BE39FE10197F1F748E050E0E2
:1008C0006FE272E083E492E00E947401C0E0D0E045
:1008D0000E942D026B017C0128EC822E912CA12C10
:1008E000B12C0E942D026C197D098E099F09683E6A
:1008F000734081059105A8F321E0821A9108A108AF
:10090000B10888EEC80E83E0D81EE11CF11C8114EA
:100910009104A104B10429F7E1E08091560281110C
:10092000E0E0E195F0E0ED5BFD4F848980680E9496
:10093000EC02009100021091010210934202009318
:10094000410290E1C92ED12C809141029091420246
:100950008032910534F08F719927909342028093F1
:100960004102E0904102F0904202F701E25FFD4F48
:1009700041E0608183E492E00E9499028FEFE81ADF
:10098000F80AF0924202E092410221E0C21AD10834
:10099000D9F6E0915602E23008F045C0E150F0E0AF
:1009A000ED5BFD4F848980680E94EC02C80140968F
:1009B000909342028093410280E1C82ED12C809115
:1009C0004102909142028032910534F08F71992753
:1009D0009093420280934102E0904102F0904202E3
:1009E000F701E25FFD4F41E0608183E492E00E9405
:1009F00099028FEFE81AF80AF0924202E09241025F
:100A000021E0C21AD108D9F60F5F1F4F003211053D
:100A100064F41093010200930002209709F458CF68
:100A20000E94000055CFE1E0BACF1092010210926F
:100A30000002F3CFE3E4F2E01382128286E092E058
:100A4000918380838DE084838FEF85838CE0868320
:100A500088E0878389E080878AE081878BE08287CE
:100A60001386148615861686178681E00C94F2028A
:100A7000EE0FFF1F881F8BBF0790F691E02D199492
:040A8000F894FFCF18
:100A84000900000000009403740153025202202064
:100A94002020202020204D6F68616D6D616420202E
:100AA4002020202020202020202020202020004D35
:080AB4006F68616D6D61640063
:00000001FF
