:100000000C9438010C9469010C9469010C946901F9
:100010000C9469010C9469010C9469010C946901B8
:100020000C9469010C9469010C9469010C946901A8
:100030000C9469010C9469010C9469010C94690198
:100040000C9469010C9469010C9469010C94690188
:100050000C9469010C9469010C9469010C94F704E7
:100060000C9469010C9469010C9469010C94690168
:100070000C9469010C9469010C9469010C94690158
:100080000C9469010C9469010C9469010C94690148
:100090000C9469010C9469010C9469010C94690138
:1000A0000C9469010C9469010C9469010C94690128
:1000B0000C9469010C9469010C9469010C94690118
:1000C0000C9469010C9469010C9469010C94690108
:1000D0000C9469010C9469010C9469010C946901F8
:1000E0000C9469010C9476020C94EC020C9472024C
:1000F0000C9449020C9489020C9464020C948002C2
:100100000C947C020C9484020C94D8070C944F023B
:100110000C9457020C949E040C94BB020C94FE01A8
:100120000C945E020C9455030C945B020C946802D0
:100130000C9456030C948A020C948E020C946E025A
:100140000C9453020C942C030C94620800002100C0
:10015000240027002A002D00300033000101000098
:10016000040107010A0100002200250028002B00DD
:100170002E003100340002010000050108010B01CE
:10018000000020002300260029002C002F00320050
:100190000001000003010601090105050505070529
:1001A00008080808020202020A0A080804040404F3
:1001B000010101010101010103030303030303031F
:1001C000040707070C0C0C0C0C0C0C0C02020202AE
:1001D00006060606060606060B0B0B0B0B0B0B0B97
:1001E0000102102020080810204010204080020149
:1001F000020108040201010204081020408080402E
:10020000201008040201800402018040201008042C
:1002100002010804020101020408102040800102CA
:1002200004081020408000000A0B02090C0D0E0883
:1002300007030401000000000000000000000000AF
:1002400000000000000000000000000000000000AE
:10025000000012111000000000000000000000006B
:10026000000000000000000000000000D807620845
:1002700011241FBECFEFD1E2DEBFCDBF00E00CBF27
:1002800022E0ACE5B2E001C01D92A93FB207E1F760
:1002900012E0A0E0B2E0E8E4F5E100E00BBF02C04C
:1002A00007900D92AC35B107D9F711E0C7E3D1E063
:1002B00000E006C021970109802FFE010E946B0813
:1002C000C633D10780E00807A9F70E9441050C94C6
:1002D000920A0C94000096E0899FD0011124A25943
:1002E000BD4F90967C936E935F9791E091969C930F
:1002F0009197E091DB02F091DC029091DA02992370
:1003000039F0309751F0811108C080918A02199418
:10031000309719F05C968C91FACF0895CF92DF92C6
:10032000EF92FF920F931F9396E0899FF0011124A3
:10033000E259FD4F11A2278D30A12130310551F135
:1003400078F02230310509F451C02330310509F429
:1003500052C01F910F91FF90EF90DF90CF900895C2
:100360006623B9F361E070E00E946B012FB7F89447
:1003700080916A0290916B02A0916C02B0916D0223
:100380002FBF8093C6029093C702A093C802B09378
:10039000C902DFCF9FB7F894C0906A02D0906B0279
:1003A000E0906C02F0906D029FBF0091C602109128
:1003B000C7022091C8023091C902C01AD10AE20ACC
:1003C000F30A0091D8021091D90230E020E00C1518
:1003D0001D052E053F0550F462E070E01F910F915E
:1003E000FF90EF90DF90CF900C946B016111B1CF33
:1003F00063E070E0F3CF70E060E0F0CFAF92BF92C7
:10040000CF92DF92EF92FF920F931F93CF93DF93E0
:100410006C017B018B01040F151FEB015E01AE180F
:10042000BF08C017D10759F06991D601ED91FC9131
:100430000190F081E02DC6011995892B79F7C5014E
:10044000DF91CF911F910F91FF90EF90DF90CF90B0
:10045000BF90AF9008958150823108F05AC0E82FC4
:10046000F0E08827E95CFD4F8F4F0C946B08570232
:100470005B0249024F02530289025E026402680273
:100480006E02720276027C028002890284028A0273
:100490008E02809180008F778093800008958091F4
:1004A00080008F7DF9CF80918000877FF5CF84B564
:1004B0008F7784BD089584B58F7DFBCF8091B00088
:1004C0008F778093B00008958091B0008F7DF9CF31
:1004D000809190008F778093900008958091900094
:1004E0008F7DF9CF80919000877FF5CF8091A0001C
:1004F0008F778093A00008958091A0008F7DF9CF21
:100500008091A000877FF5CF809120018F77809325
:1005100020010895809120018F7DF9CF80912001E5
:10052000877FF5CFCF93DF93282F30E0F901EA5D85
:10053000FD4F8491F901E052FE4FD491F901E65646
:10054000FE4FC491CC23A1F081110E942B02EC2F0D
:10055000F0E0EE0FFF1FE058FE4FA591B491EC9133
:10056000ED2381E090E009F480E0DF91CF910895E0
:1005700080E090E0FACF862F0C9492021F93CF93E5
:10058000DF93282F30E0F901EA5DFD4F8491F901F6
:10059000E052FE4FD491F901E656FE4FC491CC23B0
:1005A000A9F0162F81110E942B02EC2FF0E0EE0F24
:1005B000FF1FEA59FE4FA591B4918FB7F894EC91C3
:1005C000111108C0D095DE23DC938FBFDF91CF914E
:1005D0001F910895DE2BF8CF862F642F0C94BE0256
:1005E000CF93DF9390E0FC01E052FE4F24918656BA
:1005F0009E4FFC0184918823C9F090E0880F991FD9
:10060000FC01E45BFE4FA591B491FC01EA59FE4F59
:10061000C591D49161110DC09FB7F8948C9120952C
:1006200082238C938881282328839FBFDF91CF91D9
:100630000895623051F49FB7F8943C91822F8095D1
:1006400083238C93E8812E2BEFCF8FB7F894EC9116
:100650002E2B2C938FBFEACF862F642F0C94F002A1
:100660003FB7F89480915D0290915E02A0915F0285
:10067000B091600226B5A89B05C02F3F19F00196E6
:10068000A11DB11D3FBFBA2FA92F982F8827BC01EC
:10069000CD01620F711D811D911D42E0660F771F14
:1006A000881F991F4A95D1F70895089590E080E03A
:1006B0000895CF93DF93EC0160E08E810E94BE022B
:1006C00061E08E810E94BE0260E08E810E94BE02C7
:1006D0008BE891E00197F1F7DF91CF910895CF92E8
:1006E000DF92EF92FF920F931F93CF93DF936C01F2
:1006F0007C0187E0E80EF11CD0E0C0E0062F10E09E
:10070000B8010C2E02C0759567950A94E2F76170E6
:10071000F70181917F010E94BE022196C430D1056C
:1007200079F7C601DF91CF911F910F91FF90EF9064
:10073000DF90CF900C945903CF92DF92EF92FF920B
:100740000F931F93CF93DF93EC01F62E642F8C81D0
:100750000E94BE028D818F3F19F060E00E94BE02B0
:100760000F2D10E08F8584FF25C06E0187E0C80E35
:10077000D11CF12CE12CB8010E2C02C075956795A7
:100780000A94E2F76170F60181916F010E94BE0246
:10079000FFEFEF1AFF0A88E0E816F10461F7CE01D7
:1007A000DF91CF911F910F91FF90EF90DF90CF904D
:1007B0000C945903B80184E0759567958A95E1F723
:1007C000CE010E946F036F2DCE01DF91CF911F915B
:1007D0000F91FF90EF90DF90CF900C946F0340E06B
:1007E000682F8DED92E00C949C0381E00E94EF0352
:1007F0008BE39FE10197F1F70895CF93DF93823068
:1008000029F49091EC0298609093EC028093F002AE
:100810001092F10280E48093F20280E18093F3026F
:1008200080E58093F40261E08091E1020E94F00291
:100830008091E2028F3F19F061E00E94F00261E0D6
:100840008091E3020E94F002CDEDD2E09E012D5D89
:1008500032408091EC0284FD0BC084E090E0219650
:100860002817390744F461E08E810E94F002EECF30
:1008700088E090E0F4CF8BE39DE00197F1F760E032
:100880008091E1020E94BE0260E08091E3020E943A
:10089000BE028091E2028F3F19F060E00E94BE022A
:1008A0008091EC0284FD34C063E08DED92E00E9403
:1008B0006F03CBE4D6E4CE010197F1F763E08DED51
:1008C00092E00E946F032197F1F763E08DED92E0D3
:1008D0000E946F0383E592E00197F1F762E08DEDEE
:1008E00092E00E946F038091EC0280620E94EF030D
:1008F00084E08093ED028CE00E94EF030E94F503F8
:1009000082E08093EE0286E0DF91CF910C94EF03BA
:1009100080620E94EF038BE496E40197F1F78091E7
:10092000EC0280620E94EF0383E592E00197F1F709
:100930008091EC0280620E94EF03D5CF41E00E94DB
:100940009C0381E090E008950F931F93CF93DF9372
:10095000EC0188819981009759F02A813B81261703
:10096000370730F081E0DF91CF911F910F9108950B
:100970008B016F5F7F4F0E949809009759F0998310
:1009800088831B830A832C813D81232B59F7FC012B
:100990001082E8CF80E0E7CFEF92FF920F931F9392
:1009A000CF93DF93EC017B018A01BA010E94A4047A
:1009B00028813981811114C02115310519F0C9012F
:1009C0000E940F09198218821D821C821B821A82C2
:1009D000CE01DF91CF911F910F91FF90EF9008957D
:1009E0001D830C83B701C9010E948B0AF1CF1F92AE
:1009F0000F920FB60F9211242F933F938F939F93D3
:100A0000AF93BF9380916A0290916B02A0916C02A8
:100A1000B0916D0230915C0223E0230F2D3758F521
:100A20000196A11DB11D20935C0280936A029093F0
:100A30006B02A0936C02B0936D0280915D02909165
:100A40005E02A0915F02B09160020196A11DB11DEE
:100A500080935D0290935E02A0935F02B093600268
:100A6000BF91AF919F918F913F912F910F900FBEAA
:100A70000F901F90189526E8230F0296A11DB11D17
:100A8000D2CFCF93DF9300D000D0CDB7DEB778942C
:100A900084B5826084BD84B5816084BD85B5826083
:100AA00085BD85B5816085BD80916E008160809334
:100AB0006E0010928100809181008260809381009D
:100AC00080918100816080938100809180008160AD
:100AD000809380008091B10084608093B100809108
:100AE000B00081608093B00080919100826080931B
:100AF000910080919100816080939100809190009D
:100B00008160809390008091A10082608093A10019
:100B10008091A10081608093A1008091A0008160FC
:100B20008093A000809121018260809321018091B7
:100B30002101816080932101809120018160809357
:100B4000200180917A00846080937A0080917A00FD
:100B5000826080937A0080917A00816080937A002D
:100B600080917A00806880937A001092C10082E0C0
:100B70000E94FD030E94F503412C512C3201439445
:100B800021E02093DA028FB7F89440916A025091E5
:100B90006B0260916C0270916D028FBF8091CA02EE
:100BA0009091CB02A091CC02B091CD02481B590B81
:100BB0006A0B7B0B8091D6029091D702B0E0A0E047
:100BC00084179507A607B70708F01EC110E08091AB
:100BD000D402181760F4E091D002F091D102E10F35
:100BE000F11D62E080810E94F0021F5FF0CF312C86
:100BF0008091D502381608F061C0E32CF12CE09109
:100C0000D202F091D302EE0DFF1D61E080810E94BF
:100C1000F002E091D202F091D302EE0DFF1D60E0F0
:100C200080810E94BE02D301C201032C04C0880F40
:100C3000991FAA1FBB1F0A94D2F74C016C01C094E4
:100C4000D094212C8091D402281608F5022D10E0B2
:100C5000E091D002F091D102E00FF11F80810E945B
:100C600092020C5F1F4F000F111FF801E259FD4F58
:100C7000892B41F4808191818829992991838083EE
:100C80002394E0CF808191818C219D21F7CFE09149
:100C9000D202F091D302EE0DFF1D61E080810E942F
:100CA000BE028091D2029091D302E80EF91E60E05C
:100CB000F70180810E94F00233949ACF0EE612E091
:100CC0007801F701878D90A1892B31F4148E8FEF75
:100CD0009FEF968F858F11A296E0E90EF11CEAEA4C
:100CE000F2E0EE15FF0569F7D12C8091D402D816F9
:100CF00008F053C0C12C8D2C912C880C991CC40178
:100D00008A589D4F4C012091D502C21608F043C06D
:100D1000F401608171810C2C02C0769567950A946C
:100D2000E2F7D29E900111242C0D311DEEE6F2E087
:100D300080E0458D568D2417350709F437C18F5F44
:100D400036968A30B1F760FF24C0EEE6F2E090E01C
:100D500080E0448D411118C0E091CE02F091CF02A5
:100D6000E20FF31F408156E0589FF001599FF00DAC
:100D70001124E259FD4F448F368F258F10A2178E14
:100D800061E00E948E0105C0019636968A30910579
:100D900001F7C394B8CFD394A8CF80E0F80191A114
:100DA0009111892F0A5F1F4F0E151F05B9F79FB7C5
:100DB000F89440916A0250916B0260916C027091BC
:100DC0006D029FBF4093CA025093CB026093CC0246
:100DD0007093CD028823C1F080918F028823A1F007
:100DE00080918D0290918E02019771F410918A0288
:100DF0001093690211110DC080E090E0892B09F475
:100E0000BFCE0E940000BCCE1092DA02109269029E
:100E1000F3CF1D3309F087C0109268021092670269
:100E20000E94F5031A8219821C821B821E821D8277
:100E300047E050E064E372E0CE0101960E94CC04EA
:100E40008091610290916202E980FA80009721F01E
:100E5000E114F10409F05FC0E114F10409F44FC09A
:100E60002D813E81232B09F44AC0F701008110E057
:100E7000119501951109E114F10419F0C7010E94BF
:100E80000F0940E150E06CE372E0012B21F04EE0ED
:100E900050E06DE472E08DED92E00E94FE010E9450
:100EA00030034B015C0184EFC82EDD24D394E12C88
:100EB000F12C0E943003681979098A099B09683E60
:100EC000734081059105A8F3F1E0CF1AD108E1083C
:100ED000F10828EE820E23E0921EA11CB11CC11461
:100EE000D104E104F10429F70E94F50350E040E049
:100EF0006BE372E081E692E00E94CC047DCF009724
:100F000079F02091650230916602232B49F0FC01B3
:100F1000008110E0B0CFB7010E94820A8C01ABCFF4
:100F200010E000E0A8CF80916702909168020196DE
:100F30009093680280936702409764F0E091F0021A
:100F4000E23090F5E150F0E0E352FD4F8489806893
:100F50000E94EF0341E0612F8DED92E00E949C031F
:100F600019831A8200916502109166020F5F1F4F6C
:100F7000B80181E692E00E94A404882309F43CCFE2
:100F80002091610230916202809165029091660227
:100F9000BE016F5F7F4F820F931F0E948B0A1093D9
:100FA00066020093650228CFE1E0CDCF6170E9CE03
:100FB0001092E0021092DF028CE292E09093DE0247
:100FC0008093DD028DE08093E1028FEF8093E20257
:100FD0008CE08093E30288E08093E40289E08093D0
:100FE000E5028AE08093E6028BE08093E7021092AC
:100FF000E8021092E9021092EA021092EB021092BB
:10100000EC0281E00E94FD031092700210927402C3
:10101000109273021092750282E292E090936F0236
:1010200080936E02EAE8F2E0108214821382158245
:10103000369682E0E63CF807B9F784E092E09093B8
:10104000D1028093D00280E092E09093D30280930B
:10105000D20284E08093D4028093D50288E092E0AB
:101060009093CF028093CE028AE090E09093D702D3
:101070008093D60284EF91E09093D9028093D802B6
:101080001092DC021092DB021092CA021092CB0284
:101090001092CC021092CD021092DA0210926202EB
:1010A0001092610210926402109263021092660222
:1010B0001092650250E040E06BE372E081E692E05E
:1010C0000C94CC048091610290916202009711F01F
:1010D0000C940F090895EE0FFF1F881F8BBF079018
:1010E000F691E02D19940F931F93CF93DF938230E5
:1010F000910510F482E090E0E091F702F091F8029F
:1011000030E020E0B0E0A0E0309799F421153105FF
:1011100009F44AC0281B390B24303105D8F58A81DF
:101120009B816115710589F1FB0193838283FE0127
:1011300011C0408151810281138148175907E0F0A5
:101140004817590799F4109761F012960C9312976B
:1011500013961C933296CF01DF91CF911F910F917F
:1011600008950093F7021093F802F4CF211531058A
:1011700051F04217530738F0A901DB019A01BD0174
:10118000DF01F801C1CFEF01F9CF9093F80280930E
:10119000F702CDCFFE01E20FF31F8193919322500E
:1011A000310939832883D7CF2091F5023091F60297
:1011B000232B41F420911A0230911B023093F60246
:1011C0002093F50220911802309119022115310562
:1011D00041F42DB73EB740911C0250911D02241BD3
:1011E000350BE091F502F091F602E217F307A0F457
:1011F0002E1B3F0B2817390778F0AC014E5F5F4F6D
:101200002417350748F04E0F5F1F5093F6024093A6
:10121000F502819391939FCFF0E0E0E09CCFCF93D4
:10122000DF930097E9F0FC01329713821282A091BC
:10123000F702B091F802ED0130E020E01097A1F440
:1012400020813181820F931F2091F5023091F602A7
:101250002817390709F061C0F093F602E093F50210
:10126000DF91CF910895EA01CE17DF07E8F54A81B3
:101270005B819E0141155105B1F7E901FB83EA83CA
:1012800049915991C40FD51FEC17FD0761F4808176
:1012900091810296840F951FE90199838883828149
:1012A00093819B838A83F0E0E0E012968D919C917C
:1012B00013970097B9F52D913C911197CD010296A6
:1012C000820F931F2091F5023091F60228173907FB
:1012D00039F6309751F51092F8021092F702B09358
:1012E000F602A093F502BCCFD383C2834081518123
:1012F000840F951FC817D90761F44E5F5F4F88812F
:101300009981480F591F518340838A819B81938320
:1013100082832115310509F0B0CFF093F802E093F4
:10132000F7029ECFFD01DC01C0CF13821282D7CF1E
:101330004F925F926F927F928F929F92AF92BF92E5
:10134000CF92DF92EF92FF920F931F93CF93DF9391
:101350008C01009799F4CB01DF91CF911F910F91F0
:10136000FF90EF90DF90CF90BF90AF909F908F90C5
:101370007F906F905F904F900C947308FC01E60F84
:10138000F71F9C0122503109E217F30708F4AEC0A1
:10139000D901CD91DC911197C617D70720F1C5303F
:1013A000D10578F0CE0104978617970750F0C61B39
:1013B000D70B2297C193D1936D937C93CF010E9459
:1013C0000F09C801DF91CF911F910F91FF90EF900E
:1013D000DF90CF90BF90AF909F908F907F906F9055
:1013E0005F904F9008955B01AC1ABD0A4C018C0EC2
:1013F0009D1EA091F702B091F802512C412CF12CC6
:10140000E12C109731F58091F5029091F602881544
:10141000990509F05CC04616570608F058C080913F
:10142000180290911902009741F48DB79EB7409130
:101430001C0250911D02841B950BE817F90708F058
:1014400055C0F093F602E093F502F90171836083D1
:10145000B8CF8D919C91119712966C90129713961C
:101460007C901397A815B90559F56C0142E0C40E9C
:10147000D11CCA14DB0420F1AC014A195B09DA0162
:101480001296159780F06282738251834083D9014E
:101490006D937C93E114F10471F0D7011396FC93E2
:1014A000EE9312978ECF22968C0F9D1FF901918398
:1014B0008083F301EFCFF093F802E093F70281CF3E
:1014C0004816590608F42C017D01D3019ACFCB01AF
:1014D0000E9473087C01009749F0AE01B8010E9498
:1014E000790AC8010E940F0987016BCF10E000E064
:1014F00068CFFB01DC0102C001900D9241505040C9
:10150000D8F70895FB01DC018D910190801901103D
:10151000D9F3990B0895FB01DC0101900D92002095
:10152000E1F7089511E0C7E3D1E000E006C0802FA5
:10153000FE010E946B082196011DC833D10780E08F
:081540000807A9F7F894FFCF9A
:101548001A1B1C1D161718193738392F3435362A27
:101558003132332D43303D2B0000F902800000006A
:1015680000002C03EC02BB02000000009E04FE01F8
:10157800560355033937333330323000436F7272B4
:1015880065637420506173736F7772640057726F6C
:0C1598006E6720506173736F77726400FF
:00000001FF
