:020000040040BA
:1000000000040020C1004000C9004000CB004000B7
:10001000CD004000CF004000D100400000000000B3
:10002000000000000000000000000000D3004000BD
:10003000D500400000000000D7004000D90040007B
:10004000DB004000DB004000DB004000DB00400044
:10005000DB004000DB004000DB004000000000004F
:10006000DB004000DB00400000000000DB0040003F
:10007000DB004000DB004000DB004000DB00400014
:10008000000000000000000000000000DB00400055
:10009000DB004000DB00400000000000DB0040000F
:1000A000DB004000DB004000DB004000DB004000E4
:1000B000DB004000DB004000DB004000DB004000D4
:1000C0000948804709480047FEE7FEE7FEE7FEE7EC
:1000D000FEE7FEE7FEE7FEE7FEE7FEE70448054928
:1000E000054A064B70470000090140008D014000A1
:1000F0000000002000040020000200200002002078
:10010000704770477047000040F26840C4F20E002C
:100110004FF4007244F20031C0F8982540F2011209
:10012000C5F24D01C0F23712C16740F8482C00BF3C
:100130000268D207FCD048F20162C2F20F0240F816
:10014000402C00BF02689207FCD550F8382C0223DF
:1001500063F3061240F8382C02681207FCD52222FD
:1001600040F8382C02681207FCD5002240F8682CB1
:100170004FF4E052013140F8582CC16741F254402D
:10018000C4F20E004FF40041016070474FF00106C9
:100190004FF000074FF000084FF000094FF040010A
:1001A00000F0BFF8654D2C6804EA0604012CF9D173
:1001B0004FF00000624DFFE74FF40073002F05D1B0
:1001C0004FF07E0444EA03042C6044E0012F05D183
:1001D0004FF00C0444EA03042C603CE0022F05D1EC
:1001E0004FF0B60444EA03042C6034E0032F05D139
:1001F0004FF09E0444EA03042C602CE0042F03D14A
:100200004FF0CC042C6026E0052F05D14FF0DA0426
:1002100044EA03042C601EE0062F05D14FF0FA04D7
:1002200044EA03042C6016E0072F05D14FF00E04BA
:1002300044EA03042C600EE0082F05D14FF0FE04C1
:1002400044EA03042C6006E0092F4FF0DE0444EA80
:1002500003042C60FFE74FF48073B8F1000F05D161
:100260004FF07E0444EA03042C604DE0B8F1010F26
:1002700003D14FF00C042C6046E0B8F1020F05D119
:100280004FF0B60444EA03042C603DE0B8F1030FDC
:1002900005D14FF09E0444EA03042C6034E0B8F129
:1002A000040F05D14FF0CC0444EA03042C602BE08A
:1002B000B8F1050F05D14FF0DA0444EA03042C60CD
:1002C00022E0B8F1060F05D14FF0FA0444EA030426
:1002D0002C6019E0B8F1070F05D14FF00E0444EA85
:1002E00003042C6010E0B8F1080F05D14FF0FE04B4
:1002F00044EA03042C6007E0B8F1090F4FF0DE0474
:1003000044EA03042C60FFE700F1010081427FF41E
:1003100053AF07F101070A2F04BF08F101080027B6
:1003200040E740F2FE34074D2C60074D2C60074D2E
:100330002C604FF00104064D2C6070473C0E0E40BF
:10034000380E0E40000E0E40100E0E40A00E0E4055
:04035000240E0E4029
:040000050040018D29
:00000001FF
