:100000000C9422010C9453010C9453010C94530151
:100010000C9453010C9453010C9453010C94530110
:100020000C9453010C9453010C9453010C94530100
:100030000C9453010C9453010C9453010C945301F0
:100040000C9453010C9453010C9453010C945301E0
:100050000C9453010C9453010C9453010C9496038B
:100060000C94E0030C9453010C9453010C94530131
:100070000C9453010C9453010C9453010C945301B0
:100080000C9453010C9453010C9453010C945301A0
:100090000C9453010C9453010C9453010C94530190
:1000A0000C9453010C9453010C9453010C94530180
:1000B0000C9453010C9453010C9453010C94530170
:1000C0000C9453010C9453010C9453010C94530160
:1000D0000C9453010C9453010C9453010C94530150
:1000E0000C9453010C94F0010C94FA010C945501FA
:1000F0000C94E2010C9408020C94CD010C94E801DC
:100100000C94B2010C9490030C944A020C94D40405
:100110000C94D5010C94C9010C94DE010C94F601E9
:100120000C94FE010C944B020C94EC010C94B7015E
:100130000C94D1010C94D8010C940402000021000D
:10014000240027002A002D003000330001010000A8
:10015000040107010A0100002200250028002B00ED
:100160002E003100340002010000050108010B01DE
:1001700005050505070508080808020202020A0A23
:100180000808040404040101010101010101030341
:10019000030303030303040707070C0C0C0C0C0CEC
:1001A0000C0C0202020206060606060606060B0BE9
:1001B0000B0B0B0B0B0B010210202008081020402A
:1001C000102040800201020108040201010204081B
:1001D00010204080804020100804020180040201A9
:1001E00080402010080402010804020101020408F2
:1001F00010204080010204081020408000000A0BFB
:1002000002090C0D0E0807030401000000000000A5
:1002100000000000000000000000000000000000DE
:10022000000000000000000012111000000000009B
:1002300000000000000000000000000000000000BE
:100240000000D40411241FBECFEFD1E2DEBFCDBF2A
:1002500000E00CBF12E0A0E0B2E0E8EFF9E000E05F
:100260000BBF02C007900D92AC30B107D9F722E066
:10027000ACE0B2E001C01D92A134B207E1F711E099
:10028000C2E2D1E000E006C021970109802FFE0103
:100290000E94F204C132D10780E00807A9F70E944A
:1002A00007040C94FA040C940000AF92BF92CF9212
:1002B000DF92EF92FF920F931F93CF93DF936C0126
:1002C0007B018B01040F151FEB015E01AE18BF0807
:1002D000C017D10759F06991D601ED91FC910190B9
:1002E000F081E02DC6011995892B79F7C501DF91C1
:1002F000CF911F910F91FF90EF90DF90CF90BF9023
:10030000AF900895282F30E0F901E450FE4F94910A
:10031000F901EA54FE4F449120593E4FF9012491CE
:10032000222309F435C0992311F191509231F8F448
:10033000E92FF0E08827E056FE4F8F4F0C94F2042F
:10034000D101D501B201C901CD01B701D801DE014A
:10035000E201E801EC01F001F601FA01B701FE014A
:1003600004020802809180008F7780938000E22F42
:10037000F0E0EE0FFF1FEA5AFE4FA591B4918FB740
:10038000F894EC91611148C040954E234C938FBF77
:100390000895809180008F7DE8CF80918000877FD5
:1003A000E4CF84B58F7784BDE2CF84B58F7DFBCF5A
:1003B0008091B0008F778093B000D9CF8091B0004A
:1003C0008F7DF9CF809190008F7780939000CFCF71
:1003D000809190008F7DF9CF80919000877FF5CF3D
:1003E0008091A0008F778093A000C1CF8091A00062
:1003F0008F7DF9CF8091A000877FF5CF809120017C
:100400008F7780932001B3CF809120018F7DF9CF2A
:1004100080912001877FF5CF4E2BB8CFCF93DF930C
:1004200090E0FC01EA54FE4F249180599E4FFC015C
:1004300084918823C9F090E0880F991FFC01E45C47
:10044000FE4FA591B491FC01EA5AFE4FC591D4919B
:1004500061110DC09FB7F8948C91209582238C93E5
:100460008881282328839FBFDF91CF910895623030
:1004700051F49FB7F8943C91822F809583238C93FD
:10048000E8812E2BEFCF8FB7F894EC912E2B2C9385
:100490008FBFEACF089590E080E00895CF93DF9377
:1004A000EC0160E08E810E94820161E08E810E94F9
:1004B000820160E08E810E9482018BE891E00197C9
:1004C000F1F7DF91CF910895CF92DF92EF92FF92F3
:1004D0000F931F93CF93DF936C017C0187E0E80EAD
:1004E000F11CD0E0C0E0062F10E0B8010C2E02C0D5
:1004F000759567950A94E2F76170F70181917F0124
:100500000E9482012196C430D10579F7C601DF919E
:10051000CF911F910F91FF90EF90DF90CF900C94AF
:100520004E02CF92DF92EF92FF920F931F93CF93E1
:10053000DF93EC01F62E642F8C810E9482018D8165
:100540008F3F19F060E00E9482010F2D10E08F852F
:1005500084FF25C06E0187E0C80ED11CF12CE12C70
:10056000B8010E2C02C0759567950A94E2F7617088
:10057000F60181916F010E948201FFEFEF1AFF0ADD
:1005800088E0E816F10461F7CE01DF91CF911F9169
:100590000F91FF90EF90DF90CF900C944E02B80136
:1005A00084E0759567958A95E1F7CE010E94640213
:1005B0006F2DCE01DF91CF911F910F91FF90EF90A2
:1005C000DF90CF900C94640240E0682F89E292E0C3
:1005D0000C949102CF93DF93823029F490913802EA
:1005E00098609093380280933C0210923D0280E420
:1005F00080933E0280E180933F0280E58093400239
:1006000061E080912D020E940E0280912E028F3FA8
:1006100019F061E00E940E0261E080912F020E94B9
:100620000E02C9E2D2E09E01295232408091380286
:1006300084FD0BC084E090E021962817390744F42C
:1006400061E08E810E940E02EECF88E090E0F4CF50
:100650008BE39DE00197F1F760E080912D020E940D
:10066000820160E080912F020E94820180912E021F
:100670008F3F19F060E00E9482018091380284FD72
:1006800039C063E089E292E00E946402CBE4D6E4E0
:10069000CE010197F1F763E089E292E00E946402E3
:1006A0002197F1F763E089E292E00E94640283E51A
:1006B00092E00197F1F762E089E292E00E94640221
:1006C0008091380280620E94E40284E080933902C3
:1006D0008CE00E94E40281E00E94E4028BE39FE14F
:1006E0000197F1F782E080933A0286E0DF91CF91A3
:1006F0000C94E40280620E94E4028BE496E4019789
:10070000F1F78091380280620E94E40283E592E072
:100710000197F1F78091380280620E94E402D0CF05
:1007200041E00E94910281E090E008951F920F92B3
:100730000FB60F9211242F933F938F939F93AF93F4
:10074000BF938091110290911202A0911302B09177
:1007500014023091100223E0230F2D3758F5019633
:10076000A11DB11D209310028093110290931202DB
:10077000A0931302B093140280910C0290910D0289
:10078000A0910E02B0910F020196A11DB11D8093A0
:100790000C0290930D02A0930E02B0930F02BF9132
:1007A000AF919F918F913F912F910F900FBE0F901E
:1007B0001F90189526E8230F0296A11DB11DD2CFD8
:1007C0001F920F920FB60F9211240BB60F928F93B8
:1007D0009F93EF93FF93E0912702F09128028EB54B
:1007E000EB5EFD4F80838091270290912802019655
:1007F0009093280280932702FF91EF919F918F9110
:100800000F900BBE0F900FBE0F901F90189578940D
:1008100084B5826084BD84B5816084BD85B5826005
:1008200085BD85B5816085BD80916E0081608093B6
:100830006E0010928100809181008260809381001F
:10084000809181008160809381008091800081602F
:10085000809380008091B10084608093B10080918A
:10086000B00081608093B00080919100826080939D
:10087000910080919100816080939100809190001F
:100880008160809390008091A10082608093A1009C
:100890008091A10081608093A1008091A00081607F
:1008A0008093A0008091210182608093210180913A
:1008B00021018160809321018091200181608093DA
:1008C000200180917A00846080937A0080917A0080
:1008D000826080937A0080917A00816080937A00B0
:1008E00080917A00806880937A001092C10062E063
:1008F00085E30E940E0261E083E30E940E0260E045
:1009000084E30E940E028CB580648CBD8CB5806837
:100910008CBD82E00E94EA0295E2E92E92E0F92E77
:1009200000E010E0CC24C394D12C80912702909158
:100930002802409771F5C0912502D0912602EC2F34
:10094000C43008F0E3E080913C02E81710F0EFEFCC
:10095000E80FF0E0E75DFD4F848980680E94E402C3
:1009600085E1A82E82E0B82EF50161915F0141E09A
:1009700089E292E00E949102EA14FB04A9F7CD2BD0
:1009800071F4D0922602C092250210922802109291
:1009900027020115110549F20E940000C6CF1092EE
:1009A000260210922502F1CFE9E2F2E013821282D0
:1009B00084E092E0918380838BE184838FEF858351
:1009C0008AE1868386E1878387E1808788E1818762
:1009D00089E182871386148615861686178681E03C
:1009E0000C94EA02EE0FFF1F881F8BBF0790F69151
:0809F000E02D1994F894FFCFEB
:0C09F80000000000900355014B024A0271
:00000001FF
