:100000000C9417010C9438010C9438010C943801AD
:100010000C9438010C9438010C9438010C9438017C
:100020000C9438010C9438010C9438010C9438016C
:100030000C9438010C9438010C9438010C9438015C
:100040000C9438010C9438010C9438010C9438014C
:100050000C9438010C9438010C9438010C943F0234
:100060000C9438010C9438010C9438010C9438012C
:100070000C9438010C9438010C9438010C9438011C
:100080000C9438010C9438010C9438010C9438010C
:100090000C9438010C9438010C9438010C943801FC
:1000A0000C9438010C9438010C9438010C943801EC
:1000B0000C9438010C9438010C9438010C943801DC
:1000C0000C9438010C9438010C9438010C943801CC
:1000D0000C9438010C9438010C9438010C943801BC
:1000E0000C9438010C94A4010C94C7010C94A80141
:1000F0000C94AF010C94DF010C94B5010C948E01AB
:100100000C94D5010C94DB010C9489010C94AC0186
:100110000C94CD010C94B9010C94BF010C94C30153
:100120000C94A0010C94D10100000A0B02090C0DE3
:100130000E0807030401000000000000000000009A
:1001400000000000000000000000000000000000AF
:10015000000000001211100000000000000000006C
:10016000000000000000000000000000000000008F
:100170002200250028002B002E003100340002014F
:100180000000050108010B010000210024002700E8
:100190002A002D0030003300010100000401070196
:1001A0000A010505050507050808080802020202FC
:1001B0000A0A080804040404010101010101010103
:1001C0000303030303030303040707070C0C0C0CCE
:1001D0000C0C0C0C020202020606060606060606B7
:1001E0000B0B0B0B0B0B0B0B010210202008081044
:1001F0002040102040800201020108040201010297
:10020000040810204080804020100804020180046F
:1002100002018040201008040201080402010102CA
:10022000040810204080010204081020408011249E
:100230001FBECFEFD1E2DEBFCDBF00E00CBF12E0AA
:10024000A0E0B2E0E8EDF6E000E00BBF02C00790EE
:100250000D92A232B107D9F722E0A2E2B2E001C0CA
:100260001D92AC32B207E1F70E9489020C946A0336
:100270000C94000090E0FC01E851FE4F24918E5553
:100280009E4FFC018491882399F090E0880F991F7C
:10029000FC01E857FE4FA591B491FC01E259FE4FD5
:1002A000859194918FB7F894EC91E22BEC938FBFEA
:1002B0000895282F30E0F901E85DFE4F9491F9018F
:1002C000E851FE4F44912E553E4FF90124912223CF
:1002D00009F435C0992311F191509231F8F4E92FC6
:1002E000F0E08827E958FE4F8F4F0C946203A80175
:1002F000AC018901A001A4018E01AF01B501B901D2
:10030000BF01C301C701CD01D1018E01D501DB01C0
:10031000DF01809180008F7780938000E22FF0E0F2
:10032000EE0FFF1FE259FE4FA591B4918FB7F894DD
:10033000EC91611148C040954E234C938FBF0895B6
:10034000809180008F7DE8CF80918000877FE4CF0F
:1003500084B58F7784BDE2CF84B58F7DFBCF80914C
:10036000B0008F778093B000D9CF8091B0008F7D9F
:10037000F9CF809190008F7780939000CFCF8091BC
:1003800090008F7DF9CF80919000877FF5CF80918D
:10039000A0008F778093A000C1CF8091A0008F7DB7
:1003A000F9CF8091A000877FF5CF809120018F77D2
:1003B00080932001B3CF809120018F7DF9CF809170
:1003C0002001877FF5CF4E2BB8CF3FB7F8948091AF
:1003D000270290912802A0912902B0912A0226B505
:1003E000A89B05C02F3F19F00196A11DB11D3FBF6D
:1003F000BA2FA92F982F8827BC01CD01620F711D3C
:10040000811D911D42E0660F771F881F991F4A9535
:10041000D1F708958F929F92AF92BF92CF92DF92C1
:10042000EF92FF920E94E5014B015C0184E6C82E29
:10043000D12CE12CF12C0E94E501681979098A0977
:100440009B09683E734081059105A8F321E0C21A1B
:10045000D108E108F10888EE880E83E0981EA11CFF
:10046000B11CC114D104E104F10429F7FF90EF900D
:10047000DF90CF90BF90AF909F908F9008951F9284
:100480000F920FB60F9211242F933F938F939F9348
:10049000AF93BF938091230290912402A0912502F3
:1004A000B09126023091220223E0230F2D3758F518
:1004B0000196A11DB11D20932202809323029093E7
:1004C0002402A0932502B0932602809127029091E6
:1004D0002802A0912902B0912A020196A11DB11D06
:1004E0008093270290932802A0932902B0932A02B6
:1004F000BF91AF919F918F913F912F910F900FBE20
:100500000F901F90189526E8230F0296A11DB11D8C
:10051000D2CF789484B5826084BD84B5816084BD77
:1005200085B5826085BD85B5816085BD80916E0091
:10053000816080936E0010928100809181008260C2
:1005400080938100809181008160809381008091FF
:1005500080008160809380008091B10084608093EE
:10056000B1008091B00081608093B00080919100D3
:1005700082608093910080919100816080939100CE
:10058000809190008160809390008091A1008260B2
:100590008093A1008091A10081608093A10080914F
:1005A000A00081608093A0008091210182608093EF
:1005B000210180912101816080932101809120019E
:1005C00081608093200180917A00846080937A001A
:1005D00080917A00826080937A0080917A008160B5
:1005E00080937A0080917A00806880937A001092DC
:1005F000C100CFB7F89480912B02811124C0E7EDA0
:10060000F1E08491EDE1F2E09491E82FF0E0EE0F5B
:10061000FF1FE857FE4FA591B491EC91E92321F417
:1006200061E085E30E94590185E30E943A018CB59F
:1006300080618CBD8CB580648CBD84E30E943A01DE
:1006400083E30E943A0180912B028F5F80932B02FB
:10065000CFBF8CB583608CBD8DB58E7F8DBD80E3A3
:100660000E943A0181E30E943A0160E080E30E9427
:10067000590161E081E30E945901C0E0D0E0E1E16D
:10068000F2E081918EBD00000DB407FEFDCF8EB566
:1006900082E0E132F807A9F70E940A02E0E0F2E006
:1006A00081918EBD00000DB407FEFDCF8EB582E0B6
:1006B000E031F807A9F70E940A02209701F30E948F
:1006C0000000DDCFEE0FFF1F881F8BBF0790F69154
:0806D000E02D1994F894FFCF0E
:1006D8004D6F68616D6D61642020202020202020EE
:1006E800003937333330323020202020202020209A
:0206F8002000E0
:00000001FF
