:100000000C943C010C946D010C946D010C946D01E9
:100010000C946D010C946D010C946D010C946D01A8
:100020000C946D010C946D010C946D010C946D0198
:100030000C946D010C942C080C946D010C946D01C2
:100040000C946D010C946D010C946D010C946D0178
:100050000C946D010C946D010C946D010C942B09A2
:100060000C946D010C94F5080C94CB080C946D0164
:100070000C946D010C946D010C946D010C946D0148
:100080000C946D010C946D010C946D010C946D0138
:100090000C946D010C946D010C946D010C946D0128
:1000A0000C946D010C946D010C946D010C946D0118
:1000B0000C946D010C946D010C946D010C946D0108
:1000C0000C946D010C946D010C946D010C946D01F8
:1000D0000C946D010C946D010C946D010C946D01E8
:1000E0000C946D010C9476020C94AA030C947F037B
:1000F0000C949D030C940D040C94AE020C946802B5
:100100000C9445020C9485030C9418020C947C0307
:100110000C94A1030C94FB020C9454020C947403F1
:100120000C9478030C9489030C946A030C9487074D
:100130000C9497030C94AB030C94A5030C949303B9
:100140000C94DC030C9475090C948F030C94AF038E
:100150000C94700300002100240027002A002D00C9
:100160003000330001010000040107010A01000012
:1001700020002300260029002C002F00320000015F
:10018000000003010601090100000A0B02090C0D21
:100190000E0807030401000000000000000000003A
:1001A000000000000000000000000000000000004F
:1001B000000000001211100000000000000000000C
:1001C000000000000000000000000000000001022C
:1001D0001020200808102040102040800201020159
:1001E0000804020101020408102040808040201011
:1001F000080402018004020180402010080402016A
:1002000008040201010204081020408001020408D1
:100210001020408000002200250028002B002E0026
:100220003100340002010000050108010B01050541
:100230000505070508080808020202020A0A08085C
:10024000040404040101010101010101030303038A
:1002500003030303040707070C0C0C0C0C0C0C0C19
:100260000202020206060606060606060B0B0B0B2A
:100270000B0B0B0B0200750911241FBECFEFD1E24F
:10028000DEBFCDBF00E00CBF15E0A0E0B2E0E2E9C8
:10029000F9E100E00BBF02C007900D92A236B10752
:1002A000D9F726E0A2E6B5E001C01D92A739B20752
:1002B000E1F711E0CCE3D1E000E006C021970109AD
:1002C000802FFE010E94A40CCB33D10780E00807E9
:1002D000A9F70E94020A0C94C70C0C9400008091AC
:1002E0007B00877F80937B0080E480937C008091FB
:1002F0007A00806480937A0080917A0086FDFCCF3A
:100300008091780090917900089596E0899FD001BE
:100310001124A85DB94F90967C936E935F9791E0FE
:1003200091969C939197E0919506F0919606909105
:100330009406992339F0309751F0811108C08091CB
:1003400044061994309719F05C968C91FACF089571
:10035000CF92DF92EF92FF920F931F9396E0899FC7
:10036000F0011124E85DF94F11A2278D30A1213051
:10037000310551F178F02230310509F451C02330B4
:10038000310509F452C01F910F91FF90EF90DF905B
:10039000CF9008956623B9F361E070E00E94850173
:1003A0002FB7F8948091670590916805A091690531
:1003B000B0916A052FBF8093800690938106A09329
:1003C0008206B0938306DFCF9FB7F894C09067058D
:1003D000D0906805E0906905F0906A059FBF009194
:1003E0008006109181062091820630918306C01A02
:1003F000D10AE20AF30A009192061091930630E0C6
:1004000020E00C151D052E053F0550F462E070E05C
:100410001F910F91FF90EF90DF90CF900C9485018A
:100420006111B1CF63E070E0F3CF70E060E0F0CF36
:10043000AF92BF92CF92DF92EF92FF920F931F93F2
:10044000CF93DF936C017B018B01040F151FEB0130
:100450005E01AE18BF08C017D10759F06991D601E7
:10046000ED91FC910190F081E02DC6011995892B49
:1004700079F7C501DF91CF911F910F91FF90EF9018
:10048000DF90CF90BF90AF900895FC01538D448DC5
:10049000252F30E0842F90E0821B930B541710F02F
:1004A000CF96089501970895FC01918D828D98173C
:1004B00061F0A28DAE0FBF2FB11D5D968C91928D14
:1004C0009F5F9F73928F90E008958FEF9FEF089545
:1004D000FC01918D828D981731F0828DE80FF11D0E
:1004E000858D90E008958FEF9FEF0895FC01918D29
:1004F000228D892F90E0805C9F4F821B91098F7322
:10050000992708958BE895E00E94760221E0892BD7
:1005100009F420E0822F0895FC01A48DA80FB92FC3
:10052000B11DA35ABF4F2C91848D90E001968F731B
:100530009927848FA689B7892C93A089B1898C913A
:10054000837080648C93938D848D981306C0028889
:10055000F389E02D80818F7D80830895EF92FF9253
:100560000F931F93CF93DF93EC0181E0888F9B8DD6
:100570008C8D98131AC0E889F989808185FF15C090
:100580009FB7F894EE89FF896083E889F9898081B3
:100590008370806480839FBF81E090E0DF91CF9182
:1005A0001F910F91FF90EF900895F62E0B8D10E0A4
:1005B0000F5F1F4F0F731127E02E8C8D8E110CC013
:1005C0000FB607FCFACFE889F989808185FFF5CF5E
:1005D000CE010E948C02F1CFEB8DEC0FFD2FF11DAF
:1005E000E35AFF4FF0829FB7F8940B8FEA89FB899B
:1005F00080818062CFCFCF93DF93EC01888D8823F9
:10060000B9F0AA89BB89E889F9898C9185FD03C075
:10061000808186FD0DC00FB607FCF7CF8C9185FF5A
:10062000F2CF808185FFEDCFCE010E948C02E9CF11
:10063000DF91CF91089580E090E0892B29F00E940E
:10064000820281110E94000080E090E0892B49F035
:1006500080E090E0892B29F00E94000081110E9427
:10066000000080E090E0892B49F080E090E0892B49
:1006700029F00E94000081110E94000080E090E0BB
:10068000892B49F080E090E0892B29F00E9400003E
:1006900081110C94000008958150823108F05AC0F5
:1006A000E82FF0E08827E85AFC4F8F4F0C94A40CF9
:1006B00078037C036A0370037403AA037F03850332
:1006C00089038F03930397039D03A103AA03A50343
:1006D000AB03AF03809180008F77809380000895F3
:1006E000809180008F7DF9CF80918000877FF5CF4A
:1006F00084B58F7784BD089584B58F7DFBCF8091BD
:10070000B0008F778093B00008958091B0008F7D06
:10071000F9CF809190008F77809390000895809119
:1007200090008F7DF9CF80919000877FF5CF8091E9
:10073000A0008F778093A00008958091A0008F7D06
:10074000F9CF8091A000877FF5CF809120018F772E
:10075000809320010895809120018F7DF9CF8091B1
:100760002001877FF5CFCF93DF93282F30E0F90169
:10077000E857FE4F8491F901E253FE4FD491F901FD
:10078000E25DFD4FC491CC23A1F081110E944C0386
:10079000EC2FF0E0EE0FFF1FE259FE4FA591B49150
:1007A000EC91ED2381E090E009F480E0DF91CF91BE
:1007B000089580E090E0FACF862F0C94B3031F9346
:1007C000CF93DF93282F30E0F901E857FE4F849153
:1007D000F901E253FE4FD491F901E25DFD4FC4915E
:1007E000CC23A9F0162F81110E944C03EC2FF0E0CE
:1007F000EE0FFF1FEC5EFD4FA591B4918FB7F894FB
:10080000EC91111108C0D095DE23DC938FBFDF91EE
:10081000CF911F910895DE2BF8CF862F642F0C9473
:10082000DF03CF93DF9390E0FC01E253FE4F24916E
:10083000825D9D4FFC0184918823C9F090E0880F70
:10084000991FFC01EC5AFE4FA591B491FC01EC5E9E
:10085000FD4FC591D49161110DC09FB7F8948C9153
:10086000209582238C938881282328839FBFDF9142
:10087000CF910895623051F49FB7F8943C91822F44
:10088000809583238C93E8812E2BEFCF8FB7F8943C
:10089000EC912E2B2C938FBFEACF4F925F926F92E9
:1008A0007F928F929F92AF92BF92CF92DF92EF9200
:1008B000FF920F931F93CF93DF9300D01F921F924D
:1008C000CDB7DEB78C012A013B0180912C05883021
:1008D000C9F08F3F09F492C00F900F900F900F90C6
:1008E0000F90DF91CF911F910F91FF90EF90DF90CC
:1008F000CF90BF90AF909F908F907F906F905F90C0
:100900004F900895E4E7F2E084918D8387FDE4CF72
:1009100061E088E00E9411049D81992321F08D817E
:10092000823009F0D2C14801B12CA12C60E072E103
:100930008AE790E0A50198010E94350C29833A834B
:100940004B835C8369017A0191E0C91AD108E108FF
:10095000F1088FEFC816D104E104F10409F00CF49A
:1009600083C160E472E48FE090E0A50198010E94E9
:10097000350C69017A0191E0C91AD108E108F10842
:100980008D81823009F011C182E09FEFC916D10438
:10099000E104F10409F00CF460C160E970ED83E05A
:1009A00090E0A50198010E94350C69017A0181E06F
:1009B000C81AD108E108F10883E09FEFC916D104F5
:1009C000E104F10409F00CF448C168E478EE81E038
:1009D00090E0A50198010E94350C69017A0191E02F
:1009E000C91AD108E108F1088FEFC816D104E10453
:1009F000F10411F00CF019C184E02FC188E080935C
:100A00002C05E4E7F2E094919D83892F9F3F09F440
:100A100063CF923009F469C060F4992381F1913079
:100A200009F445C087FD58CF61E088E00E941104B9
:100A300076CF9D81943009F49AC008F478C095303F
:100A400089F7109220011092210180912101886084
:100A50008093210180912101816080932101E6E34F
:100A6000F2E0E491F0E0EE0FFF1FEC5EFD4F8591A8
:100A70009491E6EDF1E0E491E0936B0549CF14BC6D
:100A800015BC84B5826084BD85B5816085BDE6E313
:100A9000F2E0E491F0E0EE0FFF1FEC5EFD4F859178
:100AA0009491E6EDF1E0E491E093720531CF10927C
:100AB0008000109281008091810088608093810085
:100AC00080918100816080938100E6E3F2E0E4910F
:100AD000F0E0EE0FFF1FEC5EFD4F85919491E6ED87
:100AE000F1E0E491E093710513CF1092B000109201
:100AF000B1008091B00082608093B0008091B1001D
:100B000081608093B100E6E3F2E0E491F0E0EE0F63
:100B1000FF1FEC5EFD4F859194919093700580933B
:100B20006F05E6EDF1E0E491E0936E05F1CE1092F1
:100B300090001092910080919100886080939100C4
:100B400080919100816080939100E6E3F2E0E4916E
:100B5000F0E0EE0FFF1FEC5EFD4F85919491E6ED06
:100B6000F1E0E491E0936D0583E08D83D1CE1092A6
:100B7000A0001092A1008091A10088608093A10044
:100B80008091A10081608093A100E6E3F2E0E4910E
:100B9000F0E0EE0FFF1FEC5EFD4F85919491E6EDC6
:100BA000F1E0E491E0936C05B3CE8FEFC816D10469
:100BB000E104F10409F00CF486C068E478EE81E009
:100BC00090E0A50198010E94350C69017A0191E03D
:100BD000C91AD108E108F1088D81882309F48DC173
:100BE0008FEFC816D104E104F10409F00CF404CF2E
:100BF00062E17AE780E090E0A50194010E94350C63
:100C000069017A0191E0C91AD108E108F1088D81E2
:100C1000882309F447C18FEFC816D104E104F10419
:100C200011F008F048C186E018C064E274EF80E07B
:100C300090E0A50194010E94350C69017A0191E0D0
:100C4000C91AD108E108F1088FEFC816D104E104F0
:100C5000F10411F008F041C185E09091B100987F56
:100C6000892B8093B10008C081E09D819111F5CF5F
:100C700095B5987F892B85BD2FEF3FEFA9014114D2
:100C800051046104710409F049C09D81923009F456
:100C9000E7C00CF0CEC0992309F4D3C0913009F01D
:100CA0001BCED0928900C092880020938305309398
:100CB0008405409385055093860580916F0082607E
:100CC00080936F0009CE82E0D0CFB12CA12C60E0E0
:100CD00072E18AE790E0A50198010E94350C690154
:100CE0007A0181E0C81AD108E108F108C114D104E1
:100CF00091E0E906F10404F591E08D81813069F518
:100D000080918100887F892B809381002FEF3FEFB6
:100D1000A901411451046104710419F2D801AA0F08
:100D2000BB1FA30192010E94540C28EE33E040E067
:100D300050E00E945F0CA9CF68E478EE81E090E07B
:100D4000A50198010E94350C69017A0181E0C81A59
:100D5000D108E108F10893E0D0CF8D81833001F50F
:100D600080919100887F892B809391002FEF3FEF36
:100D7000A901411451046104710481F6D0929900D3
:100D8000C092980020937B0530937C0540937D05AD
:100D900050937E05809171008260809371009CCD9C
:100DA0008D81843009F58091A100887F892B809303
:100DB000A1002FEF3FEFA901411451046104710418
:100DC00009F0ACCFD092A900C092A800209377057B
:100DD000309378054093790550937A05809172009D
:100DE00082608093720078CD8D81853009F044CF88
:100DF00080912101887F892B809321012FEF3FEF84
:100E0000A901411451046104710409F087CFD09203
:100E10002901C092280120937305309374054093F3
:100E200075055093760580917300826080937300FE
:100E300053CD8D81843031F20CF4A0CF853039F35D
:100E40004BCDC7BC20938705309388054093890517
:100E500050938A0580916E00826080936E003CCD35
:100E6000C092B30020937F053093800540938105A5
:100E700050938205809170008260809370002CCD29
:100E8000C980DA80EB80FC809AE0F594E794D794EF
:100E9000C7949A95D1F791E0C91AD108E108F108F1
:100EA00085E0E6CE8FEFC816D104E104F10409F025
:100EB00038F784E0DDCEC980DA80EB80FC808AE000
:100EC000F594E794D794C7948A95D1F791E0C91A1D
:100ED000D108E108F10887E0C0CE62E17AE780E05E
:100EE00090E0A50194010E94350C69017A0191E01E
:100EF000C91AD108E108F1088ECE83E09FEFC91628
:100F0000D104E104F10411F00CF072CEB1CE862FC1
:100F1000642F0C9411043FB7F8948091630590916D
:100F20006405A0916505B091660526B5A89B05C02E
:100F30002F3F19F00196A11DB11D3FBFBA2FA92F58
:100F4000982F8827BC01CD01620F711D811D911D55
:100F500042E0660F771F881F991F4A95D1F70895C1
:100F60002F923F924F925F926F927F928F929F92B9
:100F7000AF92BF92CF92DF92EF92FF920F931F93A7
:100F8000CF93DF93EB018C01440F551F1B01240EFF
:100F9000351E44244A9493E0592E612C712CE9901B
:100FA000F9900E946F01FC0188EE93E0B7010E9466
:100FB000900C6B01770FEE08FF08D801AD90BD9043
:100FC0008D0127E030E0DF010E94AC0CA30192010B
:100FD0000E94350CA29EC001A39E900DB29E900D62
:100FE0001124B701A6010E944D040E948B074B01FA
:100FF0005C01C114D104E104F104B9F00E948B0733
:10100000681979098A099B09683E73408105910531
:1010100080F3B1E0CB1AD108E108F10828EE820E86
:1010200023E0921EA11CB11CE4CFC215D30509F028
:10103000B6CFDF91CF911F910F91FF90EF90DF908E
:10104000CF90BF90AF909F908F907F906F905F9068
:101050004F903F902F9008951F920F920FB60F92CE
:1010600011240BB60F922F933F934F935F936F937F
:101070007F938F939F93AF93BF93EF93FF93809151
:101080007F0590918005A0918105B0918205892B03
:101090008A2B8B2BE1F190916E05E0916F05F09119
:1010A000700580818927808380917F0590918005DC
:1010B000A0918105B0918205181619061A061B0623
:1010C0009CF480917F0590918005A0918105B0915D
:1010D00082050197A109B10980937F05909380054E
:1010E000A0938105B0938205FF91EF91BF91AF91DD
:1010F0009F918F917F916F915F914F913F912F9130
:101100000F900BBE0F900FBE0F901F9018958091FF
:101110002C05E4E7F2E0E4919FEF90932C05E23098
:10112000E9F040F4EE2389F0E13091F060E00E94B4
:10113000DF03DACFE43049F110F1E530B9F79091EF
:1011400073009D7F90937300F1CF10926E00EECFED
:1011500090916F009D7F90936F00E8CF9091700009
:101160009D7F9093700091E09093B0009091B100BA
:10117000987F94609093B1001092B300D7CF909174
:1011800071009D7F90937100D1CF909172009D7FEF
:1011900090937200CBCF1F920F920FB60F92112433
:1011A0000BB60F922F933F934F935F936F937F9361
:1011B0008F939F93AF93BF93EF93FF938BE895E04B
:1011C0000E948C02FF91EF91BF91AF919F918F91FF
:1011D0007F916F915F914F913F912F910F900BBE37
:1011E0000F900FBE0F901F9018951F920F920FB681
:1011F0000F9211240BB60F922F938F939F93EF931F
:10120000FF93E0919B05F0919C058081E091A10501
:10121000F091A20582FD1DC090818091A4058F5F91
:101220008F732091A505821741F0E091A405F0E0AD
:10123000E557FA4F958F8093A405FF91EF919F9109
:101240008F912F910F900BBE0F900FBE0F901F909C
:1012500018958081F2CF1F920F920FB60F92112432
:101260002F933F938F939F93AF93BF938091670585
:1012700090916805A0916905B0916A053091620569
:1012800023E0230F2D3758F50196A11DB11D2093A2
:1012900062058093670590936805A0936905B093F4
:1012A0006A058091630590916405A0916505B091F0
:1012B00066050196A11DB11D809363059093640599
:1012C000A0936505B0936605BF91AF919F918F91F3
:1012D0003F912F910F900FBE0F901F90189526E809
:1012E000230F0296A11DB11DD2CF10928E05109230
:1012F0008D0588EE93E0A0E0B0E080938F05909399
:101300009005A0939105B093920589E495E09093A0
:101310008C0580938B0585EC90E0909398058093E5
:10132000970584EC90E090939A058093990580EC62
:1013300090E090939C0580939B0581EC90E09093C6
:101340009E0580939D0582EC90E09093A00580938C
:101350009F0586EC90E09093A2058093A1051092E2
:10136000A4051092A5051092A6051092A70510924B
:101370002A0610922E0610922D0610922F068BE54B
:1013800095E09093290680932806E4E4F6E0108225
:10139000148213821582369686E0E038F807B9F792
:1013A00081E395E090938B0680938A068DE295E029
:1013B00090938D0680938C0684E080938E068093B4
:1013C0008F0685E395E090938906809388068AE0EE
:1013D00090E0909391068093900684EF91E0909333
:1013E000930680939206109296061092950610929C
:1013F0008406109285061092860610928706109237
:1014000094060895789484B5826084BD84B5816023
:1014100084BD85B5826085BD85B5816085BD8091BF
:101420006E00816080936E00109281008091810037
:10143000826080938100809181008160809381002F
:10144000809180008160809380008091B1008460F1
:101450008093B1008091B00081608093B000809152
:1014600091008260809391008091910081608093CF
:101470009100809190008160809390008091A10004
:1014800082608093A1008091A10081608093A1007F
:101490008091A00081608093A000809121018260F2
:1014A00080932101809121018160809321018091AD
:1014B000200181608093200180917A008460809374
:1014C0007A0080917A00826080937A0080917A001D
:1014D000816080937A0080917A00806880937A009E
:1014E0001092C10061E088E00E941104E0919B0528
:1014F000F0919C0582E08083E0919705F09198053A
:101500001082E0919905F0919A058FEC80831092FA
:10151000A305E0919F05F091A00586E08083E0910E
:101520009D05F0919E05808180618083E0919D05FD
:10153000F0919E05808188608083E0919D05F09107
:101540009E05808180688083E0919D05F0919E05D5
:1015500080818F7D8083CC24CA9443E0D42EE12CFB
:10156000F12C812C912C540183948BE895E00E94FE
:1015700054020196E1F00E946F0127E030E0DC01A7
:101580000E94AC0CA70196010E94350C2F5F3F4FC3
:1015900044E650E060E070E0E4EFF1E02E9FC0012F
:1015A0002F9F900D3E9F900D11240E944D04F1E05D
:1015B000F09394068FB7F8944091670550916805B1
:1015C0006091690570916A058FBF80918406909142
:1015D0008506A0918606B0918706481B590B6A0BB9
:1015E0007B0B8091900690919106B0E0A0E084176B
:1015F0009507A607B70708F010C1C0E080918E06D6
:10160000C81760F4E0918A06F0918B06EC0FF11D8B
:1016100062E080810E941104CF5FF0CF712C809135
:101620008F06781608F05FC0072D10E0E0918C0659
:10163000F0918D06E00FF11F61E080810E9411049E
:10164000E0918C06F0918D06E00FF11F60E0808143
:101650000E94DF03D501C401072C04C0880F991F25
:10166000AA1FBB1F0A94D2F71C012C01409450946E
:10167000612C80918E066816F8F4C62DD0E0E091BA
:101680008A06F0918B06EC0FFD1F80810E94B30348
:101690002496CC0FDD1FC85DD94F892B41F488817A
:1016A000998182299329998388836394E2CF8881E1
:1016B000998184219521F7CFE0918C06F0918D06D8
:1016C000E00FF11F61E080810E94DF0380918C06B2
:1016D00090918D06080F191F60E0F80180810E942B
:1016E000110473949CCFC8E2D6E0FE01878D90A1CF
:1016F000892B31F4148E2FEF3FEF368F258F11A2F7
:10170000369636E0E436F30789F700E080918E06DE
:10171000081708F053C010E0802F90E0880F991F41
:10172000FC01E05DF94F3F0120918F06121708F090
:1017300043C0F30160817181012E02C076956795E7
:101740000A94E2F7029F90011124210F311DE8E273
:10175000F6E080E0458D568D2417350709F483C0E7
:101760008F5F36968A30B1F760FF24C0E8E2F6E07A
:1017700090E080E0448D411118C0E0918806F0911E
:101780008906E20FF31F608146E0489FF001499F00
:10179000F00D1124E85DF94F648F368F258F10A26C
:1017A000178E61E00E94A80105C0019636968A3026
:1017B000910501F71F5FB8CF0F5FA8CF80E099A117
:1017C0009111892F269696E0C436D907C1F79FB7A5
:1017D000F894409167055091680560916905709192
:1017E0006A059FBF409384065093850660938606E2
:1017F00070938706882389F080914906882369F0D1
:101800008091470690914806019739F480914406EB
:10181000811106C00E941B03A8CE10929406FACF35
:10182000813349F448E350E06CE474E08CEB94E0DD
:101830000E94B007EFCF4EE450E064E173E08233E2
:1018400031F0833339F449E550E060E672E080EB33
:1018500093E0EECF8433F1F640E350E060E672E0CF
:1018600080E092E0E5CF61709DCF052E97FB1EF4DE
:1018700000940E944C0C57FD07D00E945F0C07FC9F
:1018800003D04EF40C944C0C509540953095219516
:101890003F4F4F4F5F4F089590958095709561959C
:1018A0007F4F8F4F9F4F08950E94810CA59F900DF1
:1018B000B49F900DA49F800D911D11240895A1E265
:1018C0001A2EAA1BBB1BFD010DC0AA1FBB1FEE1FBA
:1018D000FF1FA217B307E407F50720F0A21BB30B05
:1018E000E40BF50B661F771F881F991F1A9469F781
:1018F00060957095809590959B01AC01BD01CF01DD
:101900000895A29FB001B39FC001A39F700D811DD8
:101910001124911DB29F700D811D1124911D0895F8
:1019200097FB072E16F4009407D077FD09D00E948C
:10193000B30C07FC05D03EF4909581959F4F089518
:10194000709561957F4F0895EE0FFF1F881F8BBF25
:101950000790F691E02D19940E94810CB7FF08952D
:10196000821B930B0895AA1BBB1B51E107C0AA1F42
:10197000BB1FA617B70710F0A61BB70B881F991F30
:101980005A95A9F780959095BC01CD010895F894DA
:02199000FFCF87
:101992004A014A015D01880188015D014A0126016F
:1019A2000601060126014A014A010000260126011C
:1019B2004A014A015D01880188015D014A0126014F
:1019C2000601060126014A01260100000601060160
:1019D200260126014A01060126014A015D014A014A
:1019E200060126014A015D014A012601060126017E
:1019F20004000800040008000400080008000800B1
:101A020008000400080004000800040008000800A0
:101A12000800080004000800040008000400080090
:101A22000800080008000400040008000800040080
:101A32000400080008000400040008000800080070
:101A42000400080008000800040004000800080060
:101A52000400040008000800040004000800040058
:101A62000400080008000800080004000400080040
:101A72000800040004000800080004000400080034
:101A82000800080004000800080008000400040020
:101A92000400080004000800080008000400040014
:101AA200080008000C000C000C000C000C000C00DC
:101AB2000C000C000C000C000C000C000C000C00C4
:101AC2000C000C000C000C000C000C000C000C00B4
:101AD2000C000C000C000C000C000C000C000C00A4
:101AE2000C000C000900090009000C000C000C009D
:101AF2000C000C000C000C000C000C000C000C0084
:101B02000C000C000C000C000C000C000C000C0073
:101B12000C000C000C000C000C000C000C000C0063
:101B22000C000900090009000C000C000C000C005C
:101B32000C000C000C000C000C000C000C000C0043
:101B42004D0A4D0A00004D0A00002D084D0A000002
:101B5200400C000000000000200600000000000011
:101B62002D080000000020060000000027050000EC
:101B72000000E0060000B80700004907E006000088
:101B820020064D0A400CC00D0000EA0A400C00007D
:101B92004D0A00002D082D09B807000000002D088D
:101BA20000000000200600000000270500000000E1
:101BB200E0060000B80700004907E0060000200622
:101BC2004D0A400CC00D0000EA0A400C00004D0A0C
:101BD20000002D082D09B807000000000C000C00C1
:101BE2000C000C000C000C00060003000C000C00A2
:101BF2000C000C000C000C00060003000C000C0092
:101C02000C000C000C000C00060003000C000C0081
:101C12000C000C000C000C00060006001200120062
:101C2200120006000600060006000600060012006A
:101C3200120012001200120012000A000A000A002A
:101C42000A000A000A0003000300030006010B0257
:101C5200DC00B801E900D2010000000006010B021D
:101C6200DC00B801E900D20100000000AF005D0114
:101C7200930026019C00370100000000AF005D01C7
:101C8200930026019C003701000000003701150176
:101C92002601150137013701D000C40015010601E4
:101CA20072015D01A500D201B8019F013701F70061
:101CB200E900DC00D000000000000000FF1A1B1C3D
:101CC2001D161718193738392F3435362A31323361
:101CD2002D43303D2B00000000AE0218024502FBEE
:101CE200027602540268020000000087070D04DC3D
:021CF2000300ED
:00000001FF
