:100000000C9417010C9438010C9438010C943801AD
:100010000C9438010C9438010C9438010C9438017C
:100020000C9438010C9438010C9438010C9438016C
:100030000C9438010C9438010C9438010C9438015C
:100040000C9438010C9438010C9438010C9438014C
:100050000C9438010C9438010C9438010C945C0217
:100060000C9438010C9438010C9438010C9438012C
:100070000C9438010C9438010C9438010C9438011C
:100080000C9438010C9438010C9438010C9438010C
:100090000C9438010C9438010C9438010C943801FC
:1000A0000C9438010C9438010C9438010C943801EC
:1000B0000C9438010C9438010C9438010C943801DC
:1000C0000C9438010C9438010C9438010C943801CC
:1000D0000C9438010C9438010C9438010C943801BC
:1000E0000C9438010C94C7010C94A8010C9489015C
:1000F0000C94BF010C94B5010C94CD010C94AC018F
:100100000C94B9010C94A0010C94D5010C948E01AF
:100110000C94DB010C94DF010C94C3010C94D1010D
:100120000C94A4010C94AF0100000A0B02090C0D01
:100130000E0807030401000000000000000000009A
:1001400000000000000000000000000000000000AF
:10015000000000001211100000000000000000006C
:10016000000000000000000000000000000000008F
:100170002200250028002B002E003100340002014F
:100180000000050108010B010000210024002700E8
:100190002A002D0030003300010100000401070196
:1001A0000A010505050507050808080802020202FC
:1001B0000A0A080804040404010101010101010103
:1001C0000303030303030303040707070C0C0C0CCE
:1001D0000C0C0C0C020202020606060606060606B7
:1001E0000B0B0B0B0B0B0B0B010210202008081044
:1001F0002040102040800201020108040201010297
:10020000040810204080804020100804020180046F
:1002100002018040201008040201080402010102CA
:10022000040810204080010204081020408011249E
:100230001FBECFEFD1E2DEBFCDBF00E00CBF12E0AA
:10024000A0E0B2E0E8E2F8E000E00BBF02C00790F7
:100250000D92A030B107D9F722E0A0E0B2E001C0D2
:100260001D92A031B207E1F70E94A6020C9412047D
:100270000C94000090E0FC01E851FE4F24918E5553
:100280009E4FFC018491882399F090E0880F991F7C
:10029000FC01E857FE4FA591B491FC01E259FE4FD5
:1002A000859194918FB7F894EC91E22BEC938FBFEA
:1002B0000895282F30E0F901E85DFE4F9491F9018F
:1002C000E851FE4F44912E553E4FF90124912223CF
:1002D00009F435C0992311F191509231F8F4E92FC6
:1002E000F0E08827E958FE4F8F4F0C940304A801D3
:1002F000AC018901A001A4018E01AF01B501B901D2
:10030000BF01C301C701CD01D1018E01D501DB01C0
:10031000DF01809180008F7780938000E22FF0E0F2
:10032000EE0FFF1FE259FE4FA591B4918FB7F894DD
:10033000EC91611148C040954E234C938FBF0895B6
:10034000809180008F7DE8CF80918000877FE4CF0F
:1003500084B58F7784BDE2CF84B58F7DFBCF80914C
:10036000B0008F778093B000D9CF8091B0008F7D9F
:10037000F9CF809190008F7780939000CFCF8091BC
:1003800090008F7DF9CF80919000877FF5CF80918D
:10039000A0008F778093A000C1CF8091A0008F7DB7
:1003A000F9CF8091A000877FF5CF809120018F77D2
:1003B00080932001B3CF809120018F7DF9CF809170
:1003C0002001877FF5CF4E2BB8CF90917B00977F90
:1003D00090937B00806480937C0080917A0080649D
:1003E00080937A0080917A0086FDFCCF809178001E
:1003F0009091790008953FB7F8948091050290910B
:100400000602A0910702B091080226B5A89B05C07C
:100410002F3F19F00196A11DB11D3FBFBA2FA92F83
:10042000982F8827BC01CD01620F711D811D911D80
:1004300042E0660F771F881F991F4A95D1F70895EC
:100440008F929F92AF92BF92CF92DF92EF92FF92E4
:100450000E94FB014B015C0184E6C82ED12CE12CEB
:10046000F12C0E94FB01681979098A099B09683EF1
:10047000734081059105A8F321E0C21AD108E10873
:10048000F10888EE880E83E0981EA11CB11CC114EF
:10049000D104E104F10429F7FF90EF90DF90CF90B1
:1004A000BF90AF909F908F9008958EBD00000DB4C7
:1004B00007FEFDCF8EB508951F920F920FB60F92D3
:1004C00011242F933F938F939F93AF93BF9380916A
:1004D000010290910202A0910302B09104023091B6
:1004E000000223E0230F2D3758F50196A11DB11D01
:1004F000209300028093010290930202A0930302D2
:10050000B09304028091050290910602A091070227
:10051000B09108020196A11DB11D80930502909330
:100520000602A0930702B0930802BF91AF919F917A
:100530008F913F912F910F900FBE0F901F901895A4
:1005400026E8230F0296A11DB11DD2CF789484B561
:10055000826084BD84B5816084BD85B5826085BDBF
:1005600085B5816085BD80916E00816080936E004D
:10057000109281008091810082608093810080913F
:1005800081008160809381008091800081608093F0
:1005900080008091B10084608093B1008091B000B0
:1005A00081608093B000809191008260809391007F
:1005B0008091910081608093910080919000816092
:1005C000809390008091A10082608093A10080912F
:1005D000A10081608093A1008091A0008160809340
:1005E000A0008091210182608093210180912101EE
:1005F000816080932101809120018160809320019E
:1006000080917A00846080937A0080917A00826081
:1006100080937A0080917A00816080937A00809143
:100620007A00806880937A001092C100CFB7F89466
:1006300080910902811124C0E7EDF1E08491EDE1A0
:10064000F2E09491E82FF0E0EE0FFF1FE857FE4F25
:10065000A591B491EC91E92321F461E085E30E9436
:10066000590185E30E943A018CB580618CBD8CB53F
:1006700080648CBD84E30E943A0183E30E943A01C6
:10068000809109028F5F80930902CFBF8CB5836090
:100690008CBD8DB58E7F8DBD80E30E943A0181E3D4
:1006A0000E943A0161E080E30E94590161E081E328
:1006B0000E94590188248A9433E0932EA12CB12CF6
:1006C00040E0E42E40E0F42E81E00E94E501EC01E0
:1006D00082E00E94E5018C0190930D0280930C0250
:1006E00080E00E94E501C01BD10BD7FD2196D59576
:1006F000C795C0930E02D0930F0224E630E0DC01D0
:100700000E940B04A50194010E94B303122F032F32
:1007100020930A0230930B0260E080E30E945901AB
:1007200061E081E30E9459018D2F0E9455028C2FB8
:100730000E9455020E94200261E080E30E9459015C
:1007400060E081E30E945901802F0E945502812FB1
:100750000E9455020E942002E114F10409F4B4CF72
:100760000E940000B1CF052E97FB1EF400940E945A
:10077000CA0357FD07D00E94D20307FC03D04EF4F2
:100780000C94CA0350954095309521953F4F4F4F9B
:100790005F4F089590958095709561957F4F8F4F2D
:1007A0009F4F0895A1E21A2EAA1BBB1BFD010DC08D
:1007B000AA1FBB1FEE1FFF1FA217B307E407F50711
:1007C00020F0A21BB30BE40BF50B661F771F881FED
:1007D000991F1A9469F760957095809590959B0183
:1007E000AC01BD01CF010895A29FB001B39FC0012C
:1007F000A39F700D811D1124911DB29F700D811D4D
:100800001124911D0895EE0FFF1F881F8BBF0790C5
:10081000F691E02D19940E94F403B7FF0895821B0E
:08082000930B0895F894FFCF3B
:00000001FF
