:100000000C943B010C946C010C946C010C946C01ED
:100010000C946C010C946C010C946C010C946C01AC
:100020000C946C010C946C010C946C010C946C019C
:100030000C946C010C946C010C946C010C946C018C
:100040000C946C010C946C010C946C010C946C017C
:100050000C946C010C946C010C946C010C94FC04D9
:100060000C946C010C946C010C946C010C946C015C
:100070000C946C010C946C010C946C010C946C014C
:100080000C946C010C946C010C946C010C946C013C
:100090000C946C010C946C010C946C010C946C012C
:1000A0000C946C010C946C010C946C010C946C011C
:1000B0000C946C010C946C010C946C010C946C010C
:1000C0000C946C010C946C010C946C010C946C01FC
:1000D0000C946C010C946C010C94C6040C949C045C
:1000E0000C946C010C945D030C948E030C948003AF
:1000F0000C9465030C9461030C946E030C948603BA
:100100000C9494030C9468030C9493030C9478035C
:100110000C94F6030C9459030C9472030C943D0256
:100120000C9451020C9436040C9498030C945303D1
:100130000C9497020C94C5030C948A030C947C03D2
:100140000C945F020C94E4020C9401020C942E02B5
:100150000C94460500002100240027002A002D00F1
:100160003000330001010000040107010A01000012
:100170002200250028002B002E003100340002014F
:100180000000050108010B010000200023002600EB
:1001900029002C002F00320000010000030106019D
:1001A00009010505050507050808080802020202FD
:1001B0000A0A080804040404010101010101010103
:1001C0000303030303030303040707070C0C0C0CCE
:1001D0000C0C0C0C020202020606060606060606B7
:1001E0000B0B0B0B0B0B0B0B010210202008081044
:1001F0002040102040800201020108040201010297
:10020000040810204080804020100804020180046F
:1002100002018040201008040201080402010102CA
:1002200004081020408001020408102040800000D3
:100230000A0B02090C0D0E08070304010000000060
:1002400000000000000000000000000000000000AE
:10025000000000000000000000001211100000006B
:10026000000000000000000000000000000000008E
:1002700000000000460511241FBECFEFD1E2DEBF13
:10028000CDBF00E00CBF12E0A0E0B2E0E8E2F1E197
:1002900000E00BBF02C007900D92A634B107D9F75A
:1002A00023E0A6E4B2E001C01D92A036B207E1F758
:1002B00011E0CBE3D1E000E006C021970109802FD7
:1002C000FE010E948A08CA33D10780E00807A9F717
:1002D0000E94D3050C9492080C94000096E0899F2C
:1002E000D0011124AF50BD4F90967C936E935F97D1
:1002F00091E091969C939197E0915E03F0915F035A
:1003000090915D03992339F0309751F0811108C025
:1003100080910D031994309719F05C968C91FACF67
:100320000895CF92DF92EF92FF920F931F9396E082
:10033000899FF0011124EF50FD4F11A2278D30A1AC
:100340002130310551F178F02230310509F451C0E6
:100350002330310509F452C01F910F91FF90EF90A7
:10036000DF90CF9008956623B9F361E070E00E94BA
:100370006E012FB7F8948091500290915102A09194
:100380005202B09153022FBF8093490390934A03C6
:10039000A0934B03B0934C03DFCF9FB7F894C0906A
:1003A0005002D0905102E0905202F09053029FBF51
:1003B0000091490310914A0320914B0330914C0363
:1003C000C01AD10AE20AF30A00915B0310915C03A0
:1003D00030E020E00C151D052E053F0550F462E0CD
:1003E00070E01F910F91FF90EF90DF90CF900C94F1
:1003F0006E016111B1CF63E070E0F3CF70E060E0B7
:10040000F0CFAF92BF92CF92DF92EF92FF920F9315
:100410001F93CF93DF936C017B018B01040F151F9A
:10042000EB015E01AE18BF08C017D10759F0699102
:10043000D601ED91FC910190F081E02DC601199556
:10044000892B79F7C501DF91CF911F910F91FF9013
:10045000EF90DF90CF90BF90AF900895FC01538D47
:10046000448D252F30E0842F90E0821B930B54178E
:1004700010F0CF96089501970895FC01918D828D1B
:10048000981761F0A28DAE0FBF2FB11D5D968C91B4
:10049000928D9F5F9F73928F90E008958FEF9FEFF3
:1004A0000895FC01918D828D981731F0828DE80FAF
:1004B000F11D858D90E008958FEF9FEF0895FC0169
:1004C000918D228D892F90E0805C9F4F821B910936
:1004D0008F739927089584E592E00E945F0221E0DE
:1004E000892B09F420E0822F0895FC01A48DA80F28
:1004F000B92FB11DA35ABF4F2C91848D90E0019666
:100500008F739927848FA689B7892C93A089B18985
:100510008C91837080648C93938D848D981306C026
:100520000288F389E02D80818F7D80830895EF928A
:10053000FF920F931F93CF93DF93EC0181E0888F9D
:100540009B8D8C8D98131AC0E889F989808185FF6D
:1005500015C09FB7F894EE89FF896083E889F9890F
:1005600080818370806480839FBF81E090E0DF9111
:10057000CF911F910F91FF90EF900895F62E0B8D64
:1005800010E00F5F1F4F0F731127E02E8C8D8E111F
:100590000CC00FB607FCFACFE889F989808185FF86
:1005A000F5CFCE010E947502F1CFEB8DEC0FFD2F40
:1005B000F11DE35AFF4FF0829FB7F8940B8FEA8941
:1005C000FB8980818062CFCFCF93DF93EC01888D50
:1005D0008823B9F0AA89BB89E889F9898C9185FDBE
:1005E00003C0808186FD0DC00FB607FCF7CF8C914C
:1005F00085FFF2CF808185FFEDCFCE010E9475028D
:10060000E9CFDF91CF91089580E090E0892B49F008
:1006100080E090E0892B29F00E94000081110E9467
:10062000000080E090E0892B49F080E090E0892B89
:1006300029F00E94000081110E94000080E090E0FB
:10064000892B49F080E090E0892B29F00E9400007E
:1006500081110E94000080E090E0892B29F00E9427
:100660006B0281110C94000008958150823108F0D2
:100670005AC0E82FF0E08827EF5BFC4F8F4F0C94B7
:100680008A0861036503530359035D0393036803F9
:100690006E03720378037C03800386038A0393034B
:1006A0008E0394039803809180008F77809380005D
:1006B0000895809180008F7DF9CF80918000877FA1
:1006C000F5CF84B58F7784BD089584B58F7DFBCF3A
:1006D0008091B0008F778093B00008958091B00032
:1006E0008F7DF9CF809190008F778093900008954F
:1006F000809190008F7DF9CF80919000877FF5CF1A
:100700008091A0008F778093A00008958091A00031
:100710008F7DF9CF8091A000877FF5CF8091200158
:100720008F77809320010895809120018F7DF9CFEC
:1007300080912001877FF5CFCF93DF93282F30E082
:10074000F901E25DFD4F8491F901E851FE4FD4912A
:10075000F901EE55FE4FC491CC23A1F081110E9406
:100760003503EC2FF0E0EE0FFF1FE857FE4FA59189
:10077000B491EC91ED2381E090E009F480E0DF9109
:10078000CF91089580E090E0FACF862F0C949C03DF
:100790001F93CF93DF93282F30E0F901E25DFD4FE7
:1007A0008491F901E851FE4FD491F901EE55FE4FC5
:1007B000C491CC23A9F0162F81110E943503EC2F90
:1007C000F0E0EE0FFF1FE259FE4FA591B4918FB7F5
:1007D000F894EC91111108C0D095DE23DC938FBF03
:1007E000DF91CF911F910895DE2BF8CF862F642FD4
:1007F0000C94C803CF93DF9390E0FC01E851FE4FC7
:1008000024918E559E4FFC0184918823C9F090E07D
:10081000880F991FFC01EC5AFE4FA591B491FC0181
:10082000E259FE4FC591D49161110DC09FB7F89464
:100830008C91209582238C938881282328839FBFC5
:10084000DF91CF910895623051F49FB7F8943C91B5
:10085000822F809583238C93E8812E2BEFCF8FB747
:10086000F894EC912E2B2C938FBFEACF862F642F18
:100870000C94FA033FB7F894809147029091480294
:10088000A0914902B0914A0226B5A89B05C02F3F0E
:1008900019F00196A11DB11D3FBFBA2FA92F982FA6
:1008A0008827BC01CD01620F711D811D911D42E0A1
:1008B000660F771F881F991F4A95D1F708958F9269
:1008C0009F92AF92BF92CF92DF92EF92FF920E94DF
:1008D0003A044B015C0188ECC82ED12CE12CF12CA0
:1008E0000E943A04681979098A099B09683E734095
:1008F00081059105A8F321E0C21AD108E108F108A9
:1009000088EE880E83E0981EA11CB11CC114D1048E
:10091000E104F10429F7FF90EF90DF90CF90BF90B2
:10092000AF909F908F90089542E050E064E372E0B2
:1009300084E592E00C9401021F920F920FB60F9281
:1009400011240BB60F922F933F934F935F936F93A6
:100950007F938F939F93AF93BF93EF93FF9384E520
:1009600092E00E947502FF91EF91BF91AF919F912C
:100970008F917F916F915F914F913F912F910F9048
:100980000BBE0F900FBE0F901F9018951F920F92E5
:100990000FB60F9211240BB60F922F938F939F9344
:1009A000EF93FF93E0916402F09165028081E09102
:1009B0006A02F0916B0282FD1DC0908180916D02F0
:1009C0008F5F8F7320916E02821741F0E0916D026C
:1009D000F0E0EC5AFD4F958F80936D02FF91EF91FF
:1009E0009F918F912F910F900BBE0F900FBE0F9084
:1009F0001F9018958081F2CF1F920F920FB60F9221
:100A000011242F933F938F939F93AF93BF93809124
:100A1000500290915102A0915202B0915302309134
:100A2000460223E0230F2D3758F50196A11DB11D75
:100A3000209346028093500290935102A093520259
:100A4000B09353028091470290914802A0914902CD
:100A5000B0914A020196A11DB11D80934702909367
:100A60004802A0934902B0934A02BF91AF919F916F
:100A70008F913F912F910F900FBE0F901F9018955F
:100A800026E8230F0296A11DB11DD2CF1092570266
:100A90001092560288EE93E0A0E0B0E080935802F6
:100AA00090935902A0935A02B0935B028CE192E0BA
:100AB000909355028093540285E391E090936102F4
:100AC0008093600284E391E09093630280936202DA
:100AD00080E391E0909365028093640281E391E06A
:100AE000909367028093660282E391E0909369029B
:100AF0008093680286E391E090936B0280936A0290
:100B000010926D0210926E0210926F02109270029B
:100B10001092F3021092F7021092F6021092F8026D
:100B20008EE292E09093F2028093F102EDE0F3E026
:100B30001082148213821582369683E0E934F80716
:100B4000B9F784E092E0909354038093530380E0DC
:100B500092E0909356038093550384E0809357036B
:100B60008093580388E092E090935203809351035E
:100B70008AE090E090935A038093590384EF91E0C8
:100B800090935C0380935B0310925F0310925E036B
:100B900010924D0310924E0310924F031092500387
:100BA00010925D030895789484B5826084BD84B505
:100BB000816084BD85B5826085BD85B5816085BD58
:100BC00080916E00816080936E0010928100809110
:100BD0008100826080938100809181008160809398
:100BE0008100809180008160809380008091B100BD
:100BF00084608093B1008091B00081608093B000E8
:100C00008091910082608093910080919100816039
:100C100080939100809190008160809390008091FA
:100C2000A10082608093A1008091A10081608093E7
:100C3000A1008091A00081608093A000809121019B
:100C40008260809321018091210181608093210144
:100C50008091200181608093200180917A008460DE
:100C600080937A0080917A00826080937A008091EC
:100C70007A00816080937A0080917A008068809306
:100C80007A001092C100E0916402F091650282E066
:100C90008083E0916002F09161021082E091620233
:100CA000F09163028FEC808310926C02E0916802F5
:100CB000F091690286E08083E0916602F09167021C
:100CC000808180618083E0916602F091670280817B
:100CD00088608083E0916602F0916702808180687D
:100CE0008083E0916602F091670280818F7D80832E
:100CF00061E080E00E94FA0361E081E00E94FA0373
:100D000061E082E00E94FA0361E083E00E94FA035E
:100D100061E084E00E94FA0361E085E00E94FA034A
:100D200061E086E00E94FA0361E087E00E94FA0336
:100D300061E088E00E94FA0361E089E00E94FA0322
:100D400038E0932E412C512C32014394CC24CA9488
:100D5000DC2C66E0862E84E592E00E943D0290ED58
:100D6000980F9A3008F04CC040914E0250914F02BB
:100D70009AE0949F9001959F300D1124082E000C4D
:100D8000990BC097820F931F90934F0280934E024E
:100D900081E080935D038FB7F894409150025091A9
:100DA000510260915202709153028FBF80914D03A6
:100DB00090914E03A0914F03B0915003481B590BE3
:100DC0006A0B7B0B8091590390915A03B0E0A0E02D
:100DD00084179507A607B70708F056C1C0E08091B1
:100DE0005703C81708F051C0E0915303F091540322
:100DF000EC0FF11D62E080810E94FA03CF5FEFCF1C
:100E00008D3031F600914E0210914F020A301105DB
:100E100078F04EE050E067E372E084E592E00E94F3
:100E200001020E94940410924F0210924E02B0CF21
:100E300010924D0210924C02C0914C02D0914D0282
:100E4000C930D10554F460E08C2F0E94C80321966C
:100E5000D0934D02C0934C02EFCF10924D021092EE
:100E60004C02C0914C02D0914D02C017D107DCF664
:100E70000E945F0461E0892D8C1B0E94C8032196AB
:100E8000D0934D02C0934C02ECCF312C809158038B
:100E9000381608F05FC0032D10E0E0915503F09183
:100EA0005603E00FF11F61E080810E94FA03E09198
:100EB0005503F0915603E00FF11F60E080810E941E
:100EC000C803D301C201032C04C0880F991FAA1FB5
:100ED000BB1F0A94D2F75C017C01E094F094212CB2
:100EE000809157032816F8F4C22DD0E0E091530307
:100EF000F0915403EC0FFD1F80810E949C03249607
:100F0000CC0FDD1FCF50DD4F892B41F488819981B3
:100F10008A299B29998388832394E2CF88819981A8
:100F20008E219F21F7CFE0915503F0915603E00FFA
:100F3000F11F61E080810E94C80380915503909168
:100F40005603080F191F60E0F80180810E94FA0320
:100F500033949CCF01EF12E0E8018F8D98A1892B8B
:100F600021F41C8EDE8ECD8E19A22696F3E0CD32B2
:100F7000DF0799F7B12C80915703B81608F052C0DB
:100F8000A12CEB2CF12CEE0CFF1CC70187509D4FC0
:100F90007C0120915803A21608F042C0F70160813D
:100FA00071810A2C02C0769567950A94E2F7B29E89
:100FB000900111242A0D311DE1EFF2E080E0458D12
:100FC000568D2417350709F4A3C08F5F36968A30F3
:100FD000B1F760FF23C0E1EFF2E090E080E0448DE4
:100FE000411117C0E0915103F0915203E20FF31F3A
:100FF0004081889EF001899EF00D1124EF50FD4F35
:10100000448F368F258F10A2178E61E00E949101C8
:1010100005C0019636968A30910509F7A394B9CF99
:10102000B394A9CF80E0F80191A19111892F0A5FB3
:101030001F4FC017D107B9F79FB7F89440915002DE
:101040005091510260915202709153029FBF4093A0
:101050004D0350934E0360934F03709350038823C6
:1010600099F080911203882379F080911003909178
:101070001103019749F460910D0360934B026111D4
:1010800008C00E94040367CE10925D0310924B02C9
:10109000F8CF84E592E00E9497020E949404C091E8
:1010A0004B0280ED8C0F8A3060F710924D02109247
:1010B0004C0200914C0210914D02093011055CF474
:1010C00060E0802F0E94C8030F5F1F4F10934D02F6
:1010D00000934C02EECF10924D0210924C020C2E57
:1010E000000CDD0BE09700914C0210914D020C17A3
:1010F0001D073CF60E945F0461E0892D801B0E9461
:10110000C8030F5F1F4F10934D0200934C02EBCFAB
:1011100061707CCFEE0FFF1F881F8BBF0790F69189
:08112000E02D1994F894FFCFB3
:10112800323334352E2F30313738392F3435362A8B
:101138003132332D43303D2B00000000970201026D
:101148002E02E4025F023D02510200000000360454
:10115800F603C5030D0A00496E76616C6964206E5A
:06116800756D6265720066
:00000001FF
