:100000000C943E010C946F010C946F010C946F01E1
:100010000C946F010C946F010C946F010C946F01A0
:100020000C946F010C946F010C946F010C946F0190
:100030000C946F010C946F010C946F010C946F0180
:100040000C946F010C94C2050C946F010C946F0119
:100050000C946F010C946F010C946F010C94EE04DE
:100060000C946F010C946F010C946F010C946F0150
:100070000C946F010C946F010C946F010C946F0140
:100080000C9494050C946F010C946F010C946F0107
:100090000C946F010C946F010C946F010C946F0120
:1000A0000C946F010C946F010C9466050C946F0115
:1000B0000C946F010C946F010C946F010C94380533
:1000C0000C946F010C946F010C946F010C946F01F0
:1000D0000C946F010C946F010C94B8040C948E0472
:1000E0000C946F010C9458040C9408030C94D102E6
:1000F0000C9404030C945C040C94C9020C945402F8
:100100000C94FE020C94CF010C94E2020C94300487
:100110000C94F0020C94AD010C9471010C94C1018B
:100120000C949E010C9403030C94D5020C94CD0204
:100130000C94E8020C94FA020C94CD080C94D802AA
:100140000C94F6020C94C3020C94EC020C94DE02A4
:100150000C9407020C94F0050000200023002600F8
:1001600029002C002F0032000001000003010601CD
:10017000090100002100240027002A002D00300082
:10018000330001010000040107010A010000220000
:10019000250028002B002E00310034000201000051
:1001A000050108010B0105050505070508080808F4
:1001B000020202020A0A08080404040401010101FF
:1001C00001010101030303030303030304070707FA
:1001D0000C0C0C0C0C0C0C0C02020202060606069F
:1001E000060606060B0B0B0B0B0B0B0B010210206C
:1001F000200808102040102040800201020108045D
:1002000002010102040810204080804020100804F0
:100210000201800402018040201008040201080449
:10022000020101020408102040800102040810208D
:10023000408000000A0B02090C0D0E0807030401A0
:1002400000000000000000000000000000000000AE
:10025000000000000000000000000000000012117B
:10026000100000000000000000000000000000007E
:100270000000000000000000F005CD0811241FBEA2
:10028000CFEFD1E2DEBFCDBF00E00CBF12E0A0E0B7
:10029000B2E0E2E5F7E100E00BBF02C007900D928B
:1002A000AE33B107D9F723E0AEE3B2E001C01D924F
:1002B000A63FB207E1F711E0CDE3D1E000E006C0D0
:1002C00021970109802FFE010E947909CC33D107C3
:1002D00080E00807A9F70E94C8060C94970B0C94BD
:1002E0000000AF92BF92CF92DF92EF92FF920F93F6
:1002F0001F93CF93DF936C017B018B01040F151FBC
:10030000EB015E01AE18BF08C017D10759F0699123
:10031000D601ED91FC910190F081E02DC601199577
:10032000892B79F7C501DF91CF911F910F91FF9034
:10033000EF90DF90CF90BF90AF900895FC01538D68
:10034000448D252F30E0842F90E0821B930B5417AF
:1003500010F0CF96089501970895FC01918D828D3C
:10036000981761F0A28DAE0FBF2FB11D5D968C91D5
:10037000928D9F5F9F73928F90E008958FEF9FEF14
:100380000895FC01918D828D981731F0828DE80FD0
:10039000F11D858D90E008958FEF9FEF0895FC018A
:1003A000918D228D892F90E0805C9F4F821B910957
:1003B0008F73992708958CE492E00E94CF0121E089
:1003C000892B09F420E0822F0895FC01A48DA80F49
:1003D000B92FB11DA35ABF4F2C91848D90E0019687
:1003E0008F739927848FA689B7892C93A089B189A7
:1003F0008C91837080648C93938D848D981306C048
:100400000288F389E02D80818F7D80830895EF92AB
:10041000FF920F931F93CF93DF93EC0181E0888FBE
:100420009B8D8C8D98131AC0E889F989808185FF8E
:1004300015C09FB7F894EE89FF896083E889F98930
:1004400080818370806480839FBF81E090E0DF9132
:10045000CF911F910F91FF90EF900895F62E0B8D85
:1004600010E00F5F1F4F0F731127E02E8C8D8E1140
:100470000CC00FB607FCFACFE889F989808185FFA7
:10048000F5CFCE010E94E501F1CFEB8DEC0FFD2FF2
:10049000F11DE35AFF4FF0829FB7F8940B8FEA8962
:1004A000FB8980818062CFCFCF93DF93EC01888D71
:1004B0008823B9F0AA89BB89E889F9898C9185FDDF
:1004C00003C0808186FD0DC00FB607FCF7CF8C916D
:1004D00085FFF2CF808185FFEDCFCE010E94E5013F
:1004E000E9CFDF91CF91089580E090E0892B49F02A
:1004F00080E090E0892B29F00E94000081110E9489
:10050000000080E090E0892B49F080E090E0892BAA
:1005100029F00E94000081110E94000080E090E01C
:10052000892B49F080E090E0892B29F00E9400009F
:1005300081110E94000080E090E0892B29F00E9448
:10054000DB0181110C94000008958150823108F084
:100550005AC0E82FF0E08827EF54FD4F8F4F0C94DE
:100560007909D102D502C302C902CD020303D80220
:10057000DE02E202E802EC02F002F602FA020303F3
:10058000FE0204030803809180008F77809380002F
:100590000895809180008F7DF9CF80918000877FC2
:1005A000F5CF84B58F7784BD089584B58F7DFBCF5B
:1005B0008091B0008F778093B00008958091B00053
:1005C0008F7DF9CF809190008F7780939000089570
:1005D000809190008F7DF9CF80919000877FF5CF3B
:1005E0008091A0008F778093A00008958091A00053
:1005F0008F7DF9CF8091A000877FF5CF809120017A
:100600008F77809320010895809120018F7DF9CF0D
:1006100080912001877FF5CF1F93CF93DF93282F01
:1006200030E0F901EE5CFD4F8491F901E451FE4F99
:10063000D491F901EA55FE4FC491CC23A9F0162FAD
:1006400081110E94A502EC2FF0E0EE0FFF1FE4578E
:10065000FE4FA591B4918FB7F894EC91111108C099
:10066000D095DE23DC938FBFDF91CF911F9108954A
:10067000DE2BF8CFCF93DF9390E0FC01E451FE4FE7
:1006800024918A559E4FFC0184918823C9F090E003
:10069000880F991FFC01EE58FE4FA591B491FC0103
:1006A000E457FE4FC591D49161110DC09FB7F894E6
:1006B0008C91209582238C938881282328839FBF47
:1006C000DF91CF910895623051F49FB7F8943C9137
:1006D000822F809583238C93E8812E2BEFCF8FB7C9
:1006E000F894EC912E2B2C938FBFEACFAF92BF9250
:1006F000CF92DF92EF92FF920F931F93CF93DF93EE
:100700006B017A01EC01C25CDD4F28813CE0389F2F
:100710008001399F100D1124A0907903B12C27FF7F
:100720001FC0FB011182108288818F5F88838881BE
:100730009801280F311D87FD3A95F6012A153B05D2
:100740001CF488818C30C4F18081918104968034BE
:100750009C4908F473C0F60180819181049670C0B1
:1007600088819801280F311D87FD3A952A153B0590
:10077000DCF68881A801480F511D87FD5A95FA01C2
:10078000EE0FFF1FE40FF51FE751FD4F808186FF3D
:10079000CBCF8881F801E80FF11D87FDFA95CF01D5
:1007A000EE0FFF1FE80FF91FE751FD4F808160E05A
:1007B0008F730E940C03B8CF808191812881A8019A
:1007C000420F511D27FD5A959A01FA01EE0FFF1FA6
:1007D000E20FF31FE751FD4F21813281820F931FFA
:1007E000F7019183808388819801280F311D87FD4F
:1007F0003A95F901EE0FFF1FE20FF31FE751FD4F8E
:10080000808186FF22C08881080F111D87FD1A95FF
:10081000F801EE0FFF1FE00FF11FE751FD4F808140
:1008200061E08F73DF91CF911F910F91FF90EF9057
:10083000DF90CF90BF90AF900C940C0380E49CE9C4
:10084000F701918380838FEF8883DF91CF911F9190
:100850000F91FF90EF90DF90CF90BF90AF900895F1
:10086000CF93DF9370E0FB01EE5CFD4F8491FB01C1
:10087000E451FE4FD4916A557E4FFB01C491CC23C5
:10088000A1F081110E94A502EC2FF0E0EE0FFF1FF6
:10089000E85AFE4FA591B491EC91ED2381E090E0F0
:1008A00009F480E0DF91CF91089580E090E0FACFE5
:1008B000862F642F0C940C03862F642F0C943A031C
:1008C000CF93DF93EC0180917A0390917B030097A3
:1008D00059F020917C0330917D032C173D0720F0C7
:1008E00081E0DF91CF910895BE016F5F7F4F0E943D
:1008F000A60A009789F090937B0380937A03D093A4
:100900007D03C0937C0320917E0330917F03232BD2
:1009100039F7FC011082E4CF80E0E3CF1F920F9201
:100920000FB60F9211240BB60F922F933F934F9354
:100930005F936F937F938F939F93AF93BF93EF9347
:10094000FF938CE492E00E94E501FF91EF91BF914B
:10095000AF919F918F917F916F915F914F913F9157
:100960002F910F900BBE0F900FBE0F901F901895F8
:100970001F920F920FB60F9211240BB60F922F9366
:100980008F939F93EF93FF93E0915C02F0915D0250
:100990008081E0916202F091630282FD1DC090812E
:1009A000809165028F5F8F7320916602821741F0FC
:1009B000E0916502F0E0E45BFD4F958F8093650266
:1009C000FF91EF919F918F912F910F900BBE0F9000
:1009D0000FBE0F901F9018958081F2CF1F920F923B
:1009E0000FB60F9211242F933F938F939F93AF9342
:1009F000BF938091470290914802A0914902B09123
:100A00004A023091460223E0230F2D3758F5019614
:100A1000A11DB11D20934602809347029093480286
:100A2000A0934902B0934A028091420290914302FE
:100A3000A0914402B09145020196A11DB11D809381
:100A4000420290934302A0934402B0934502BF91A7
:100A5000AF919F918F913F912F910F900FBE0F906B
:100A60001F90189526E8230F0296A11DB11DD2CF25
:100A70001F920F920FB60F9211240BB60F922F9365
:100A80003F934F935F936F937F938F939F93AF9316
:100A9000BF93EF93FF9348E251E064E271E090E08E
:100AA00080E00E947603FF91EF91BF91AF919F91FB
:100AB0008F917F916F915F914F913F912F910F9007
:100AC0000BBE0F900FBE0F901F9018951F920F92A4
:100AD0000FB60F9211240BB60F922F933F934F93A3
:100AE0005F936F937F938F939F93AF93BF93EF9396
:100AF000FF9348EA50E064EA70E083E090E00E94EF
:100B00007603FF91EF91BF91AF919F918F917F916C
:100B10006F915F914F913F912F910F900BBE0F906E
:100B20000FBE0F901F9018951F920F920FB60F9245
:100B300011240BB60F922F933F934F935F936F93B4
:100B40007F938F939F93AF93BF93EF93FF9348E966
:100B500050E064E970E082E090E00E947603FF914B
:100B6000EF91BF91AF919F918F917F916F915F9125
:100B70004F913F912F910F900BBE0F900FBE0F9092
:100B80001F9018951F920F920FB60F9211240BB65B
:100B90000F922F933F934F935F936F937F938F9316
:100BA0009F93AF93BF93EF93FF9348E850E064E8BF
:100BB00070E081E090E00E947603FF91EF91BF9199
:100BC000AF919F918F917F916F915F914F913F91E5
:100BD0002F910F900BBE0F900FBE0F901F90189586
:100BE00010924F0210924E0288EE93E0A0E0B0E027
:100BF0008093500290935102A0935202B0935302FB
:100C000082E292E090934D0280934C0285E391E062
:100C1000909359028093580284E391E090935B0291
:100C200080935A0280E391E090935D0280935C028E
:100C300081E391E090935F0280935E0282E391E012
:100C4000909361028093600286E391E09093630247
:100C500080936202109265021092660210926702FF
:100C600010926802109285031092890310928803F3
:100C700010928A0384E392E0909384038093830329
:100C8000EFE9F3E01082148213821582369683E036
:100C9000EB3DF807B9F784E092E09093E603809388
:100CA000E50380E092E09093E8038093E70384E01B
:100CB0008093E9038093EA0388E092E09093E40351
:100CC0008093E3038AE090E09093EC038093EB033E
:100CD00084EF91E09093EE038093ED031092F10383
:100CE0001092F0031092DF031092E0031092E103E0
:100CF0001092E2031092EF03809179038033D8F5CC
:100D000091E0980F909379038093800390E0FC0129
:100D1000EE0FFF1FE80FF91FE751FD4F88EB9BE037
:100D20009283818310927B0310927A0310927D0349
:100D300010927C0310927F0310927E0390E080E07B
:100D40000E94600420917A0330917B03811117C0C7
:100D50002115310519F0C9010E941D0A10927B036B
:100D600010927A0310927F0310927E0310927D03FB
:100D700010927C0308958FEF80938003D3CF10925D
:100D80007F0310927E036CE372E0C9010C94900B18
:100D9000CF93DF931F921F92CDB7DEB7789484B5BF
:100DA000826084BD84B5816084BD85B5826085BD67
:100DB00085B5816085BD80916E00816080936E00F5
:100DC00010928100809181008260809381008091E7
:100DD0008100816080938100809180008160809398
:100DE00080008091B10084608093B1008091B00058
:100DF00081608093B0008091910082608093910027
:100E00008091910081608093910080919000816039
:100E1000809390008091A10082608093A1008091D6
:100E2000A10081608093A1008091A00081608093E7
:100E3000A000809121018260809321018091210195
:100E40008160809321018091200181608093200145
:100E500080917A00846080937A0080917A00826029
:100E600080937A0080917A00816080937A008091EB
:100E70007A00806880937A001092C100809180038C
:100E8000803308F052C061E08DE00E943A03809107
:100E90008003282F30E0F901EE0FFF1FE20FF31F50
:100EA000E751FD4F9081907C9D609083109281036B
:100EB000109282032CE0622F0E946D09829FB00184
:100EC000112430E020E0AB01420F531FFA01EE0F76
:100ED000FF1FE40FF51FE751FD4F908196FD17C0EE
:100EE0002F5F3F4F2C30310571F7813009F0F5C08D
:100EF0001092800082E08093810010928500109211
:100F00008400B19A80916F00826080936F00E091BD
:100F100080038E2F90E0FC01EE0FFF1FE80FF91FFA
:100F2000E751FD4F808180648083E0915C02F09105
:100F30005D0282E08083E0915802F09159021082B4
:100F4000E0915A02F0915B028FEC80831092640270
:100F5000E0916002F091610286E08083E0915E02A0
:100F6000F0915F02808180618083E0915E02F09168
:100F70005F02808188608083E0915E02F0915F0271
:100F8000808180688083E0915E02F0915F028081C1
:100F90008F7D8083E8E68E2E99249394A12CB12C2A
:100FA000F8E8EF2EF12CA8E5CA2EA2E0DA2E8CE4A8
:100FB00092E00E94AD01782E80934B022FEF8217B2
:100FC00009F488C03DE08313C2C080917A039091F8
:100FD0007B03009709F4ADC00E94D6089B012C54F6
:100FE0003F4F2936314008F051C010918003103333
:100FF00008F04CC022273327261B370B032E000C8A
:10100000440B550B2C543F4F4F4F5F4FA8EEB3E0AE
:101010000E943109A50194010E94120929013A0197
:1010200088EE480E83E0581E611C711C809181037C
:101030009701281B310987FD3395C901880F991F36
:10104000880F991F4816590684F0809182039601F3
:10105000281B310987FD3395C901880F991F880F17
:10106000991F481659060CF4C2010297880F991F60
:101070004FB7F894212F30E0F901EE0FFF1FE20F78
:10108000F31FE751FD4F928381834FBF42E050E051
:101090006AE372E08CE492E00E94710190E080E0EB
:1010A0000E94600420917A0330917B03811145C036
:1010B0002115310519F0C9010E941D0A10927B0308
:1010C00010927A0310927F0310927E0310927D0398
:1010D00010927C030E9474026ACF823061F41092F5
:1010E000900080939100109295001092940088BB1C
:1010F000809371000CCF833069F41092A00082E0DD
:101100008093A1001092A5001092A40089BB809347
:101110007200FDCE8111FBCE1092200182E08093FF
:10112000210110922501109224018ABB8093730043
:10113000EECE60E070E0CB0151CF10927F031092B1
:101140007E036CE372E0C9010E94900BC3CF8983D8
:101150001A8200917E0310917F030F5F1F4FC80119
:101160000E946004882399F020917A0330917B03D8
:1011700080917E0390917F03BE016F5F7F4F820F4E
:10118000931F0E94900B10937F0300937E03672DA3
:101190008CE492E00E9407029DCF80917A039091A7
:1011A0007B03009711F00C941D0A08951F93FC0116
:1011B00099278827BC01E89411911032E9F319307E
:1011C00010F01E30C8F31B3251F01D3249F4689400
:1011D00006C00E94FD08610F711D811D911D1191B6
:1011E00010531A30B0F33EF4909580957095619548
:1011F0007F4F8F4F9F4F1F910895592F482F372FA3
:10120000262F660F771F881F991F660F771F881F6D
:10121000991F620F731F841F951F660F771F881F0A
:10122000991F0895052E97FB1EF400940E9429092A
:1012300057FD07D00E943C0907FC03D04EF40C94E4
:10124000290950954095309521953F4F4F4F5F4F5D
:10125000089590958095709561957F4F8F4F9F4F22
:1012600008950E945E09A59F900DB49F900DA49FC4
:10127000800D911D11240895A1E21A2EAA1BBB1BFB
:10128000FD010DC0AA1FBB1FEE1FFF1FA217B30752
:10129000E407F50720F0A21BB30BE40BF50B661F68
:1012A000771F881F991F1A9469F76095709580952C
:1012B00090959B01AC01BD01CF010895A29FB001A3
:1012C000B39FC001A39F700D811D1124911DB29F7A
:1012D000700D811D1124911D0895991B79E004C0A2
:1012E000991F961708F0961B881F7A95C9F7809565
:1012F0000895EE0FFF1F881F8BBF0790F691E02D1A
:1013000019940F931F93CF93DF938230910510F4BC
:1013100082E090E0E091F403F091F50330E020E00A
:10132000B0E0A0E0309799F42115310509F44AC0E6
:10133000281B390B24303105D8F58A819B81611532
:10134000710589F1FB0193838283FE0111C0408105
:1013500051810281138148175907E0F04817590756
:1013600099F4109761F012960C93129713961C93B0
:101370003296CF01DF91CF911F910F910895009385
:10138000F4031093F503F4CF2115310551F0421702
:10139000530738F0A901DB019A01BD01DF01F80113
:1013A000C1CFEF01F9CF9093F5038093F403CDCF34
:1013B000FE01E20FF31F819391932250310939838B
:1013C0002883D7CF2091F2033091F303232B41F4EC
:1013D00020911A0230911B023093F3032093F20301
:1013E00020911802309119022115310541F42DB7D1
:1013F0003EB740911C0250911D02241B350BE09119
:10140000F203F091F303E217F307A0F42E1B3F0B56
:101410002817390778F0AC014E5F5F4F2417350766
:1014200048F04E0F5F1F5093F3034093F2038193F4
:1014300091939FCFF0E0E0E09CCFCF93DF930097B4
:10144000E9F0FC01329713821282A091F403B0916B
:10145000F503ED0130E020E01097A1F42081318107
:10146000820F931F2091F2033091F303281739075D
:1014700009F061C0F093F303E093F203DF91CF91A1
:101480000895EA01CE17DF07E8F54A815B819E01E6
:1014900041155105B1F7E901FB83EA83499159915F
:1014A000C40FD51FEC17FD0761F48081918102966E
:1014B000840F951FE90199838883828193819B839F
:1014C0008A83F0E0E0E012968D919C91139700974B
:1014D000B9F52D913C911197CD010296820F931F82
:1014E0002091F2033091F3032817390739F630972A
:1014F00051F51092F5031092F403B093F303A09307
:10150000F203BCCFD383C28340815181840F951FE6
:10151000C817D90761F44E5F5F4F88819981480FE2
:10152000591F518340838A819B8193838283211534
:10153000310509F0B0CFF093F503E093F4039ECFAB
:10154000FD01DC01C0CF13821282D7CF4F925F9290
:101550006F927F928F929F92AF92BF92CF92DF92C3
:10156000EF92FF920F931F93CF93DF938C0100971D
:1015700099F4CB01DF91CF911F910F91FF90EF90E4
:10158000DF90CF90BF90AF909F908F907F906F90A3
:101590005F904F900C948109FC01E60FF71F9C01AE
:1015A00022503109E217F30708F4AEC0D901CD91FA
:1015B000DC911197C617D70720F1C530D10578F017
:1015C000CE0104978617970750F0C61BD70B2297BA
:1015D000C193D1936D937C93CF010E941D0AC801E2
:1015E000DF91CF911F910F91FF90EF90DF90CF90FF
:1015F000BF90AF909F908F907F906F905F904F9033
:1016000008955B01AC1ABD0A4C018C0E9D1EA09181
:10161000F403B091F503512C412CF12CE12C1097DF
:1016200031F58091F2039091F3038815990509F043
:101630005CC04616570608F058C080911802909179
:101640001902009741F48DB79EB740911C0250914A
:101650001D02841B950BE817F90708F055C0F0939D
:10166000F303E093F203F90171836083B8CF8D91A6
:101670009C91119712966C90129713967C901397E9
:10168000A815B90559F56C0142E0C40ED11CCA1465
:10169000DB0420F1AC014A195B09DA0112961597B7
:1016A00080F06282738251834083D9016D937C9371
:1016B000E114F10471F0D7011396FC93EE931297A5
:1016C0008ECF22968C0F9D1FF90191838083F301A9
:1016D000EFCFF093F503E093F40381CF481659065A
:1016E00008F42C017D01D3019ACFCB010E9481091E
:1016F0007C01009749F0AE01B8010E94870BC80138
:101700000E941D0A87016BCF10E000E068CFFB014B
:10171000DC0102C001900D9241505040D8F708956D
:10172000FB01DC0101900D920020E1F7089511E02A
:10173000CDE3D1E000E006C0802FFE010E947909D0
:101740002196011DCE33D10780E00807A9F7F89450
:02175000FFCFC9
:101752001A1B1C1D161718193738392F3435362A1B
:101762003132332D43303D2B0000F6038000000060
:101772000000070271019E015402CF01AD01C101B7
:0E178200000000005C04580430040D0A000052
:00000001FF
