:100000000C9438010C9469010C9469010C946901F9
:100010000C9469010C9469010C9469010C946901B8
:100020000C9469010C9469010C9469010C946901A8
:100030000C9469010C9469010C9469010C94690198
:100040000C9469010C9469010C9469010C94690188
:100050000C9469010C9469010C9469010C94C90514
:100060000C9469010C9469010C9469010C94690168
:100070000C9469010C9469010C9469010C94690158
:100080000C9469010C9469010C9469010C94690148
:100090000C9469010C9469010C9469010C94690138
:1000A0000C9469010C9469010C9469010C94690128
:1000B0000C9469010C9469010C9469010C94690118
:1000C0000C9469010C9469010C9469010C94690108
:1000D0000C9469010C9469010C9469010C946901F8
:1000E0000C9469010C94BC020C948F020C948B024A
:1000F0000C9473020C948A020C942D030C94FF014F
:100100000C9481020C945F020C945C020C947D02AE
:100110000C944B0A0C9458020C9431030C948502F5
:100120000C94C1090C9469020C9454020C9465025D
:100130000C944A020C94ED020C94FE010C94C7043A
:100140000C9477020C946F020C9450020000210072
:10015000240027002A002D00300033000101000098
:10016000040107010A0100002200250028002B00DD
:100170002E003100340002010000050108010B01CE
:10018000000020002300260029002C002F00320050
:100190000001000003010601090105050505070529
:1001A00008080808020202020A0A080804040404F3
:1001B000010101010101010103030303030303031F
:1001C000040707070C0C0C0C0C0C0C0C02020202AE
:1001D00006060606060606060B0B0B0B0B0B0B0B97
:1001E0000102102020080810204010204080020149
:1001F000020108040201010204081020408080402E
:10020000201008040201800402018040201008042C
:1002100002010804020101020408102040800102CA
:1002200004081020408000000A0B02090C0D0E0883
:1002300007030401000000000000000000000000AF
:1002400000000000000000000000000000000000AE
:10025000000012111000000000000000000000006B
:10026000000000000000000000000000C1094B0A6F
:1002700011241FBECFEFD1E2DEBFCDBF00E00CBF27
:1002800022E0A6E4B2E001C01D92AA3FB207E1F766
:1002900012E0A0E0B2E0E0E0FBE100E00BBF02C052
:1002A00007900D92A634B107D9F711E0C7E3D1E06A
:1002B00000E006C021970109802FFE010E94470B34
:1002C000C633D10780E00807A9F70E9413060C94F3
:1002D0006E0D0C94000096E0899FD0011124A7595F
:1002E000BD4F90967C936E935F9791E091969C930F
:1002F0009197E091D602F091D7029091D50299237F
:1003000039F0309751F0811108C08091850219941D
:10031000309719F05C968C91FACF0895CF92DF92C6
:10032000EF92FF920F931F9396E0899FF0011124A3
:10033000E759FD4F11A2278D30A12130310551F130
:1003400078F02230310509F451C02330310509F429
:1003500052C01F910F91FF90EF90DF90CF900895C2
:100360006623B9F361E070E00E946B012FB7F89447
:100370008091650290916602A0916702B091680237
:100380002FBF8093C1029093C202A093C302B09387
:10039000C402DFCF9FB7F894C0906502D090660288
:1003A000E0906702F09068029FBF0091C102109137
:1003B000C2022091C3023091C402C01AD10AE20ADB
:1003C000F30A0091D3021091D40230E020E00C1522
:1003D0001D052E053F0550F462E070E01F910F915E
:1003E000FF90EF90DF90CF900C946B016111B1CF33
:1003F00063E070E0F3CF70E060E0F0CF0895AF927B
:10040000BF92CF92DF92EF92FF920F931F93CF9301
:10041000DF936C017B018B01040F151FEB015E0163
:10042000AE18BF08C017D10759F06991D601ED91F8
:10043000FC910190F081E02DC6011995892B79F787
:10044000C501DF91CF911F910F91FF90EF90DF9049
:10045000CF90BF90AF9008958150823108F05AC07C
:10046000E82FF0E08827E85CFD4F8F4F0C94470B96
:1004700058025C024A02500254028A025F0265027C
:1004800069026F02730277027D0281028A0285028D
:100490008B028F02809180008F7780938000089577
:1004A000809180008F7DF9CF80918000877FF5CF8C
:1004B00084B58F7784BD089584B58F7DFBCF8091FF
:1004C000B0008F778093B00008958091B0008F7D49
:1004D000F9CF809190008F7780939000089580915C
:1004E00090008F7DF9CF80919000877FF5CF80912C
:1004F000A0008F778093A00008958091A0008F7D49
:10050000F9CF8091A000877FF5CF809120018F7770
:10051000809320010895809120018F7DF9CF8091F3
:100520002001877FF5CFCF93DF93282F30E0F901AB
:10053000EA5DFD4F8491F901E052FE4FD491F9013B
:10054000E656FE4FC491CC23A1F081110E942C02EB
:10055000EC2FF0E0EE0FFF1FE058FE4FA591B49195
:10056000EC91ED2381E090E009F480E0DF91CF9100
:10057000089580E090E0FACF862F0C9493021F93A9
:10058000CF93DF93282F30E0F901EA5DFD4F84918E
:10059000F901E052FE4FD491F901E656FE4FC491A5
:1005A000CC23A9F0162F81110E942C02EC2FF0E031
:1005B000EE0FFF1FEA59FE4FA591B4918FB7F89443
:1005C000EC91111108C0D095DE23DC938FBFDF9131
:1005D000CF911F910895DE2BF8CF862F642F0C94B6
:1005E000BF02CF93DF9390E0FC01E052FE4F2491D5
:1005F00086569E4FFC0184918823C9F090E0880FB5
:10060000991FFC01E45BFE4FA591B491FC01EA59EE
:10061000FE4FC591D49161110DC09FB7F8948C9194
:10062000209582238C938881282328839FBFDF9184
:10063000CF910895623051F49FB7F8943C91822F86
:10064000809583238C93E8812E2BEFCF8FB7F8947E
:10065000EC912E2B2C938FBFEACF862F642F0C9416
:10066000F10290E080E008958F929F92AF92BF9246
:100670000F931F93CF93DF93CDB7DEB7A1970FB63C
:10068000F894DEBF0FBECDBF19A2423008F44AE095
:100690008E010F5D1F4F842E912CB12CA12CA50132
:1006A00094010E94060BE62FB901CA01EA3044F515
:1006B000E05DD801EE938D01232B242B252B79F7B8
:1006C00090E080E0109769F0FD0101900020E9F7CB
:1006D0003197AF014A1B5B0BBD018EED92E00E948A
:1006E000FF01A1960FB6F894DEBF0FBECDBFDF911C
:1006F000CF911F910F91BF90AF909F908F900895D1
:10070000E95CD7CFCF93DF93EC0160E08E810E944C
:10071000BF0261E08E810E94BF0260E08E810E9474
:10072000BF028BE891E00197F1F7DF91CF91089537
:10073000CF92DF92EF92FF920F931F93CF93DF93AD
:100740006C017C0187E0E80EF11CD0E0C0E0062FD0
:1007500010E0B8010C2E02C0759567950A94E2F777
:100760006170F70181917F010E94BF022196C43020
:10077000D10579F7C601DF91CF911F910F91FF90BD
:10078000EF90DF90CF900C948203CF92DF92EF92A4
:10079000FF920F931F93CF93DF93EC01F62E642FFC
:1007A0008C810E94BF028D818F3F19F060E00E9412
:1007B000BF020F2D10E08F8584FF25C06E0187E0FA
:1007C000C80ED11CF12CE12CB8010E2C02C075957D
:1007D00067950A94E2F76170F60181916F010E94BA
:1007E000BF02FFEFEF1AFF0A88E0E816F10461F795
:1007F000CE01DF91CF911F910F91FF90EF90DF908D
:10080000CF900C948203B80184E0759567958A9522
:10081000E1F7CE010E9498036F2DCE01DF91CF91B9
:100820001F910F91FF90EF90DF90CF900C94980361
:1008300040E0682F8EED92E00C94C50381E00E94A9
:1008400018048BE39FE10197F1F70895CF93DF93AD
:10085000823029F49091ED0298609093ED0280939C
:10086000F1021092F20280E48093F30280E180931F
:10087000F40280E58093F50261E08091E2020E943B
:10088000F1028091E3028F3F19F061E00E94F102D2
:1008900061E08091E4020E94F102CEEDD2E09E017F
:1008A0002E5D32408091ED0284FD0BC084E090E02B
:1008B00021962817390744F461E08E810E94F102E5
:1008C000EECF88E090E0F4CF8BE39DE00197F1F765
:1008D00060E08091E2020E94BF0260E08091E40249
:1008E0000E94BF028091E3028F3F19F060E00E94F6
:1008F000BF028091ED0284FD34C063E08EED92E092
:100900000E949803CBE4D6E4CE010197F1F763E0AF
:100910008EED92E00E9498032197F1F763E08EED4F
:1009200092E00E94980383E592E00197F1F762E07C
:100930008EED92E00E9498038091ED0280620E9409
:10094000180484E08093EE028CE00E9418040E9458
:100950001E0482E08093EF0286E0DF91CF910C9439
:10096000180480620E9418048BE496E40197F1F762
:100970008091ED0280620E94180483E592E0019765
:10098000F1F78091ED0280620E941804D5CF41E01A
:100990000E94C50381E090E00895FC01808191816F
:1009A000009711F00C94EB0B0895FC01808191816C
:1009B000009711F00C945F0A60E070E0CB0108959D
:1009C000FC0124813581232B39F421E0FB01808156
:1009D000882349F020E007C0808191810E945E0D4C
:1009E00021E0892BB9F7822F08950F931F93CF939E
:1009F000DF93EC0188819981009759F02A813B812E
:100A00002617370730F081E0DF91CF911F910F91CA
:100A100008958B016F5F7F4F0E94740C009759F00F
:100A2000998388831B830A832C813D81232B59F76B
:100A3000FC011082E8CF80E0E7CFEF92FF920F93A6
:100A40001F93CF93DF93CDB7DEB72E970FB6F894F1
:100A5000DEBF0FBECDBF2AE0AE014F5F5F4F7A0110
:100A60000E94860AF70101900020E9F73197EE19FC
:100A7000FF09F1F00091DC021091DD020E0F1F1F43
:100A8000B80188ED92E00E94F504882391F020914E
:100A9000D8023091D9028091DC029091DD02B70139
:100AA000820F931F0E94670D1093DD020093DC02FA
:100AB00081E02E960FB6F894DEBF0FBECDBFDF915A
:100AC000CF911F910F91FF90EF900895EF92FF92B9
:100AD0000F931F93CF93DF93EC017B018A01BA013F
:100AE0000E94F50428813981811114C02115310536
:100AF00019F0C9010E94EB0B198218821D821C8219
:100B00001B821A82CE01DF91CF911F910F91FF902E
:100B1000EF9008951D830C83B701C9010E94670DF2
:100B2000F1CFFC011182108213821282158214828D
:100B300050E040E06BE372E00C946605FB0101902D
:100B40000020E9F73197AF01461B570B0C9466055F
:100B5000CF93DF93EC01FB018617970749F0608183
:100B600071816115710541F0448155810E946605CE
:100B7000CE01DF91CF91089588819981009711F07E
:100B80000E94EB0B198218821D821C821B821A8222
:100B9000EFCF1F920F920FB60F9211242F933F9316
:100BA0008F939F93AF93BF9380916502909166025C
:100BB000A0916702B091680230914A0223E0230FAE
:100BC0002D3758F50196A11DB11D20934A0280933F
:100BD000650290936602A0936702B09368028091C9
:100BE000460290914702A0914802B09149020196B5
:100BF000A11DB11D8093460290934702A093480225
:100C0000B0934902BF91AF919F918F913F912F91E6
:100C10000F900FBE0F901F90189526E8230F029695
:100C2000A11DB11DD2CFCF93DF9300D000D01F9272
:100C30001F92CDB7DEB7789484B5826084BD84B549
:100C4000816084BD85B5826085BD85B5816085BDC7
:100C500080916E00816080936E001092810080917F
:100C60008100826080938100809181008160809307
:100C70008100809180008160809380008091B1002C
:100C800084608093B1008091B00081608093B00057
:100C900080919100826080939100809191008160A9
:100CA000809391008091900081608093900080916A
:100CB000A10082608093A1008091A1008160809357
:100CC000A1008091A00081608093A000809121010B
:100CD00082608093210180912101816080932101B4
:100CE0008091200181608093200180917A0084604E
:100CF00080937A0080917A00826080937A0080915C
:100D00007A00816080937A0080917A008068809375
:100D10007A001092C10082E00E9426040E941E0404
:100D2000412C512C3201439440E0A42E40E0B42EDB
:100D300021E02093D5028FB7F8944091650250913D
:100D4000660260916702709168028FBF8091C50250
:100D50009091C602A091C702B091C802481B590BDE
:100D60006A0B7B0B8091D1029091D202B0E0A0E09F
:100D700084179507A607B70708F01DC110E08091FA
:100D8000CF02181760F4E091CB02F091CC02E10F92
:100D9000F11D62E080810E94F1021F5FF0CF312CD3
:100DA0008091D002381608F061C0E32CF12CE0915C
:100DB000CD02F091CE02EE0DFF1D61E080810E9418
:100DC000F102E091CD02F091CE02EE0DFF1D60E048
:100DD00080810E94BF02D301C201032C04C0880F8E
:100DE000991FAA1FBB1F0A94D2F74C016C01C09433
:100DF000D094212C8091CF02281608F5022D10E006
:100E0000E091CB02F091CC02E00FF11F80810E94B3
:100E100093020C5F1F4F000F111FF801E759FD4FA0
:100E2000892B41F48081918188299929918380833C
:100E30002394E0CF808191818C219D21F7CFE09197
:100E4000CD02F091CE02EE0DFF1D61E080810E9487
:100E5000BF028091CD029091CE02E80EF91E60E0B3
:100E6000F70180810E94F10233949ACF09E612E0E3
:100E70007801F701878D90A1892B31F4148E2FEF23
:100E80003FEF368F258F11A236E0E30EF11C45EAC5
:100E9000E41642E0F40669F7912C8091CF0298168F
:100EA00008F053C0812CC92CD12CCC0CDD1CC60100
:100EB0008F589D4F6C012091D002821608F043C0DC
:100EC000F60160817181082C02C0769567950A94BD
:100ED000E2F7929E90011124280D311DE9E6F2E01F
:100EE00080E0458D568D2417350709F448C28F5F81
:100EF00036968A30B1F760FF24C0E9E6F2E090E070
:100F000080E0448D411118C0E091C902F091CA02FD
:100F1000E20FF31F408156E0589FF001599FF00DFA
:100F20001124E759FD4F448F368F258F10A2178E5D
:100F300061E00E948E0105C0019636968A309105C7
:100F400001F78394B8CF9394A8CF80E0F80191A1E2
:100F50009111892F0A5F1F4FE016F106B9F79FB76D
:100F6000F894409165025091660260916702709119
:100F700068029FBF4093C5025093C6026093C702A8
:100F80007093C8028823B9F080918A02882399F06F
:100F90008091880290918902019769F410918502ED
:100FA0001093640211110CC0A114B10409F4C0CE55
:100FB0000E940000BDCE1092D50210926402F4CFC0
:100FC00080916302882321F00E941E041092630224
:100FD000133481F50E941E04109263026BE372E0E9
:100FE0008DE592E00E949E056BE372E087E592E05A
:100FF0000E949E056BE372E081E592E00E949E05EF
:101000006BE372E088ED92E00E949E056BE372E074
:101010008BE492E00E949E05E1E08091F102811153
:10102000E0E0E195F0E0E252FD4F848980680E94A3
:101030001804BACF1D3309F0E5C06BE372E088ED08
:1010400092E00E949E056BE372E08DE592E00E94C3
:10105000E0046BE372E0882309F456C087E592E070
:101060000E94E00464E372E08111B4C067E572E0BD
:1010700088ED92E00E94A80531E030936302E09190
:10108000F102E23008F0BCC0E150F0E0E252FD4F66
:10109000848980680E9418044091DC025091DD022E
:1010A0006091D8027091D9028EED92E00E94FF010A
:1010B000E1E08091F1028111E0E0E195F0E0E2529F
:1010C000FD4F848980680E9418046BE372E08DE50F
:1010D00092E00E949E056BE372E087E592E00E9439
:1010E0009E056BE372E081E592E00E949E056BE352
:1010F00072E088ED92E00E949E056BE372E08BE463
:1011000092E00E949E0550CF87E592E00E94E004A5
:101110006DE572E08111ACCF66E372E081E592E0AB
:101120000E94E00481111BC068E372E081E592E057
:101130000E94E004882321F18DE592E00E94D5040D
:101140006B017C0187E592E00E94D504A70196011E
:10115000261B370B480B590BCA01B9010EC08DE590
:1011600092E00E94D5046B017C0187E592E00E9429
:10117000D5046C0D7D1D8E1D9F1D0E941D057CCF0D
:101180006AE372E081E592E00E94E004882379F04E
:101190008DE592E00E94D5046B017C0187E592E029
:1011A0000E94D504A70196010E94F60AE6CF6CE3DF
:1011B00072E081E592E00E94E004882309F45CCFAC
:1011C00064E372E087E592E00E94E004882339F04E
:1011D0006EE372E088ED92E00E949E054DCF8DE5B2
:1011E00092E00E94D5046B017C0187E592E00E94A9
:1011F000D5049B01AC01C701B6010E94280BACCFFE
:10120000E1E043CF812F8D7F8D3229F086ED810F74
:10121000823008F07AC06BE372E08BE492E00E94C7
:101220009E051A8219821C821B821E821D821F83C8
:101230001886BE01695F7F4FCE0101960E949E0510
:101240008091510290915202009709F43FC0698148
:101250007A8161157105C1F1409153025091540298
:101260002D813E814217530778F10E94670D8D81D1
:101270009E8190935602809355021E821D82CE015C
:1012800001960E94CD046BE372E08DE592E00E942E
:10129000E004882391F164E372E08DE592E00E941E
:1012A0009E054AE060E070E0CB010E94340340916B
:1012B00055025091560260915102709152028EED8A
:1012C00092E00E94FF0170CE0E94EB0B89819A810F
:1012D00090935202809351028B819C81909354028F
:1012E000809353028D819E81909356028093550284
:1012F0001A8219821C821B82C0CF41E06091640275
:101300008EED92E00E94C5034FCE41E0612F8EED3D
:1013100092E00E94C50319831A8200914F02109136
:1013200050020F5F1F4FB8018BE492E00E94F5045A
:10133000882399F020914B0230914C0280914F020A
:1013400090915002BE016F5F7F4F820F931F0E94EA
:10135000670D1093500200934F026BE372E081E53A
:1013600092E00E94E0046BE472E0882329F08DE5AE
:1013700092E00E94A80518CE87E592E0FACF61704E
:10138000D8CD1092E1021092E0028CE292E09093AC
:10139000DF028093DE028DE08093E2028FEF809384
:1013A000E3028CE08093E40288E08093E50289E028
:1013B0008093E6028AE08093E7028BE08093E80264
:1013C0001092E9021092EA021092EB021092EC02E3
:1013D0001092ED0281E00E94260410926B0210929E
:1013E0006F0210926E021092700282E292E090936D
:1013F0006A0280936902E5E8F2E0108214821382A7
:101400001582369682E0E13CF807B9F784E092E075
:101410009093CC028093CB0280E092E09093CE0236
:101420008093CD0284E08093CF028093D00288E045
:1014300092E09093CA028093C9028AE090E0909370
:10144000D2028093D10284EF91E09093D4028093F2
:10145000D3021092D7021092D6021092C5021092B7
:10146000C6021092C7021092C8021092D5028BE4F5
:1014700092E00E9491058DE592E00E94910587E53A
:1014800092E00E94910581E592E00E94910588ED2D
:1014900092E00C94910588ED92E00E94CD0481E5E4
:1014A00092E00E94CD0487E592E00E94CD048DE594
:1014B00092E00E94CD048BE492E00C94CD041F9343
:1014C000FC0199278827BC01E89411911032E9F3B7
:1014D000193010F01E30C8F31B3251F01D3249F4A0
:1014E000689406C00E94950A610F711D811D911DAF
:1014F000119110531A30B0F33EF490958095709589
:1015000061957F4F8F4F9F4F1F910895BB272A30C2
:1015100051F4992342F4BDE29095809570956195C0
:101520007F4F8F4F9F4F0C94AB0A592F482F372F67
:10153000262F660F771F881F991F660F771F881F3A
:10154000991F620F731F841F951F660F771F881FD7
:10155000991F0895BB27FA01A62F6217710581050F
:101560009105330B30FB66F0AA27660F771F881FA3
:10157000991FAA1FA21710F0A21B63953850A9F754
:10158000A05DAA3308F0A95DA19336F7B111B1931C
:101590001082CA010C94CC0ADC01FC01672F719106
:1015A0007723E1F7329704C07C916D937083629149
:1015B000AE17BF07C8F308950E94E70AA59F900DD4
:1015C000B49F900DA49F800D911D11240895A29F9A
:1015D000B001B39FC001A39F700D811D1124911D07
:1015E000B29F700D811D1124911D0895DB018F9311
:1015F0009F930E94DC0ABF91AF91A29F800D911D25
:10160000A39F900DB29F900D11240895A1E21A2E70
:10161000AA1BBB1BFD010DC0AA1FBB1FEE1FFF1F96
:10162000A217B307E407F50720F0A21BB30BE40BE6
:10163000F50B661F771F881F991F1A9469F760952D
:101640007095809590959B01AC01BD01CF010895E7
:10165000052E97FB1EF400940E943F0B57FD07D008
:101660000E94060B07FC03D04EF40C943F0B5095E0
:101670004095309521953F4F4F4F5F4F089590957E
:101680008095709561957F4F8F4F9F4F0895EE0F16
:10169000FF1F881F8BBF0790F691E02D19940F93C1
:1016A0001F93CF93DF938230910510F482E090E096
:1016B000E091F802F091F90230E020E0B0E0A0E023
:1016C000309799F42115310509F44AC0281B390BCC
:1016D00024303105D8F58A819B816115710589F126
:1016E000FB0193838283FE0111C0408151810281FD
:1016F000138148175907E0F04817590799F41097D4
:1017000061F012960C93129713961C933296CF01A8
:10171000DF91CF911F910F9108950093F8021093DC
:10172000F902F4CF2115310551F04217530738F073
:10173000A901DB019A01BD01DF01F801C1CFEF0171
:10174000F9CF9093F9028093F802CDCFFE01E20F1A
:10175000F31F819391932250310939832883D7CF86
:101760002091F6023091F702232B41F420911A02C6
:1017700030911B023093F7022093F6022091180259
:10178000309119022115310541F42DB73EB7409132
:101790001C0250911D02241B350BE091F602F091C2
:1017A000F702E217F307A0F42E1B3F0B28173907A7
:1017B00078F0AC014E5F5F4F2417350748F04E0FAD
:1017C0005F1F5093F7024093F602819391939FCF4E
:1017D000F0E0E0E09CCFCF93DF930097E9F0FC01CD
:1017E000329713821282A091F802B091F902ED01B2
:1017F00030E020E01097A1F420813181820F931F07
:101800002091F6023091F7022817390709F061C0DC
:10181000F093F702E093F602DF91CF910895EA0189
:10182000CE17DF07E8F54A815B819E01411551051E
:10183000B1F7E901FB83EA8349915991C40FD51FA0
:10184000EC17FD0761F4808191810296840F951F4A
:10185000E90199838883828193819B838A83F0E065
:10186000E0E012968D919C9113970097B9F52D9118
:101870003C911197CD010296820F931F2091F602A1
:101880003091F7022817390739F6309751F5109241
:10189000F9021092F802B093F702A093F602BCCFBF
:1018A000D383C28340815181840F951FC817D90704
:1018B00061F44E5F5F4F88819981480F591F5183B2
:1018C00040838A819B81938382832115310509F0AE
:1018D000B0CFF093F902E093F8029ECFFD01DC0156
:1018E000C0CF13821282D7CF4F925F926F927F92B6
:1018F0008F929F92AF92BF92CF92DF92EF92FF9220
:101900000F931F93CF93DF938C01009799F4CB0132
:10191000DF91CF911F910F91FF90EF90DF90CF90CB
:10192000BF90AF909F908F907F906F905F904F90FF
:101930000C944F0BFC01E60FF71F9C01225031095C
:10194000E217F30708F4AEC0D901CD91DC911197ED
:10195000C617D70720F1C530D10578F0CE0104971E
:101960008617970750F0C61BD70B2297C193D193C8
:101970006D937C93CF010E94EB0BC801DF91CF9157
:101980001F910F91FF90EF90DF90CF90BF90AF909D
:101990009F908F907F906F905F904F9008955B0124
:1019A000AC1ABD0A4C018C0E9D1EA091F802B0919C
:1019B000F902512C412CF12CE12C109731F580913A
:1019C000F6029091F7028815990509F05CC0461659
:1019D000570608F058C0809118029091190200979C
:1019E00041F48DB79EB740911C0250911D02841B9B
:1019F000950BE817F90708F055C0F093F702E0934C
:101A0000F602F90171836083B8CF8D919C91119793
:101A100012966C90129713967C901397A815B9059F
:101A200059F56C0142E0C40ED11CCA14DB0420F14C
:101A3000AC014A195B09DA011296159780F06282AF
:101A4000738251834083D9016D937C93E114F10437
:101A500071F0D7011396FC93EE9312978ECF2296D6
:101A60008C0F9D1FF90191838083F301EFCFF093D9
:101A7000F902E093F80281CF4816590608F42C01C8
:101A80007D01D3019ACFCB010E944F0B7C010097BF
:101A900049F0AE01B8010E94550DC8010E94EB0B40
:101AA00087016BCF10E000E068CFFB01DC0102C0D2
:101AB00001900D9241505040D8F70895FB01DC0190
:101AC0008D91019080190110D9F3990B0895FB01B4
:101AD000DC0101900D920020E1F7089511E0C7E3C9
:101AE000D1E000E006C0802FFE010E94470B219646
:101AF000011DC833D10780E00807A9F7F894FFCF8C
:101B00001A1B1C1D161718193738392F3435362A69
:101B10003132332D43303D2B0000FA0280000000AB
:101B200000002D03ED02BC0200000000C704FF010D
:101B30003103FE0130002B002D002A002F00496EDA
:061B400076616C6964008F
:00000001FF
