:100000000C9422010C9453010C9453010C94530151
:100010000C9453010C9453010C9453010C94530110
:100020000C9453010C9453010C9453010C94530100
:100030000C9453010C9453010C9453010C945301F0
:100040000C9453010C9453010C9453010C945301E0
:100050000C9453010C9453010C9453010C94DA0347
:100060000C9453010C9453010C9453010C945301C0
:100070000C9453010C9453010C9453010C945301B0
:100080000C9453010C9453010C9453010C945301A0
:100090000C9453010C9453010C9453010C94530190
:1000A0000C9453010C9453010C9453010C94530180
:1000B0000C9453010C9453010C9453010C94530170
:1000C0000C9453010C9453010C9453010C94530160
:1000D0000C9453010C9453010C9453010C94530150
:1000E0000C9453010C94D4030C94E4040C940F026C
:1000F0000C94FF010C9490020C94D9010C94F4011F
:100100000C9413020C94FC010C94F8010C942B0237
:100110000C94F0010C9409020C948F020C940502CB
:100120000C941D020C94DE010C9421020C942F02FD
:100130000C9425020C9474010C94170200000A0B15
:1001400002090C0D0E080703040100000000000066
:10015000000000000000000000000000000000009F
:10016000000000000000000012111000000000005C
:10017000000000000000000000000000000000007F
:10018000000000002200250028002B002E00310076
:10019000340002010000050108010B0100002100EC
:1001A000240027002A002D00300033000101000048
:1001B000040107010A0105050505070508080808E7
:1001C000020202020A0A08080404040401010101EF
:1001D00001010101030303030303030304070707EA
:1001E0000C0C0C0C0C0C0C0C02020202060606068F
:1001F000060606060B0B0B0B0B0B0B0B010210205C
:10020000200808102040102040800201020108044C
:1002100002010102040810204080804020100804E0
:100220000201800402018040201008040201080439
:10023000020101020408102040800102040810207D
:100240004080E40411241FBECFEFD1E2DEBFCDBF5A
:1002500000E00CBF12E0A0E0B2E0E8E1FAE000E06C
:100260000BBF02C007900D92AE30B107D9F722E064
:10027000AEE0B2E001C01D92AF32B207E1F711E08B
:10028000C2E2D1E000E006C021970109802FFE0103
:100290000E940205C132D10780E00807A9F70E9439
:1002A00024040C940A050C94000090E0FC01E45036
:1002B000FE4F24918A549E4FFC018491882399F02B
:1002C00090E0880F991FFC01E456FE4FA591B49170
:1002D000FC01EE57FE4F859194918FB7F894EC9105
:1002E000E22BEC938FBF0895AF92BF92CF92DF9233
:1002F000EF92FF920F931F93CF93DF936C017B01DB
:100300008B01040F151FEB015E01AE18BF08C0176B
:10031000D10759F06991D601ED91FC910190F081DE
:10032000E02DC6011995892B79F7C501DF91CF9191
:100330001F910F91FF90EF90DF90CF90BF90AF9003
:10034000089541E050E06CE072E087E192E00C94A7
:100350007401282F30E0F901E45CFE4F9491F9011B
:10036000E450FE4F44912A543E4FF9012491222338
:1003700009F435C0992311F191509231F8F4E92F25
:10038000F0E08827E953FE4F8F4F0C940205F801E7
:10039000FC01D901F001F401DE01FF0105020902AF
:1003A0000F02130217021D022102DE0125022B0299
:1003B0002F02809180008F7780938000E22FF0E001
:1003C000EE0FFF1FEE57FE4FA591B4918FB7F89433
:1003D000EC91611148C040954E234C938FBF089516
:1003E000809180008F7DE8CF80918000877FE4CF6F
:1003F00084B58F7784BDE2CF84B58F7DFBCF8091AC
:10040000B0008F778093B000D9CF8091B0008F7DFE
:10041000F9CF809190008F7780939000CFCF80911B
:1004200090008F7DF9CF80919000877FF5CF8091EC
:10043000A0008F778093A000C1CF8091A0008F7D16
:10044000F9CF8091A000877FF5CF809120018F7731
:1004500080932001B3CF809120018F7DF9CF8091CF
:100460002001877FF5CF4E2BB8CF3FB7F89480910E
:10047000130290911402A0911502B091160226B5B4
:10048000A89B05C02F3F19F00196A11DB11D3FBFCC
:10049000BA2FA92F982F8827BC01CD01620F711D9B
:1004A000811D911D42E0660F771F881F991F4A9595
:1004B000D1F708958F929F92AF92BF92CF92DF9221
:1004C000EF92FF920E9435024B015C0184E6C82E38
:1004D000D12CE12CF12C0E943502681979098A0986
:1004E0009B09683E734081059105A8F321E0C21A7B
:1004F000D108E108F10888EE880E83E0981EA11C5F
:10050000B11CC114D104E104F10429F7FF90EF906C
:10051000DF90CF90BF90AF909F908F9008950895F7
:1005200090E080E00895CF93DF93EC0160E08E814E
:100530000E94A90161E08E810E94A90160E08E8184
:100540000E94A9018BE891E00197F1F7DF91CF912B
:100550000895CF92DF92EF92FF920F931F93CF9364
:10056000DF936C017C0187E0E80EF11CD0E0C0E075
:10057000062F10E0B8010C2E02C0759567950A94FD
:10058000E2F76170F70181917F010E94A901219634
:10059000C430D10579F7C601DF91CF911F910F913A
:1005A000FF90EF90DF90CF900C949302CF92DF9268
:1005B000EF92FF920F931F93CF93DF93EC01F62EF0
:1005C000642F8C810E94A9018D818F3F19F060E01A
:1005D0000E94A9010F2D10E08F8584FF25C06E01B8
:1005E00087E0C80ED11CF12CE12CB8010E2C02C002
:1005F000759567950A94E2F76170F60181916F0134
:100600000E94A901FFEFEF1AFF0A88E0E816F10443
:1006100061F7CE01DF91CF911F910F91FF90EF9085
:10062000DF90CF900C949302B80184E075956795A4
:100630008A95E1F7CE010E94A9026F2DCE01DF91CC
:10064000CF911F910F91FF90EF90DF90CF900C947E
:10065000A90240E0682F87E192E00C94D60281E085
:100660000E9429038BE39FE10197F1F70895CF934F
:10067000DF93823029F490912602986090932602AD
:1006800080932A0210922B0280E480932C0280E156
:1006900080932D0280E580932E0280911B020E94A0
:1006A000550180911C028F3F11F00E9455018091ED
:1006B0001D020E945501C7E1D2E09E012751324040
:1006C0008091260284FD0AC084E090E021962817DC
:1006D00039073CF48E810E945501EFCF88E090E00D
:1006E000F5CF8BE39DE00197F1F760E080911B026D
:1006F0000E94A90160E080911D020E94A9018091E1
:100700001C028F3F19F060E00E94A901809126022F
:1007100084FD34C063E087E192E00E94A902CBE44B
:10072000D6E4CE010197F1F763E087E192E00E9401
:10073000A9022197F1F763E087E192E00E94A90204
:1007400083E592E00197F1F762E087E192E00E9491
:10075000A9028091260280620E94290384E080938E
:1007600027028CE00E9429030E942F0382E08093DD
:10077000280286E0DF91CF910C94290380620E94C9
:1007800029038BE496E40197F1F7809126028062B9
:100790000E94290383E592E00197F1F780912602F8
:1007A00080620E942903D5CF41E00E94D60281E0F9
:1007B00090E008951F920F920FB60F9211242F937D
:1007C0003F938F939F93AF93BF9380910F0290912C
:1007D0001002A0911102B091120230910E0223E09A
:1007E000230F2D3758F50196A11DB11D20930E0240
:1007F00080930F0290931002A0931102B093120203
:100800008091130290911402A0911502B0911602EA
:100810000196A11DB11D8093130290931402A09321
:100820001502B0931602BF91AF919F918F913F91A6
:100830002F910F900FBE0F901F90189526E8230F51
:100840000296A11DB11DD2CF789484B5826084BD7B
:1008500084B5816084BD85B5826085BD85B58160C4
:1008600085BD80916E00816080936E001092810042
:1008700080918100826080938100809181008160FD
:1008800080938100809180008160809380008091BE
:10089000B10084608093B1008091B000816080934A
:1008A000B0008091910082608093910080919100CE
:1008B000816080939100809190008160809390008E
:1008C0008091A10082608093A1008091A10081604D
:1008D0008093A1008091A00081608093A00080910E
:1008E00021018260809321018091210181608093A8
:1008F00021018091200181608093200180917A0004
:10090000846080937A0080917A00826080937A007C
:1009100080917A00816080937A0080917A0080686B
:1009200080937A001092C10082E00E943703E1E0D8
:1009300080912A028111E0E0E195F0E0E95EFD4F4F
:10094000848980680E9429030E94A101C0E0D0E050
:100950000E942F03E1E080912A028111E0E0E195FD
:10096000F0E0E95EFD4F848980680E9429030E94BF
:10097000A10100E110E00E945A028CE10E942903CB
:1009800001501109C1F70E942F03E0912A02E230C1
:10099000C8F4E150F0E0E95EFD4F848980680E9470
:1009A00029030E94A10100E110E00E945A028CE19B
:1009B0000E94290301501109C1F7209749F20E94B2
:1009C0000000C6CFE1E0E6CFE7E1F2E01382128259
:1009D00084E092E0918380838DE084838FEF858330
:1009E0008CE0868388E0878389E080878AE081873E
:1009F0008BE082871386148615861686178681E01B
:100A00000C943703EE0FFF1F881F8BBF0790F691E2
:080A1000E02D1994F894FFCFCA
:0E0A180000000000D403740190028F02410020
:00000001FF
