:020000040000FA
:100000000C9445010C9476010C9476010C947601C5
:100010000C9476010C9476010C9476010C94760184
:100020000C9476010C9476010C9476010C94760174
:100030000C9476010C9476010C9476010C94760164
:100040000C9476010C94FE0A0C9476010C947601C3
:100050000C9476010C9476010C9476010C942A0A87
:100060000C9476010C94F4090C94CA090C94760152
:100070000C9476010C9476010C9476010C94760124
:100080000C94D00A0C9476010C9476010C947601B1
:100090000C9476010C9476010C9476010C94760104
:1000A0000C9476010C9476010C94A20A0C947601BF
:1000B0000C9476010C9476010C9476010C94740ADD
:1000C0000C9476010C9476010C9476010C947601D4
:1000D0000C9476010C9476010C9476010C947601C4
:1000E0000C9476010C9429030C944F030C941A037E
:1000F0000C9412020C9471050C946C050C94FE0186
:100100000C944F060C9459030C94C2010C94700586
:100110000C943D030C9447030C9441030C9454033A
:100120000C9468050C942F030C9458020C9426032D
:100130000C94EF010C9420020C944B030C942C0BA8
:100140000C941E030C943B090C9439030C94130675
:100150000C9414030C9455030C94A5020C9465059F
:100160000C9422030C943303000021002400270088
:100170002A002D00300033000101000004010701B6
:100180000A0100002200250028002B002E0031006B
:10019000340002010000050108010B0100002000ED
:1001A0002300260029002C002F003200000100004F
:1001B00003010601090105050505070508080808EA
:1001C000020202020A0A08080404040401010101EF
:1001D00001010101030303030303030304070707EA
:1001E0000C0C0C0C0C0C0C0C02020202060606068F
:1001F000060606060B0B0B0B0B0B0B0B010210205C
:10020000200808102040102040800201020108044C
:1002100002010102040810204080804020100804E0
:100220000201800402018040201008040201080439
:10023000020101020408102040800102040810207D
:10024000408000000A0B02090C0D0E080703040190
:10025000000000000000000000000000000000009E
:10026000000000000000000000000000000012116B
:10027000100000000000000000000000000000006E
:1002800000000000000000002C0B11241FBECFEF67
:10029000D1E2DEBFCDBF00E00CBF12E0A0E0B2E0D3
:1002A000EEE6FEE100E00BBF02C007900D92A03A1F
:1002B000B107D9F724E0A0EAB2E001C01D92A33C47
:1002C000B207E1F711E0C5E4D1E000E006C02197F4
:1002D0000109802FFE010E941B0FC434D10780E06A
:1002E0000807A9F70E94370C0C94350F0C940000F6
:1002F00096E0899FD0011124AC5ABB4F90967C9315
:100300006E935F9791E091969C939197E091C104D1
:10031000F091C2049091C004992339F0309751F0C4
:10032000811108C0809170041994309719F05C967F
:100330008C91FACF0895E0913904E03310F54091A3
:100340003B0428E532E0241B310947FD3395220F99
:10035000331F220F331F821793070CF49C01225086
:100360003109220F331F4FB7F8948E2F90E0FC0114
:10037000EE0FFF1FE80FF91FEE56FC4F328321836B
:100380004FBF0895AF92BF92CF92DF92EF92FF924C
:100390000F931F93CF93DF936C017B018B01040FAD
:1003A000151FEB015E01AE18BF08C017D10759F049
:1003B0006991D601ED91FC910190F081E02DC6018B
:1003C0001995892B79F7C501DF91CF911F910F9175
:1003D000FF90EF90DF90CF90BF90AF900895FC0119
:1003E000538D448D252F30E0842F90E0821B930B9A
:1003F000541710F0CF96089501970895FC01918D40
:10040000828D981761F0A28DAE0FBF2FB11D5D9642
:100410008C91928D9F5F9F73928F90E008958FEFE4
:100420009FEF0895FC01918D828D981731F0828D98
:10043000E80FF11D858D90E008958FEF9FEF0895EF
:10044000FC01918D228D892F90E0805C9F4F821B53
:1004500091098F739927089585EF92E00E942002F9
:1004600021E0892B09F420E0822F0895FC01A48D5E
:10047000A80FB92FB11DA35ABF4F2C91848D90E0C6
:1004800001968F739927848FA689B7892C93A089A9
:10049000B1898C91837080648C93938D848D981333
:1004A00006C00288F389E02D80818F7D80830895C6
:1004B000EF92FF920F931F93CF93DF93EC0181E0B4
:1004C000888F9B8D8C8D98131AC0E889F98980815B
:1004D00085FF15C09FB7F894EE89FF896083E8898E
:1004E000F98980818370806480839FBF81E090E080
:1004F000DF91CF911F910F91FF90EF900895F62E0D
:100500000B8D10E00F5F1F4F0F731127E02E8C8DA6
:100510008E110CC00FB607FCFACFE889F9898081EB
:1005200085FFF5CFCE010E943602F1CFEB8DEC0FA7
:10053000FD2FF11DE35AFF4FF0829FB7F8940B8F08
:10054000EA89FB8980818062CFCFCF93DF93EC0172
:10055000888D8823B9F0AA89BB89E889F9898C91AB
:1005600085FD03C0808186FD0DC00FB607FCF7CF67
:100570008C9185FFF2CF808185FFEDCFCE010E9467
:100580003602E9CFDF91CF91089580E090E0892B8A
:1005900029F00E942C0281110E94000080E090E06E
:1005A000892B49F080E090E0892B29F00E9400001F
:1005B00081110E94000080E090E0892B49F080E0EA
:1005C00090E0892B29F00E94000081110E94000018
:1005D00080E090E0892B49F080E090E0892B29F0C1
:1005E0000E94000081110C94000008958150823116
:1005F00008F05AC0E82FF0E08827EE5FFC4F8F4FDD
:100600000C941B0F2203260314031A031E03540326
:1006100029032F03330339033D03410347034B03EE
:1006200054034F0355035903809180008F778093C3
:1006300080000895809180008F7DF9CF80918000A7
:10064000877FF5CF84B58F7784BD089584B58F7D7E
:10065000FBCF8091B0008F778093B0000895809198
:10066000B0008F7DF9CF809190008F7780939000BC
:100670000895809190008F7DF9CF80919000877FC1
:10068000F5CF8091A0008F778093A000089580918E
:10069000A0008F7DF9CF8091A000877FF5CF80915A
:1006A00020018F77809320010895809120018F7D14
:1006B000F9CF80912001877FF5CFCF93DF93282F4B
:1006C00030E0F901EE5BFD4F8491F901E450FE4FFB
:1006D000D491F901EA54FE4FC491CC23A1F08111C9
:1006E0000E94F602EC2FF0E0EE0FFF1FE456FE4FE3
:1006F000A591B491EC91ED2381E090E009F480E0C4
:10070000DF91CF91089580E090E0FACF1F93CF93CF
:10071000DF93282F30E0F901EE5BFD4F8491F90162
:10072000E450FE4FD491F901EA54FE4FC491CC231A
:10073000A9F0162F81110E94F602EC2FF0E0EE0FC7
:10074000FF1FEE57FE4FA591B4918FB7F894EC912F
:10075000111108C0D095DE23DC938FBFDF91CF91BC
:100760001F910895DE2BF8CFCF93DF9390E0FC012B
:10077000E450FE4F24918A549E4FFC0184918823BB
:10078000C9F090E0880F991FFC01E859FE4FA59130
:10079000B491FC01EE57FE4FC591D49161110DC08B
:1007A0009FB7F8948C91209582238C93888128237D
:1007B00028839FBFDF91CF910895623051F49FB796
:1007C000F8943C91822F809583238C93E8812E2B83
:1007D000EFCF8FB7F894EC912E2B2C938FBFEACFED
:1007E0003FB7F8948091B9029091BA02A091BB02F0
:1007F000B091BC0226B5A89B05C02F3F19F0019609
:10080000A11DB11D3FBFBA2FA92F982F8827BC016A
:10081000CD01620F711D811D911D42E0660F771F92
:10082000881F991F4A95D1F708952FB7F8946091C2
:10083000B5027091B6028091B7029091B8022FBFB5
:1008400008950F931F93CF93DF93C82FD62F86E081
:10085000C89FF0011124EC5AFB4F11A2878D90A183
:1008600081309105F1F058F082309105F1F1039754
:1008700009F440C0DF91CF911F910F910895662335
:10088000C9F361E070E08C2F0E9478010E9415048A
:100890006093AC047093AD048093AE049093AF0466
:1008A000E9CF0E9415040091AC041091AD04209191
:1008B000AE043091AF04AB01BC01401B510B620B85
:1008C000730B8091BE049091BF04B0E0A0E0841748
:1008D0009507A607B70748F462E070E08C2FDF9118
:1008E000CF911F910F910C94780163E070E0D111CA
:1008F000C1CFF4CF70E060E0F1CF0F931F93CF939F
:10090000DF93FC012081222309F1EC010E941504F0
:1009100009811A812B813C81601B710B820B930B27
:100920000D811E812F81388560177107820793071B
:1009300068F00E94150469837A838B839C83E98520
:10094000FA85DF91CF911F910F911994DF91CF918B
:100950001F910F910895AF92BF92CF92DF92EF92C5
:10096000FF920F931F93CF93DF936B017A01EC01FA
:10097000C055DD4F28813CE0389F8001399F100D24
:100980001124A0902204B12C27FF1FC0FB0111826B
:10099000108288818F5F888388819801280F311D9C
:1009A00087FD3A95F6012A153B051CF488818C30A9
:1009B000C4F180819181049680349C4908F473C00D
:1009C000F60180819181049670C088819801280F7A
:1009D000311D87FD3A952A153B05DCF68881A80173
:1009E000480F511D87FD5A95FA01EE0FFF1FE40FC6
:1009F000F51FEE56FC4F808186FFCBCF8881F80132
:100A0000E80FF11D87FDFA95CF01EE0FFF1FE80FEC
:100A1000F91FEE56FC4F808160E08F730E948603C1
:100A2000B8CF808191812881A801420F511D27FDF7
:100A30005A959A01FA01EE0FFF1FE20FF31FEE56CF
:100A4000FC4F21813281820F931FF70191838083B4
:100A500088819801280F311D87FD3A95F901EE0F25
:100A6000FF1FE20FF31FEE56FC4F808186FF22C06E
:100A70008881080F111D87FD1A95F801EE0FFF1FE1
:100A8000E00FF11FEE56FC4F808161E08F73DF9124
:100A9000CF911F910F91FF90EF90DF90CF90BF907B
:100AA000AF900C94860380E49CE9F70191838083E6
:100AB0008FEF8883DF91CF911F910F91FF90EF907F
:100AC000DF90CF90BF90AF900895862F0C945D0378
:100AD000862F642F0C948603862F642F0C94B40306
:100AE000089590E080E008957F928F929F92AF9258
:100AF000BF92CF92DF92EF92FF920F931F93CF930B
:100B0000DF93782ED92F0E9415048B019C016093EE
:100B1000A8021093A9028093AA023093AB0210920C
:100B2000AC021092AD021092AE021092AF02CD2F25
:100B3000CC0FCC0B0E9415049B01AC0160E070E06F
:100B400080E090E0A090A802B090A902C090AA0214
:100B5000D090AB02E090AC02F090AD020091AE02FA
:100B60001091AF020E94230FA72CBD2ECC2EDC2E9D
:100B7000EC2EFC2E0C2F1C2F0E942C0F48F48EE222
:100B800094E00E947D0483E294E00E947D04D2CF31
:100B9000DF91CF911F910F91FF90EF90DF90CF9059
:100BA000BF90AF909F908F907F9008952091F30217
:100BB0003091F402EDEBF2E050E040E042175307D1
:100BC00044F4619171916817790781F04F5F5F4F2D
:100BD000F5CFF901EE0FFF1FE354FD4F91838083A2
:100BE0002F5F3F4F3093F4022093F30208951F9339
:100BF000CF93DF93EC01182F1C5D61E0812F0E94E1
:100C0000860381E090E00E94740560E0812F0E94DD
:100C10008603CC0FDD1FC056DD4F19821882DF918D
:100C2000CF911F910895EF92FF920F931F93CF934F
:100C3000DF9300EA12E0D0E0C0E0EE24E394F12C70
:100C40008C2F875D0E945D030197A9F4F8018081D4
:100C50009181892B81F48091EF029091F002892B90
:100C6000B9F48091ED029091EE028C179D0781F40A
:100C7000CE010E94F70521960E5F1F4FC430D105AB
:100C8000F9F6DF91CF911F910F91FF90EF900895AA
:100C9000F801F182E082CE010E94D605ECCF6F927E
:100CA0007F928F929F92AF92BF92CF92DF92EF92FC
:100CB000FF920F931F93CF93DF9381E08093C00443
:100CC0000E9415040091B0041091B1042091B20467
:100CD0003091B304AB01BC01401B510B620B730B91
:100CE0008091BC049091BD04B0E0A0E0841795070A
:100CF000A607B70708F018C1C0E08091BA04C8176A
:100D000060F4E091B604F091B704EC0FF11D62E0DD
:100D100080810E94B403CF5FF0CF712C812C912C85
:100D2000540183948091BB04781608F05FC0072DAE
:100D300010E0E091B804F091B904E00FF11F61E018
:100D400080810E94B403E091B804F091B904E00FEF
:100D5000F11F60E080810E948603D501C401072C49
:100D600004C0880F991FAA1FBB1F0A94D2F76C01F9
:100D70007C01E094F094612C8091BA046816F8F438
:100D8000C62DD0E0E091B604F091B704EC0FFD1F42
:100D900080810E945D032496CC0FDD1FCC5ADB4F6F
:100DA000892B41F4888199818C299D299983888395
:100DB0006394E2CF888199818E219F21F7CFE091C2
:100DC000B804F091B904E00FF11F61E080810E9446
:100DD00086038091B8049091B904080F191F60E050
:100DE000F80180810E94B40373949CCFC4E5D4E0E1
:100DF000FE018FEF9FEF278D30A1232B21F4148E5E
:100E0000968F858F11A2369624E0E039F20799F784
:100E1000F12C96E0D92E8091BA04F81608F050C053
:100E2000E12C0F2D10E0000F111F045A1B4F2091D1
:100E3000BB04E21608F042C0F801608171810E2CFB
:100E400002C0769567950A94E2F7F29E900111240C
:100E50002E0D311DE4E5F4E080E0458D568D24171C
:100E6000350709F48EC08F5F36968A30B1F760FF80
:100E700023C0E4E5F4E090E080E0448D411117C028
:100E8000E091B404F091B504E20FF31F4081D89EC5
:100E9000F001D99EF00D1124EC5AFB4F448F368F90
:100EA000258F10A2178E61E00E94210405C00196D3
:100EB00036968A30910509F7E394B9CFF394ABCF16
:100EC00010E089A18111182F2696F4E0C039DF07C0
:100ED000C1F70E9415046093B0047093B10480932D
:100EE000B2049093B3041123F9F080917504882320
:100EF000D9F080917304909174040197A9F48091C2
:100F0000700490ED980F953090F0DF91CF911F9184
:100F10000F91FF90EF90DF90CF90BF90AF909F9098
:100F20008F907F906F9008951092C004EECF209123
:100F3000EF023091F002082E000C990BC09721159A
:100F40003105B9F42091ED023091EE0228173907EE
:100F5000E1F2DF91CF911F910F91FF90EF90DF9021
:100F6000CF90BF90AF909F908F907F906F900C9498
:100F7000D6052130310569F72091F1023091F20256
:100F8000E5CF617091CFFB0101900020E9F7319727
:100F9000AF01461B570BDC01ED91FC910280F38100
:100FA000E02D1994CF93DF93BC0185EF92E00E946E
:100FB000C307EC016BE372E085EF92E00E94C30788
:100FC0008C0F9D1FDF91CF910895BC018CE394E0BD
:100FD0000C94C307CF93DF93EC0160E08E810E94F5
:100FE000860361E08E810E94860360E08E810E940C
:100FF00086038BE891E00197F1F7DF91CF91089597
:10100000CF92DF92EF92FF920F931F93CF93DF93D4
:101010006C017C0187E0E80EF11CD0E0C0E0062FF7
:1010200010E0B8010C2E02C0759567950A94E2F79E
:101030006170F70181917F010E9486032196C4307F
:10104000D10579F7C601DF91CF911F910F91FF90E4
:10105000EF90DF90CF900C94EA07CF92DF92EF925F
:10106000FF920F931F93CF93DF93EC01F62E642F23
:101070008C810E9486038D818F3F19F060E00E9471
:1010800086030F2D10E08F8584FF25C06E0187E059
:10109000C80ED11CF12CE12CB8010E2C02C07595A4
:1010A00067950A94E2F76170F60181916F010E94E1
:1010B0008603FFEFEF1AFF0A88E0E816F10461F7F4
:1010C000CE01DF91CF911F910F91FF90EF90DF90B4
:1010D000CF900C94EA07B80184E0759567958A95DE
:1010E000E1F7CE010E9400086F2DCE01DF91CF9174
:1010F0001F910F91FF90EF90DF90CF900C9400081C
:1011000040E0682F8CE394E00C942D08CF93DF939C
:10111000813029F090914B04986090934B04809318
:101120004F041092500480E48093510480E1809336
:10113000520480E58093530461E0809140040E9452
:10114000B403809141048F3F19F061E00E94B40321
:1011500061E0809142040E94B403CCE3D4E09E019C
:101160002C53344080914B0484FD0BC084E090E00C
:1011700021962817390744F461E08E810E94B40358
:10118000EECF88E090E0F4CF8BE39DE00197F1F79C
:1011900060E0809140040E94860360E080914204F8
:1011A0000E948603809141048F3F19F060E00E9405
:1011B000860380914B0484FD39C063E08CE394E0A6
:1011C0000E940008CBE4D6E4CE010197F1F763E07A
:1011D0008CE394E00E9400082197F1F763E08CE330
:1011E00094E00E94000883E592E00197F1F762E045
:1011F0008CE394E00E94000880914B0480620E947E
:10120000800884E080934C048CE00E94800881E098
:101210000E9480088BE39FE10197F1F782E08093C1
:101220004D0486E0DF91CF910C94800880620E948B
:1012300080088BE496E40197F1F780914B0480627B
:101240000E94800883E592E00197F1F780914B04BA
:1012500080620E948008D0CF90914F04691710F0EF
:101260006FEF690FE62FF0E0E45CFB4F9489890F84
:1012700080680C94800841E00E942D0881E090E095
:1012800008958F929F92AF92BF92CF92DF92EF928A
:10129000FF92CF93DF93CDB7DEB7A1970FB6F89447
:1012A000DEBF0FBECDBF6C0181E00E9480088BE3E2
:1012B0009FE10197F1F761E080E00E942C098EE345
:1012C00092E00E94E50762E080E00E942C0986E43B
:1012D00092E00E94E5070D2C000CEE08FF08F7FED7
:1012E0003EC041E06DE28CE394E00E942D0822278D
:1012F0003327A9012C193D094E095F0919A2CE0116
:1013000081967C019AE0892E912CA12CB12CCA01E6
:10131000B901A50194010E94ED0E605DF701629391
:101320007F01211531054105510589F7E114F104CB
:1013300029F0B7018CE394E00E94C307A1960FB691
:10134000F894DEBF0FBECDBFDF91CF91FF90EF903D
:10135000DF90CF90BF90AF909F908F900895A7019E
:10136000960119A2CE0181967C018AE0882E912CEB
:10137000A12CB12CCA01B901A50194010E94ED0E66
:10138000605DF70162937F0121153105410551052B
:1013900089F7CCCF1F920F920FB60F9211240BB684
:1013A0000F922F933F934F935F936F937F938F93FE
:1013B0009F93AF93BF93EF93FF9385EF92E00E94CB
:1013C0003602FF91EF91BF91AF919F918F917F91E5
:1013D0006F915F914F913F912F910F900BBE0F90A6
:1013E0000FBE0F901F9018951F920F920FB60F927D
:1013F00011240BB60F922F938F939F93EF93FF932C
:10140000E0910503F09106038081E0910B03F091D8
:101410000C0382FD1DC0908180910E038F5F8F733E
:1014200020910F03821741F0E0910E03F0E0EB50A2
:10143000FD4F958F80930E03FF91EF919F918F91B8
:101440002F910F900BBE0F900FBE0F901F9018950D
:101450008081F2CF1F920F920FB60F9211242F931B
:101460003F938F939F93AF93BF938091B5029091D9
:10147000B602A091B702B091B8023091B40223E055
:10148000230F2D3758F50196A11DB11D2093B402ED
:101490008093B5029093B602A093B702B093B802BE
:1014A0008091B9029091BA02A091BB02B091BC02A6
:1014B0000196A11DB11D8093B9029093BA02A09329
:1014C000BB02B093BC02BF91AF919F918F913F91AE
:1014D0002F910F900FBE0F901F90189526E8230FA5
:1014E0000296A11DB11DD2CF1F920F920FB60F927F
:1014F00011240BB60F922F933F934F935F936F93EB
:101500007F938F939F93AF93BF93EF93FF9348E2A3
:1015100051E064E271E090E080E00E94AB04FF9152
:10152000EF91BF91AF919F918F917F916F915F915B
:101530004F913F912F910F900BBE0F900FBE0F90C8
:101540001F9018951F920F920FB60F9211240BB691
:101550000F922F933F934F935F936F937F938F934C
:101560009F93AF93BF93EF93FF9348EA50E064EAF1
:1015700070E083E090E00E94AB04FF91EF91BF9197
:10158000AF919F918F917F916F915F914F913F911B
:101590002F910F900BBE0F900FBE0F901F901895BC
:1015A0001F920F920FB60F9211240BB60F922F932A
:1015B0003F934F935F936F937F938F939F93AF93DB
:1015C000BF93EF93FF9348E950E064E970E082E055
:1015D00090E00E94AB04FF91EF91BF91AF919F917A
:1015E0008F917F916F915F914F913F912F910F90CC
:1015F0000BBE0F900FBE0F901F9018951F920F9269
:101600000FB60F9211240BB60F922F933F934F9367
:101610005F936F937F938F939F93AF93BF93EF935A
:10162000FF9348E850E064E870E081E090E00E94B9
:10163000AB04FF91EF91BF91AF919F918F917F91FB
:101640006F915F914F913F912F910F900BBE0F9033
:101650000FBE0F901F901895CF931092F802109222
:10166000F70288EE93E0A0E0B0E08093F902909357
:10167000FA02A093FB02B093FC0287E192E0909300
:10168000F6028093F50285EC90E09093020380933C
:10169000010384EC90E0909304038093030380ECB7
:1016A00090E0909306038093050381EC90E0909383
:1016B00008038093070382EC90E090930A038093E1
:1016C000090386EC90E090930C0380930B03109237
:1016D0000E0310920F031092100310921103109238
:1016E000560410925A041092590410925B0485E338
:1016F00092E09093550480935404E0E7F4E0108264
:10170000148213821582369684E0EC3AF807B9F712
:1017100083E092E09093B7048093B60480E092E077
:101720009093B9048093B80484E08093BA0483E072
:101730008093BB0487E092E09093B5048093B40457
:101740008AE090E09093BD048093BC0484EF91E024
:101750009093BF048093BE041092C2041092C104FF
:101760001092B0041092B1041092B2041092B3041B
:101770001092C00410923F0410923E0489E292E05D
:1017800090933D0480933C0483E180934004CFEF29
:10179000C093410482E1809342048EE0809343042D
:1017A0008FE08093440480E18093450481E180933D
:1017B0004604109247041092480410924904109273
:1017C0004A0410924B0481E00E9486088091220412
:1017D000803308F049C091E0980F909322048093E1
:1017E000390490E0FC01EE0FFF1FE80FF91FEE56E1
:1017F000FC4F88EB9BE09283818321E020932E04B1
:1018000010922F041092300410923104109232047E
:101810008AE090E0A0E0B0E0809333049093340439
:10182000A0933504B093360443E156E05093380456
:10183000409337042093230410922404109225042B
:101840001092260410922704809328049093290470
:10185000A0932A04B0932B048FE496E090932D0478
:1018600080932C04CF910895C0933904C6CF789407
:1018700084B5826084BD84B5816084BD85B5826095
:1018800085BD85B5816085BD80916E008160809346
:101890006E001092810080918100826080938100AF
:1018A00080918100816080938100809180008160BF
:1018B000809380008091B10084608093B10080911A
:1018C000B00081608093B00080919100826080932D
:1018D00091008091910081608093910080919000AF
:1018E0008160809390008091A10082608093A1002C
:1018F0008091A10081608093A1008091A00081600F
:101900008093A000809121018260809321018091C9
:101910002101816080932101809120018160809369
:10192000200180917A00846080937A0080917A000F
:10193000826080937A0080917A00816080937A003F
:1019400080917A00806880937A001092C10061E0F3
:1019500082E20E94B40361E08FE10E94B40361E07F
:1019600080E20E94B40361E08EE10E94B40361E072
:1019700084E20E94B40361E085E20E94B40361E066
:1019800086E20E94B40361E087E20E94B40360E053
:1019900089E20E94B40360E08AE20E94B40360E03E
:1019A0008BE20E94B40360E08CE20E94B40360E02A
:1019B0008EE20E94B40360E08FE20E94B40360E014
:1019C00080E30E94B40360E081E30E94B403E091ED
:1019D0000503F091060382E08083E0910103F0911A
:1019E00002031082E0910303F09104038FEC8083E3
:1019F00010920D03E0910903F0910A0386E08083C1
:101A0000E0910703F0910803808180618083E09179
:101A10000703F0910803808188608083E0910703C9
:101A2000F0910803808180688083E0910703F09142
:101A3000080380818F7D808380913904803308F092
:101A400052C061E082E20E94B40380913904282FE1
:101A500030E0F901EE0FFF1FE20FF31FEE56FC4FCF
:101A60009081907C9262908310923A0410923B0491
:101A70002CE0622F0E940F0F829FB001112430E0F2
:101A800020E0AB01420F531FFA01EE0FFF1FE40FDE
:101A9000F51FEE56FC4F908196FD17C02F5F3F4F0C
:101AA0002C30310571F7813009F0FBC010928000B5
:101AB00082E0809381001092850010928400B19A98
:101AC00080916F00826080936F00E09139048E2FC7
:101AD00090E0FC01EE0FFF1FE80FF91FEE56FC4FE0
:101AE00080818064808384E00E9486088091ED027A
:101AF0009091EE020E9441090E94F0034B015C01AB
:101B000038EEC32E33E0D32EE12CF12C0E94F003EB
:101B1000681979098A099B09683E73408105910516
:101B2000A8F321E0C21AD108E108F10888EE880E76
:101B300083E0981EA11CB11CC114D104E104F1047E
:101B400029F7C1E0D0E08EE294E00E947D0483E2B8
:101B500094E00E947D041EE28EE294E00E947D04E7
:101B600083E294E00E947D04812F0E945D0301972F
:101B700009F430C11F5F123379F78091F30290911D
:101B8000F402181619060CF021C101979093F40283
:101B90008093F302880F991FFC01E354FD4F80816D
:101BA00091819093F2028093F102D093F002C0935E
:101BB000EF0288EE93E00E9474058EE492E00E94AA
:101BC000D20780ED97E00E949B0184EF91E00E9494
:101BD00074058BE592E00E94D2078EE294E00E94A9
:101BE0007D0483E294E00E947D0488EE93E00E94ED
:101BF00074052091F1023091F2028091ED029091F2
:101C0000EE02821793070CF078C001969093EE02D3
:101C10008093ED028EE692E00E94D20761E08FE1B0
:101C20000E94860360E080E20E94860361E08EE10C
:101C30000E9486038091ED029091EE020E9441097C
:101C400060E08DE00E942C0987E792E00E94E507A2
:101C500061E08DE00E942C0987E792E00E94E50791
:101C600061E08CE00E942C0987E792E00E94E50782
:101C700061E08EE00E942C0987E792E00E94E50770
:101C800062E08DE00E942C0987E792E00E94E50760
:101C900063E08DE00E942C0987E792E00E94E5074F
:101CA0009CCF823061F4109290008093910010924A
:101CB00095001092940088BB8093710006CF83300A
:101CC00069F41092A00082E08093A1001092A50018
:101CD0001092A40089BB80937200F7CE8111F5CEDB
:101CE0001092200182E08093210110922501109230
:101CF00024018ABB80937300E8CE28173907F4F5D6
:101D000001979093EE028093ED0289E792E00E94A2
:101D1000D20760E08FE10E94860361E080E20E94CA
:101D2000860361E08EE10E9486038091ED0290912E
:101D3000EE020E94410960E08DE00E942C0987E7D5
:101D400092E00E94E50761E08DE00E942C0987E7A0
:101D500092E00E94E50762E08DE00E942C0987E78F
:101D600092E00E94E50762E08CE00E942C0987E780
:101D700092E00E94E50762E08EE084CF0E94410974
:101D800084E892E00E94D20760E08EE10E94860320
:101D900060E08FE10E94860360E080E20E9486039B
:101DA00084EF91E00E94740583E992E00E94D207DB
:101DB0008CED95E00E949B011092F0021092EF02D0
:101DC0008091ED029091EE020E94F70584EF91E080
:101DD0000E9474050E94C502B6CEA1E21A2EAA1B6B
:101DE000BB1BFD010DC0AA1FBB1FEE1FFF1FA217CB
:101DF000B307E407F50720F0A21BB30BE40BF50BC8
:101E0000661F771F881F991F1A9469F76095709550
:101E1000809590959B01AC01BD01CF010895991B60
:101E200079E004C0991F961708F0961B881F7A95D1
:101E3000C9F780950895EE0FFF1F881F8BBF07908D
:101E4000F691E02D19942A193B094C095D096E0998
:101E50007F09800B910B08952A153B054C055D0504
:101E60006E057F05800791070895F894FFCF161738
:101E700018191A1B1C3132333435363738392A30A9
:101E800023000000005802C201EF01A5022002FE5B
:101E9000011202000000003B09C20171057005003B
:101EA0000000006C05680565050D0A004375727237
:101EB000656E7400466C6F6F723A2000436C6F73EE
:101EC000696E6720646F6F72005374617274696E1B
:101ED0006720746F204D6F76696E6700476F696E7B
:101EE00067207570002A00476F696E6720646F77FE
:101EF0006E0053746F70706564206D6F76696E67E5
:0E1F0000004F70656E696E6720646F6F72002F
:10E000000D9489F10D94B2F10D94B2F10D94B2F129
:10E010000D94B2F10D94B2F10D94B2F10D94B2F1F0
:10E020000D94B2F10D94B2F10D94B2F10D94B2F1E0
:10E030000D94B2F10D94B2F10D94B2F10D94B2F1D0
:10E040000D94B2F10D94B2F10D94B2F10D94B2F1C0
:10E050000D94B2F10D94B2F10D94B2F10D94B2F1B0
:10E060000D94B2F10D94B2F10D94B2F10D94B2F1A0
:10E070000D94B2F10D94B2F10D94B2F10D94B2F190
:10E080000D94B2F10D94B2F10D94B2F10D94B2F180
:10E090000D94B2F10D94B2F10D94B2F10D94B2F170
:10E0A0000D94B2F10D94B2F10D94B2F10D94B2F160
:10E0B0000D94B2F10D94B2F10D94B2F10D94B2F150
:10E0C0000D94B2F10D94B2F10D94B2F10D94B2F140
:10E0D0000D94B2F10D94B2F10D94B2F10D94B2F130
:10E0E0000D94B2F141546D656761323536300041AF
:10E0F000726475696E6F206578706C6F72657220DE
:10E1000073746B3530305632206279204D4C530099
:10E11000426F6F746C6F616465723E004875683F52
:10E1200000436F6D70696C6564206F6E203D200048
:10E130004350552054797065202020203D20005FF9
:10E140005F4156525F415243485F5F3D2000415658
:10E1500052204C696243205665723D20004743437C
:10E160002056657273696F6E203D20004350552024
:10E1700049442020202020203D20004C6F7720663D
:10E18000757365202020203D20004869676820665F
:10E190007573652020203D200045787420667573D6
:10E1A00065202020203D20004C6F636B2066757336
:10E1B000652020203D20004D617220203720323024
:10E1C000313300312E362E3800342E332E350056A2
:10E1D00023202020414444522020206F7020636F70
:10E1E00064652020202020696E73747275637469E1
:10E1F0006F6E2061646472202020496E74657272B3
:10E20000757074006E6F20766563746F7200726A49
:10E210006D702020006A6D70200057686174207056
:10E220006F72743A00506F7274206E6F7420737541
:10E2300070706F72746564004D7573742062652030
:10E2400061206C6574746572002000577269747483
:10E25000696E672045450052656164696E672045B7
:10E26000450045452065727220636E743D00504F35
:10E27000525400303D5A65726F2061646472003FF1
:10E280003D43505520737461747300403D454550C3
:10E29000524F4D207465737400423D426C696E6B41
:10E2A000204C454400453D44756D70204545505215
:10E2B0004F4D00463D44756D7020464C415348001B
:10E2C000483D48656C70004C3D4C69737420492F83
:10E2D0004F20506F72747300513D51756974005234
:10E2E0003D44756D702052414D00563D73686F7707
:10E2F00020696E7465727275707420566563746FF0
:10E30000727300593D506F727420626C696E6B00BD
:10E310002A0011241FBECFEFD1E2DEBFCDBF01E046
:10E320000CBF12E0A0E0B2E0EEE1FDEF03E00BBFB6
:10E3300002C007900D92A030B107D9F712E0A0E01B
:10E34000B2E001C01D92AE30B107E1F70F9460F367
:10E350000D948DFE01E20EBF0FEF0DBF11241FBE05
:10E360000D9460F30D9400F020E030E040ED57E0B4
:10E3700005C0FA013197F1F72F5F3F4F2817390792
:10E38000C0F308959C01260F311DC901A0E0B0E043
:10E390002F5F3F4FABBFFC018791882361F08093D3
:10E3A000C6008091C00086FFFCCF8091C0008064D1
:10E3B0008093C000EACF08958DE08093C6008091DD
:10E3C000C00086FFFCCF8091C00080648093C000B5
:10E3D0008AE08093C6008091C00086FFFCCF8091C8
:10E3E000C00080648093C00008950F94C2F10F9420
:10E3F000DCF10895FC019081992359F09093C600B7
:10E400008091C00086FFFCCF8091C0008064809323
:10E41000C0003196992379F70895282F982F929567
:10E420009F70892F805D8A3308F0895F8093C600D2
:10E430008091C00086FFFCCF8091C00080648093F3
:10E44000C000822F8F70982F905D9A3308F0995FEB
:10E450009093C6008091C00086FFFCCF8091C000E1
:10E4600080648093C00008959C01FB01853691056E
:10E470001CF46330710594F0C90164E670E00F94F8
:10E480002EFE605D7F4F6093C6008091C00086FFC6
:10E49000FCCF8091C00080648093C0002B30310598
:10E4A00014F43297B4F0C90164E670E00F942EFEC4
:10E4B0006AE070E00F942EFE605D7F4F6093C600AF
:10E4C0008091C00086FFFCCF8091C0008064809363
:10E4D000C000C9016AE070E00F942EFEC0968093E0
:10E4E000C6008091C00086FFFCCF8091C000806490
:10E4F0008093C00008951F93182F8EE692EE60E07F
:10E500000F94C2F11093C6008091C00086FFFCCF2B
:10E510008091C00080648093C0000F94DCF11F9153
:10E5200008952F923F924F925F926F927F928F92B7
:10E530009F92AF92BF92CF92DF92EF92FF920F9392
:10E540001F93DF93CF93CDB7DEB762970FB6F894E2
:10E55000DEBF0FBECDBF382E622ECA01DB015C01CB
:10E560006D01772420E2222E2E010894411C511CBB
:10E570008BC081E0A81680E0B80681E0C80680E084
:10E58000D80628F0C601AA27BB270F940DF2BB2797
:10E59000AD2D9C2D8B2D0F940DF28A2D0F940DF225
:10E5A0002092C6008091C00086FFFCCF8091C00001
:10E5B00080648093C0009DE29093C6008091C0006B
:10E5C00086FFFCCF8091C00080648093C0002092C1
:10E5D000C6008091C00086FFFCCF8091C00080649F
:10E5E0008093C00019828601750188249924A1E0D6
:10E5F0003A1651F03A1620F0B2E03B1661F409C029
:10E600000BBFF701779007C0C7010F9477FE782EF4
:10E6100002C0F7017080872D0F940DF22092C60082
:10E620008091C00086FFFCCF8091C0008064809301
:10E63000C000872D8052F401EF70F0708F3520F408
:10E64000E40DF51D708204C0E40DF51D8EE280839B
:10E650000894E11CF11C011D111D0894811C911CE2
:10E6600090E18916910409F0C2CF80E190E0A0E02A
:10E67000B0E0A80EB91ECA1EDB1E198AC2010F9493
:10E68000FAF10F94DCF16A94662009F072CF629679
:10E690000FB6F894DEBF0FBECDBFCF91DF911F91B3
:10E6A0000F91FF90EF90DF90CF90BF90AF909F9031
:10E6B0008F907F906F905F904F903F902F90089534
:10E6C0002F923F924F925F926F927F928F929F9282
:10E6D000AF92BF92CF92DF92EF92FF920F931F9370
:10E6E000DF93CF93CDB7DEB7CD53D1400FB6F894BB
:10E6F000DEBF0FBECDBF01E20EBF0FEF0DBF94B75F
:10E70000F894A89514BE80916000886180936000A1
:10E7100010926000789493FF05C0E0910002F091A0
:10E7200001021995279A2F9A8091C00082608093E8
:10E73000C00080E18093C40088E18093C1000000A4
:10E74000EE24FF24870144E0A42EB12CCC24DD2448
:10E7500024C0C5010197F1F70894E11CF11C011DCB
:10E76000111D21E2E2162EE4F20620E0020720E06D
:10E77000120718F031E0C32ED12CC801B70127ECE5
:10E780003BE140E050E00F9441FE611571058105C9
:10E79000910519F485B1805885B98091C00087FD35
:10E7A00003C0C114D104A9F2A6014F5F5F4FC25E3E
:10E7B000DE4F59834883CE51D140C25EDE4F8881FF
:10E7C0009981CE51D140019711F00D9410FEC05D9A
:10E7D000DE4F19821882C053D14060E0C15DDE4F28
:10E7E0001882CF52D14088249924C35DDE4F19820C
:10E7F0001882CD52D140C05EDE4F188219821A8233
:10E800001B82C052D140CE5CDE4F188219821A8220
:10E810001B82C253D140EE24FF2487010BBFF701B6
:10E8200007911691C45CDE4F19830883CC53D14005
:10E830000D940BFEC25EDE4F28813981CE51D1404E
:10E840002130310509F52091C600C25EDE4F1982E4
:10E850001882CE51D14022C02F5F3F4F4F4F5F4FA4
:10E86000213082E138078AE7480780E0580780F0C6
:10E87000C45CDE4FE881F981CC53D140EF5FFF4F9C
:10E8800019F0EE27FF27099420E030E040E050E047
:10E890008091C00087FFE0CF2091C600C35DDE4FAE
:10E8A00048815981CD52D1404F5F5F4FC35DDE4FEC
:10E8B00059834883CD52D140213209F063C64A3092
:10E8C000510508F05FC60894811C911C53E0851621
:10E8D000910409F059C600E010E018C081E280936D
:10E8E000C6008091C00086FFFCCF8091C00080648C
:10E8F0008093C0002F5F3F4F2931310579F70F9486
:10E90000DCF10F5F1F4F0530110519F020E030E0FA
:10E91000E5CF10920A0210920B0210920C02109294
:10E920000D02109206021092070210920802109235
:10E930000902109202021092030210920402109235
:10E9400005028FEE90EE60E00F94F5F180E191EE1C
:10E9500060E00F94C2F18091C00087FFFCCF9091DE
:10E96000C600903608F09F759032B8F09093C600BC
:10E970008091C00086FFFCCF8091C00080648093AE
:10E98000C000A0E2A093C6008091C00086FFFCCF2B
:10E990008091C00080648093C000983409F4D7C18E
:10E9A0009934B8F4923409F459C1933458F490333B
:10E9B00019F1903308F4E3C59F33A1F1903409F0C5
:10E9C000DEC5BDC0953409F470C1963409F0D7C5D1
:10E9D00098C1923509F42BC2933538F49C3409F46C
:10E9E000F5C1913509F0CBC518C2963509F445C279
:10E9F000993509F0C4C567C483E792EE62E00F94CD
:10EA0000F5F110920602109207021092080210927D
:10EA1000090210920A0210920B0210920C0210923C
:10EA20000D0213C18FE792EE62E00F94F5F18FEEC5
:10EA300090EE60E00F94F5F181E291EE60E00F94CA
:10EA4000C2F187EB91EE60E00F94F5F180E391EE77
:10EA500060E00F94C2F184EE90EE60E00F94F5F167
:10EA60008FE391EE60E00F94C2F186E090E061E008
:10EA700070E00F9434F20F94DCF18DE591EE60E0DC
:10EA80000F94C2F189EC91EE60E00F94F5F18EE401
:10EA900091EE60E00F94C2F183EC91EE60E00F9490
:10EAA000F5F18CE691EE60E00F94C2F18EE10F94E7
:10EAB0000DF288E90F940DF281E00F940DF20F949E
:10EAC000DCF18BE791EE60E00F94C2F119E0E0E039
:10EAD000F0E010935700E4918E2F0F940DF20F94F5
:10EAE000DCF18AE891EE60E00F94C2F1E3E0F0E03F
:10EAF00010935700E4918E2F0F940DF20F94DCF1D8
:10EB000089E991EE60E00F94C2F1E2E0F0E0109349
:10EB10005700E4918E2F0F940DF20F94DCF188EAE8
:10EB200091EE60E00F94C2F1E1E0F0E01093570045
:10EB30001491812F0F940DF20F94DCF107CF8BE825
:10EB400092EE62E00F94F5F18BE492EE60E00F94A8
:10EB5000F5F10F94DCF100E010E019C0C8016F2D51
:10EB60000F947FFEFF2031F489E492EE60E00F9471
:10EB7000C2F10BC0F092C6008091C00086FFFCCFAE
:10EB80008091C00080648093C0000F5F1F4FC80158
:10EB900081519F41A0E0B0E0ABBFFC01F790BAE229
:10EBA000FB1621F0E2E000301E07C1F60F94DCF105
:10EBB0000F94DCF187E592EE60E00F94F5F10F948D
:10EBC000DCF1CC24DD2400E010E01EC0C8010F946D
:10EBD00077FEF82E882331F489E492EE60E00F94FA
:10EBE000C2F10BC08093C6008091C00086FFFCCFAD
:10EBF0008091C00080648093C000FE1419F00894D6
:10EC0000C11CD11C0F5F1F4FC80181519F41A0E063
:10EC1000B0E0ABBFFC01E790FAE2EF1621F022E092
:10EC20000030120799F60F94DCF10F94DCF182E6C4
:10EC300092EE60E00F94C2F1C60161E070E00F94C3
:10EC400034F20F94DCF10F94DCF110920202109276
:10EC50000302109204021092050278CE89E992EE26
:10EC600062E00F94F5F1279A2F9A16C02F9880E052
:10EC700090E0E0EDF7E03197F1F7019684369105E9
:10EC8000C1F72F9A80E090E0E0EDF7E03197F1F7DF
:10EC9000019684369105C1F78091C00087FFE6CFC9
:10ECA0008091C00087FFFCCF64C485EA92EE62E0E9
:10ECB0000F94F5F140910202509103026091040219
:10ECC0007091050281E020E10F9491F2809102029F
:10ECD00090910302A0910402B091050280509F4FD1
:10ECE000AF4FBF4F8093020290930302A0930402A0
:10ECF000B093050280509041A040B04008F426CE69
:10ED0000A4CF83EB92EE62E00F94F5F140910602FE
:10ED100050910702609108027091090280E020E1A1
:10ED20000F9491F28091060290910702A09108023F
:10ED3000B091090280509F4FAF4FBF4F80930602A2
:10ED400090930702A0930802B0930902FFCD80ECD4
:10ED500092EE62E00F94F5F183E792EE60E00F949B
:10ED6000F5F18FE792EE60E00F94F5F18BE892EE0B
:10ED700060E00F94F5F189E992EE60E00F94F5F10F
:10ED800085EA92EE60E00F94F5F183EB92EE60E09D
:10ED90000F94F5F180EC92EE60E00F94F5F187ECC2
:10EDA00092EE60E00F94F5F188ED92EE60E00F9442
:10EDB000F5F18FED92EE60E00F94F5F18AEE92EEB0
:10EDC00060E00F94F5F183E093EEBDCD87EC92EE19
:10EDD00062E00F94F5F181E40F947BF282E40F94EA
:10EDE0007BF283E40F947BF284E40F947BF285E45E
:10EDF0000F947BF286E40F947BF287E40F947BF20E
:10EE000088E40F947BF28AE40F947BF28BE40F94F6
:10EE10007BF28CE40F947BF299CD88ED92EE62E068
:10EE20000F94F5F1772473948824992409C48FED05
:10EE300092EE62E00F94F5F140910A0250910B02BC
:10EE400060910C0270910D0282E020E10F9491F22A
:10EE500080910A0290910B02A0910C02B0910D02D8
:10EE600080509F4FAF4FBF4F80930A0290930B0289
:10EE7000A0930C02B0930D0269CD8AEE92EE62E08F
:10EE80000F94F5F184EE90EE60E00F94F5F18FECC5
:10EE900091EE60E00F94F5F1662477244301CC5D98
:10EEA000DE4F19821882C452D140D401C301B695F5
:10EEB000A79597958795CA5DDE4F88839983AA8326
:10EEC000BB83C652D140CC5DDE4FA881B981C4520C
:10EED000D1401196CC5DDE4FB983A883C452D14096
:10EEE000CD0162E070E00F9434F2B0E2B093C6005E
:10EEF0008091C00086FFFCCF8091C0008064809329
:10EF0000C000EDE2E093C6008091C00086FFFCCF18
:10EF10008091C00080648093C000F0E2F093C6004E
:10EF20008091C00086FFFCCF8091C00080648093F8
:10EF3000C000CA5DDE4FE880F9800A811B81C6529D
:10EF4000D140BB27A12F902F8F2D0F940DF2CA5DBA
:10EF5000DE4F8881C652D1400F940DF2B0E2FB2EF5
:10EF6000F092C6008091C00086FFFCCF8091C00067
:10EF700080648093C0000DE30093C6008091C000C0
:10EF800086FFFCCF8091C00080648093C00010E2B7
:10EF90001093C6008091C00086FFFCCF8091C00016
:10EFA00080648093C0008BBEF3012791C65DDE4F65
:10EFB0002883CA52D140A22EBB24CC24DD2408943D
:10EFC000611C711C811C911C8BBEF3018791282E42
:10EFD0003324442455240894611C711C811C911C09
:10EFE0008BBEF3013791C55DDE4F3883CB52D140E4
:10EFF0000894611C711C811C911C8BBEF30147910C
:10F00000C45DDE4F4883CC52D140ADEFEA2EAFEF66
:10F01000FA2EAFEF0A2FAFEF1A2F6E0C7F1C801E57
:10F02000911E142D032DF22CEE24EA0CFB1C0C1D5A
:10F030001D1D0F940DF220E22093C6008091C000A8
:10F0400086FFFCCF8091C00080648093C000C65DC5
:10F05000DE4F8881CA52D1400F940DF230E23093D6
:10F06000C6008091C00086FFFCCF8091C000806404
:10F070008093C000C45DDE4F8881CC52D1400F9494
:10F080000DF240E24093C6008091C00086FFFCCFA5
:10F090008091C00080648093C000C55DDE4F888190
:10F0A000CB52D1400F940DF250E25093C6008091A4
:10F0B000C00086FFFCCF8091C00080648093C000B8
:10F0C0008FEFE8168FEFF80680E0080780E018075A
:10F0D00031F484E092EE60E00F94C2F1DFC0D80119
:10F0E000C7018070907CA070B0708050904CA040A0
:10F0F000B040D1F52FEF3FE340E050E0E222F322B1
:10F1000004231523CA5DDE4FA880B980CA80DB8046
:10F11000C652D140AE0CBF1CC01ED11EAA0CBB1CD7
:10F12000CC1CDD1C8EE092EE60E00F94C2F1BB2798
:10F13000A12F902F8F2D0F940DF28E2D0F940DF285
:10F1400030E23093C6008091C00086FFFCCF8091F2
:10F15000C00080648093C0004EE34093C60080915D
:10F16000C00086FFFCCF87C08EE09EEFA0E0B0E03D
:10F17000E822F9220A231B239CE0E91694E9F90608
:10F1800090E0090790E0190709F088C0C45DDE4FE0
:10F19000A881CC52D140EA2EFF2400E010E0102FCD
:10F1A0000F2DFE2CEE24C55DDE4FB881CB52D14031
:10F1B000EB0EF11C011D111DD601C501817090706F
:10F1C000A070B070DC0199278827E80EF91E0A1F8D
:10F1D0001B1F20EF30E040E050E0A222B322C42207
:10F1E000D52241E1AA0CBB1CCC1CDD1C4A95D1F7F1
:10F1F000EA0CFB1C0C1D1D1D81E090E0A0E0B0E0BE
:10F20000282239224A225B2235E1220C331C441C7D
:10F21000551C3A95D1F7E20CF31C041D151D57013E
:10F220006801AA0CBB1CCC1CDD1C85E192EE60E0E1
:10F230000F94C2F1C801AA27BB270F940DF2BB2778
:10F24000A12F902F8F2D0F940DF28E2D0F940DF274
:10F2500090E29093C6008091C00086FFFCCF809121
:10F26000C00080648093C000AEE3A093C60080918C
:10F27000C00086FFFCCF8091C00080648093C000F6
:10F28000C601AA27BB270F940DF2BB27AD2D9C2DDD
:10F290008B2D0F940DF28A2D0F940DF20F94DCF14B
:10F2A000CC5DDE4FE881F981C452D140F99709F471
:10F2B0004DCBF4E0EF2EF12C012D112D6E0C7F1CA7
:10F2C000801E911EF2CD83E093EE62E00F94F5F183
:10F2D0008AE192EE60E00F94C2F18091C00087FF56
:10F2E000FCCF1091C6001F751093C6008091C0001E
:10F2F00086FFFCCF8091C00080648093C0000F9493
:10F30000DCF1812F81548A3108F036C1163409F4BA
:10F3100095C0173490F4133409F44EC0143430F40B
:10F320001134F1F0123409F01DC130C0143409F465
:10F3300059C0153409F016C16BC01A3409F4C4C0A1
:10F340001B3438F4173409F48FC0183409F00AC19B
:10F35000A1C01B3409F4D2C01C3409F003C1E8C0B9
:10F360008FEF81B90DC082B1809582B980E090E0C5
:10F37000E0EDF7E03197F1F70196883C9105C1F790
:10F380008091C00087FFEFCF12B8EFC08FEF84B934
:10F390000DC085B1809585B980E090E0E0EDF7E0A3
:10F3A0003197F1F70196883C9105C1F78091C00033
:10F3B00087FFEFCF15B8D9C08FEF87B90DC088B1DF
:10F3C000809588B980E090E0E0EDF7E03197F1F7C3
:10F3D0000196883C9105C1F78091C00087FFEFCF6F
:10F3E00018B8C3C08FEF8AB90DC08BB180958BB9A7
:10F3F00080E090E0E0EDF7E03197F1F70196883C8E
:10F400009105C1F78091C00087FFEFCF1BB8ADC059
:10F410008FEF8DB90DC08EB180958EB980E090E0F0
:10F42000E0EDF7E03197F1F70196883C9105C1F7DF
:10F430008091C00087FFEFCF1EB897C08FEF80BBD1
:10F440000DC081B3809581BB80E090E0E0EDF7E0F6
:10F450003197F1F70196883C9105C1F78091C00082
:10F4600087FFEFCF11BA81C08FEF83BB0DC084B38C
:10F47000809584BB80E090E0E0EDF7E03197F1F714
:10F480000196883C9105C1F78091C00087FFEFCFBE
:10F4900014BA6BC08FEF809301010FC080910201FD
:10F4A00080958093020180E090E0E0EDF7E03197F5
:10F4B000F1F70196883C9105C1F78091C00087FF64
:10F4C000EDCF1092020151C08FEF809304010FC065
:10F4D0008091050180958093050180E090E0E0ED4A
:10F4E000F7E03197F1F70196883C9105C1F78091DB
:10F4F000C00087FFEDCF1092050137C08FEF8093DA
:10F5000007010FC08091080180958093080180E079
:10F5100090E0E0EDF7E03197F1F70196883C910536
:10F52000C1F78091C00087FFEDCF109208011DC088
:10F530008FEF80930A010FC080910B01809580931B
:10F540000B0180E090E0E0EDF7E03197F1F70196F4
:10F55000883C9105C1F78091C00087FFEDCF1092E4
:10F560000B0103C085E292EEEEC98091C00087FFD7
:10F57000FCCF8091C600EAC988E392EEE4C98CE131
:10F5800091EEE1C988249924933011F1943028F444
:10F59000913089F09230B8F408C0953061F195301F
:10F5A000F0F0963009F048C043C02B3109F042C951
:10F5B00091E06BE13FC96227C15DDE4F2883CF52E6
:10F5C000D14092E037C9B22FA0E0622793E032C960
:10F5D000822F90E0A82BB92B622794E02BC92E3004
:10F5E00009F039C3622795E0C05DDE4F19821882A9
:10F5F000C053D1401FC9E1E0F0E0EC0FFD1FC05D3A
:10F60000DE4F08811981C053D140E00FF11F2083E4
:10F610000F5F1F4FC05DDE4F19830883C053D14079
:10F6200062270A171B0709F005C9D80196E002C92D
:10F63000261709F010C303C0973009F0FBC87724E0
:10F640009981933109F412C19431C8F4963009F4C8
:10F65000D8C0973050F4923009F406C1933009F4C1
:10F660006DC0913009F059C253C0913109F477C08F
:10F67000923108F0BBC0903109F04FC2F5C098310B
:10F6800009F487C0993150F4953109F4EFC09531F0
:10F6900008F4C6C1963109F040C2C2C19A3109F4DA
:10F6A0006CC09A3108F491C09B3109F45BC09D3164
:10F6B00009F033C29D81903359F48F81882311F46E
:10F6C0009EE11CC0813011F091E018C098E916C08D
:10F6D000892F807591F0903539F4E0E0F0E089E011
:10F6E0008093570094910AC0983539F4E3E0F0E034
:10F6F00089E080935700949101C090E01A821B82A8
:10F700008D818C831D829E831F8227E030E009C299
:10F710001A8288E08B8381E48C8386E58D8382E581
:10F720008E8389E48F8383E5888780E589878FE5E9
:10F730008A8782E38B872BE030E0F3C18A818139AD
:10F7400041F0823941F0803911F48FE005C080E04A
:10F7500003C082E001C08AE01A828B8344C0772410
:10F76000739482C08D81882311F48EE12CC0813086
:10F7700011F081E028C088E926C01A82E1E0F0E0BB
:10F7800089E08093570084918B831C8224E030E0D1
:10F79000C8C18B81803589F48C81883039F4E2E0EE
:10F7A000F0E089E08093570084910DC0E0E0F0E044
:10F7B00089E080935700849106C0E3E0F0E089E09F
:10F7C0008093570084911A82DFCF8D81836C99E0FA
:10F7D000E1E0F0E0082E90935700E89507B600FCB2
:10F7E000FDCF1A821B8223E030E09BC180EC8A832C
:10F7F000CE5CDE4F188219821A821B82C253D1401E
:10F800008EC18A8190E0A0E0B0E0582F44273327D2
:10F8100022278B8190E0A0E0B0E0DC0199278827C7
:10F82000282B392B4A2B5B2B8D8190E0A0E0B0E098
:10F83000282B392B4A2B5B2B8C8190E0A0E0B0E089
:10F84000BA2FA92F982F8827282B392B4A2B5B2BCF
:10F85000220F331F441F551FC05EDE4F288339839C
:10F860004A835B83C052D1401A8259C13A81C95C34
:10F87000DE4F3883C753D140CA5CDE4F1882C6536F
:10F88000D1408B81C82EDD24CA5CDE4F488159816E
:10F89000C653D140C42AD52A933109F082C0CE5C28
:10F8A000DE4F88819981AA81BB81C253D1408050AB
:10F8B000904CA340B04030F583E0CE5CDE4FE88052
:10F8C000F9800A811B81C253D140F70100935B008C
:10F8D00080935700E89507B600FCFDCFCE5CDE4F65
:10F8E000088119812A813B81C253D14000501F4FAA
:10F8F0002F4F3F4FCE5CDE4F088319832A833B8313
:10F90000C253D140C05EDE4F488159816A817B81FC
:10F91000C052D140DE011B9631E08C9111962C91A2
:10F9200011971296C75CDE4F2883C953D140C85C3B
:10F93000DE4F1882C853D14090E0C85CDE4FE881AA
:10F94000F981C853D1408E2B9F2B0C01FA01609393
:10F950005B0030935700E89511244E5F5F4F6F4F67
:10F960007F4F0EEFE02E0FEFF02ECE0CDF1CC114F8
:10F97000D10499F685E0C05EDE4F088119812A81A5
:10F980003B81C052D140F80120935B008093570027
:10F99000E89507B600FCFDCF81E180935700E8951C
:10F9A00035C0C05EDE4F88819981AA81BB81C0527B
:10F9B000D140B695A795979587957C018601ABE0D8
:10F9C000AA2EB12CAC0EBD1E0BC0D5016D915D01F0
:10F9D000C7010F947FFE0894E11CF11C01501040F8
:10F9E0000115110591F7A60160E070E0440F551F65
:10F9F000661F771FC05EDE4FE880F9800A811B8199
:10FA0000C052D1404E0D5F1D601F711F1A82C05E33
:10FA1000DE4F488359836A837B83C052D1407FC0C5
:10FA2000FA80C55CDE4FF882CB53D140C65CDE4F16
:10FA30001882CA53D1408B81C82EDD24C65CDE4FAC
:10FA400008811981CA53D140C02AD12A1A828981DA
:10FA5000BE016D5F7F4F843121F59601C05EDE4FA0
:10FA6000E880F9800A811B81C052D1400BBFF701A9
:10FA700087919691DB018C9311969C936E5F7F4FDB
:10FA8000D801C7010296A11DB11DC05EDE4F88835B
:10FA90009983AA83BB83C052D14022503040F1F6F3
:10FAA00036C0C05EDE4F288139814A815B81C052F9
:10FAB000D1400894C108D108760100E010E0089414
:10FAC000C11CD11C0894E11CF11C011D111DE20E8A
:10FAD000F31E041F151F21BDBB27A52F942F832FB5
:10FAE00082BD2F5F3F4F4F4F5F4FF89A80B5DB01CC
:10FAF0008D93BD012E153F054007510761F7C05E8C
:10FB0000DE4F288339834A835B83C052D1409601FC
:10FB10002D5F3F4FFB01108204C080EC8A8322E0FE
:10FB200030E08BE18093C6008091C00086FFFCCF5F
:10FB30008091C00080648093C000C15DDE4FF88179
:10FB4000CF52D140F093C6008091C00086FFFCCF19
:10FB50008091C00080648093C000432F3093C60022
:10FB60008091C00086FFFCCF8091C00080648093AC
:10FB7000C000922F2093C6008091C00086FFFCCF6A
:10FB80008091C00080648093C0008EE08093C600A6
:10FB90008091C00086FFFCCF8091C000806480937C
:10FBA000C00065E1C15DDE4FE880CF52D1406E25D7
:10FBB00069276427FE01319610C090819093C6009A
:10FBC0008091C00086FFFCCF31968091C000806498
:10FBD0008093C0006927215030402115310569F715
:10FBE0006093C6008091C00086FFFCCF8091C0006A
:10FBF00080648093C00085B1805885B9772081F4F6
:10FC0000C15DDE4F0881CF52D1400F5FC15DDE4F35
:10FC10000883CF52D14090E0A0E0B0E00D941AF4F8
:10FC200027982F9880E090E020ED37E0F901319798
:10FC3000F1F7019684369105C9F700008091C00064
:10FC40008D7F8093C00081E180935700E895EE2777
:10FC5000FF270994FFCF90E00D941AF497FB092E2B
:10FC600007260AD077FD04D02ED006D000201AF443
:10FC7000709561957F4F0895F6F7909581959F4F08
:10FC80000895A1E21A2EAA1BBB1BFD010DC0AA1FDD
:10FC9000BB1FEE1FFF1FA217B307E407F50720F0F5
:10FCA000A21BB30BE40BF50B661F771F881F991F70
:10FCB0001A9469F760957095809590959B01AC01B9
:10FCC000BD01CF010895AA1BBB1B51E107C0AA1FAC
:10FCD000BB1FA617B70710F0A61BB70B881F991FED
:10FCE0005A95A9F780959095BC01CD010895F99991
:10FCF000FECF92BD81BDF89A992780B50895262F31
:10FD0000F999FECF1FBA92BD81BD20BD0FB6F89400
:0EFD1000FA9AF99A0FBE01960895F894FFCF63
:00000001FF
