:100000000C9445010C9476010C9476010C947601C5
:100010000C9476010C9476010C9476010C94760184
:100020000C9476010C9476010C9476010C94760174
:100030000C9476010C9476010C9476010C94760164
:100040000C9476010C94FE0A0C9476010C947601C3
:100050000C9476010C9476010C9476010C942A0A87
:100060000C9476010C94F4090C94CA090C94760152
:100070000C9476010C9476010C9476010C94760124
:100080000C94D00A0C9476010C9476010C947601B1
:100090000C9476010C9476010C9476010C94760104
:1000A0000C9476010C9476010C94A20A0C947601BF
:1000B0000C9476010C9476010C9476010C94740ADD
:1000C0000C9476010C9476010C9476010C947601D4
:1000D0000C9476010C9476010C9476010C947601C4
:1000E0000C9476010C9429030C944F030C941A037E
:1000F0000C9412020C9471050C946C050C94FE0186
:100100000C944F060C9459030C94C2010C94700586
:100110000C943D030C9447030C9441030C9454033A
:100120000C9468050C942F030C9458020C9426032D
:100130000C94EF010C9420020C944B030C942C0BA8
:100140000C941E030C943B090C9439030C94130675
:100150000C9414030C9455030C94A5020C9465059F
:100160000C9422030C943303000021002400270088
:100170002A002D00300033000101000004010701B6
:100180000A0100002200250028002B002E0031006B
:10019000340002010000050108010B0100002000ED
:1001A0002300260029002C002F003200000100004F
:1001B00003010601090105050505070508080808EA
:1001C000020202020A0A08080404040401010101EF
:1001D00001010101030303030303030304070707EA
:1001E0000C0C0C0C0C0C0C0C02020202060606068F
:1001F000060606060B0B0B0B0B0B0B0B010210205C
:10020000200808102040102040800201020108044C
:1002100002010102040810204080804020100804E0
:100220000201800402018040201008040201080439
:10023000020101020408102040800102040810207D
:10024000408000000A0B02090C0D0E080703040190
:10025000000000000000000000000000000000009E
:10026000000000000000000000000000000012116B
:10027000100000000000000000000000000000006E
:1002800000000000000000002C0B11241FBECFEF67
:10029000D1E2DEBFCDBF00E00CBF12E0A0E0B2E0D3
:1002A000EEE6FEE100E00BBF02C007900D92A03A1F
:1002B000B107D9F724E0A0EAB2E001C01D92A33C47
:1002C000B207E1F711E0C5E4D1E000E006C02197F4
:1002D0000109802FFE010E941B0FC434D10780E06A
:1002E0000807A9F70E94370C0C94350F0C940000F6
:1002F00096E0899FD0011124AC5ABB4F90967C9315
:100300006E935F9791E091969C939197E091C104D1
:10031000F091C2049091C004992339F0309751F0C4
:10032000811108C0809170041994309719F05C967F
:100330008C91FACF0895E0913904E03310F54091A3
:100340003B0428E532E0241B310947FD3395220F99
:10035000331F220F331F821793070CF49C01225086
:100360003109220F331F4FB7F8948E2F90E0FC0114
:10037000EE0FFF1FE80FF91FEE56FC4F328321836B
:100380004FBF0895AF92BF92CF92DF92EF92FF924C
:100390000F931F93CF93DF936C017B018B01040FAD
:1003A000151FEB015E01AE18BF08C017D10759F049
:1003B0006991D601ED91FC910190F081E02DC6018B
:1003C0001995892B79F7C501DF91CF911F910F9175
:1003D000FF90EF90DF90CF90BF90AF900895FC0119
:1003E000538D448D252F30E0842F90E0821B930B9A
:1003F000541710F0CF96089501970895FC01918D40
:10040000828D981761F0A28DAE0FBF2FB11D5D9642
:100410008C91928D9F5F9F73928F90E008958FEFE4
:100420009FEF0895FC01918D828D981731F0828D98
:10043000E80FF11D858D90E008958FEF9FEF0895EF
:10044000FC01918D228D892F90E0805C9F4F821B53
:1004500091098F739927089585EF92E00E942002F9
:1004600021E0892B09F420E0822F0895FC01A48D5E
:10047000A80FB92FB11DA35ABF4F2C91848D90E0C6
:1004800001968F739927848FA689B7892C93A089A9
:10049000B1898C91837080648C93938D848D981333
:1004A00006C00288F389E02D80818F7D80830895C6
:1004B000EF92FF920F931F93CF93DF93EC0181E0B4
:1004C000888F9B8D8C8D98131AC0E889F98980815B
:1004D00085FF15C09FB7F894EE89FF896083E8898E
:1004E000F98980818370806480839FBF81E090E080
:1004F000DF91CF911F910F91FF90EF900895F62E0D
:100500000B8D10E00F5F1F4F0F731127E02E8C8DA6
:100510008E110CC00FB607FCFACFE889F9898081EB
:1005200085FFF5CFCE010E943602F1CFEB8DEC0FA7
:10053000FD2FF11DE35AFF4FF0829FB7F8940B8F08
:10054000EA89FB8980818062CFCFCF93DF93EC0172
:10055000888D8823B9F0AA89BB89E889F9898C91AB
:1005600085FD03C0808186FD0DC00FB607FCF7CF67
:100570008C9185FFF2CF808185FFEDCFCE010E9467
:100580003602E9CFDF91CF91089580E090E0892B8A
:1005900029F00E942C0281110E94000080E090E06E
:1005A000892B49F080E090E0892B29F00E9400001F
:1005B00081110E94000080E090E0892B49F080E0EA
:1005C00090E0892B29F00E94000081110E94000018
:1005D00080E090E0892B49F080E090E0892B29F0C1
:1005E0000E94000081110C94000008958150823116
:1005F00008F05AC0E82FF0E08827EE5FFC4F8F4FDD
:100600000C941B0F2203260314031A031E03540326
:1006100029032F03330339033D03410347034B03EE
:1006200054034F0355035903809180008F778093C3
:1006300080000895809180008F7DF9CF80918000A7
:10064000877FF5CF84B58F7784BD089584B58F7D7E
:10065000FBCF8091B0008F778093B0000895809198
:10066000B0008F7DF9CF809190008F7780939000BC
:100670000895809190008F7DF9CF80919000877FC1
:10068000F5CF8091A0008F778093A000089580918E
:10069000A0008F7DF9CF8091A000877FF5CF80915A
:1006A00020018F77809320010895809120018F7D14
:1006B000F9CF80912001877FF5CFCF93DF93282F4B
:1006C00030E0F901EE5BFD4F8491F901E450FE4FFB
:1006D000D491F901EA54FE4FC491CC23A1F08111C9
:1006E0000E94F602EC2FF0E0EE0FFF1FE456FE4FE3
:1006F000A591B491EC91ED2381E090E009F480E0C4
:10070000DF91CF91089580E090E0FACF1F93CF93CF
:10071000DF93282F30E0F901EE5BFD4F8491F90162
:10072000E450FE4FD491F901EA54FE4FC491CC231A
:10073000A9F0162F81110E94F602EC2FF0E0EE0FC7
:10074000FF1FEE57FE4FA591B4918FB7F894EC912F
:10075000111108C0D095DE23DC938FBFDF91CF91BC
:100760001F910895DE2BF8CFCF93DF9390E0FC012B
:10077000E450FE4F24918A549E4FFC0184918823BB
:10078000C9F090E0880F991FFC01E859FE4FA59130
:10079000B491FC01EE57FE4FC591D49161110DC08B
:1007A0009FB7F8948C91209582238C93888128237D
:1007B00028839FBFDF91CF910895623051F49FB796
:1007C000F8943C91822F809583238C93E8812E2B83
:1007D000EFCF8FB7F894EC912E2B2C938FBFEACFED
:1007E0003FB7F8948091B9029091BA02A091BB02F0
:1007F000B091BC0226B5A89B05C02F3F19F0019609
:10080000A11DB11D3FBFBA2FA92F982F8827BC016A
:10081000CD01620F711D811D911D42E0660F771F92
:10082000881F991F4A95D1F708952FB7F8946091C2
:10083000B5027091B6028091B7029091B8022FBFB5
:1008400008950F931F93CF93DF93C82FD62F86E081
:10085000C89FF0011124EC5AFB4F11A2878D90A183
:1008600081309105F1F058F082309105F1F1039754
:1008700009F440C0DF91CF911F910F910895662335
:10088000C9F361E070E08C2F0E9478010E9415048A
:100890006093AC047093AD048093AE049093AF0466
:1008A000E9CF0E9415040091AC041091AD04209191
:1008B000AE043091AF04AB01BC01401B510B620B85
:1008C000730B8091BE049091BF04B0E0A0E0841748
:1008D0009507A607B70748F462E070E08C2FDF9118
:1008E000CF911F910F910C94780163E070E0D111CA
:1008F000C1CFF4CF70E060E0F1CF0F931F93CF939F
:10090000DF93FC012081222309F1EC010E941504F0
:1009100009811A812B813C81601B710B820B930B27
:100920000D811E812F81388560177107820793071B
:1009300068F00E94150469837A838B839C83E98520
:10094000FA85DF91CF911F910F911994DF91CF918B
:100950001F910F910895AF92BF92CF92DF92EF92C5
:10096000FF920F931F93CF93DF936B017A01EC01FA
:10097000C055DD4F28813CE0389F8001399F100D24
:100980001124A0902204B12C27FF1FC0FB0111826B
:10099000108288818F5F888388819801280F311D9C
:1009A00087FD3A95F6012A153B051CF488818C30A9
:1009B000C4F180819181049680349C4908F473C00D
:1009C000F60180819181049670C088819801280F7A
:1009D000311D87FD3A952A153B05DCF68881A80173
:1009E000480F511D87FD5A95FA01EE0FFF1FE40FC6
:1009F000F51FEE56FC4F808186FFCBCF8881F80132
:100A0000E80FF11D87FDFA95CF01EE0FFF1FE80FEC
:100A1000F91FEE56FC4F808160E08F730E948603C1
:100A2000B8CF808191812881A801420F511D27FDF7
:100A30005A959A01FA01EE0FFF1FE20FF31FEE56CF
:100A4000FC4F21813281820F931FF70191838083B4
:100A500088819801280F311D87FD3A95F901EE0F25
:100A6000FF1FE20FF31FEE56FC4F808186FF22C06E
:100A70008881080F111D87FD1A95F801EE0FFF1FE1
:100A8000E00FF11FEE56FC4F808161E08F73DF9124
:100A9000CF911F910F91FF90EF90DF90CF90BF907B
:100AA000AF900C94860380E49CE9F70191838083E6
:100AB0008FEF8883DF91CF911F910F91FF90EF907F
:100AC000DF90CF90BF90AF900895862F0C945D0378
:100AD000862F642F0C948603862F642F0C94B40306
:100AE000089590E080E008957F928F929F92AF9258
:100AF000BF92CF92DF92EF92FF920F931F93CF930B
:100B0000DF93782ED92F0E9415048B019C016093EE
:100B1000A8021093A9028093AA023093AB0210920C
:100B2000AC021092AD021092AE021092AF02CD2F25
:100B3000CC0FCC0B0E9415049B01AC0160E070E06F
:100B400080E090E0A090A802B090A902C090AA0214
:100B5000D090AB02E090AC02F090AD020091AE02FA
:100B60001091AF020E94230FA72CBD2ECC2EDC2E9D
:100B7000EC2EFC2E0C2F1C2F0E942C0F48F48EE222
:100B800094E00E947D0483E294E00E947D04D2CF31
:100B9000DF91CF911F910F91FF90EF90DF90CF9059
:100BA000BF90AF909F908F907F9008952091F30217
:100BB0003091F402EDEBF2E050E040E042175307D1
:100BC00044F4619171916817790781F04F5F5F4F2D
:100BD000F5CFF901EE0FFF1FE354FD4F91838083A2
:100BE0002F5F3F4F3093F4022093F30208951F9339
:100BF000CF93DF93EC01182F1C5D61E0812F0E94E1
:100C0000860381E090E00E94740560E0812F0E94DD
:100C10008603CC0FDD1FC056DD4F19821882DF918D
:100C2000CF911F910895EF92FF920F931F93CF934F
:100C3000DF9300EA12E0D0E0C0E0EE24E394F12C70
:100C40008C2F875D0E945D030197A9F4F8018081D4
:100C50009181892B81F48091EF029091F002892B90
:100C6000B9F48091ED029091EE028C179D0781F40A
:100C7000CE010E94F70521960E5F1F4FC430D105AB
:100C8000F9F6DF91CF911F910F91FF90EF900895AA
:100C9000F801F182E082CE010E94D605ECCF6F927E
:100CA0007F928F929F92AF92BF92CF92DF92EF92FC
:100CB000FF920F931F93CF93DF9381E08093C00443
:100CC0000E9415040091B0041091B1042091B20467
:100CD0003091B304AB01BC01401B510B620B730B91
:100CE0008091BC049091BD04B0E0A0E0841795070A
:100CF000A607B70708F018C1C0E08091BA04C8176A
:100D000060F4E091B604F091B704EC0FF11D62E0DD
:100D100080810E94B403CF5FF0CF712C812C912C85
:100D2000540183948091BB04781608F05FC0072DAE
:100D300010E0E091B804F091B904E00FF11F61E018
:100D400080810E94B403E091B804F091B904E00FEF
:100D5000F11F60E080810E948603D501C401072C49
:100D600004C0880F991FAA1FBB1F0A94D2F76C01F9
:100D70007C01E094F094612C8091BA046816F8F438
:100D8000C62DD0E0E091B604F091B704EC0FFD1F42
:100D900080810E945D032496CC0FDD1FCC5ADB4F6F
:100DA000892B41F4888199818C299D299983888395
:100DB0006394E2CF888199818E219F21F7CFE091C2
:100DC000B804F091B904E00FF11F61E080810E9446
:100DD00086038091B8049091B904080F191F60E050
:100DE000F80180810E94B40373949CCFC4E5D4E0E1
:100DF000FE018FEF9FEF278D30A1232B21F4148E5E
:100E0000968F858F11A2369624E0E039F20799F784
:100E1000F12C96E0D92E8091BA04F81608F050C053
:100E2000E12C0F2D10E0000F111F045A1B4F2091D1
:100E3000BB04E21608F042C0F801608171810E2CFB
:100E400002C0769567950A94E2F7F29E900111240C
:100E50002E0D311DE4E5F4E080E0458D568D24171C
:100E6000350709F48EC08F5F36968A30B1F760FF80
:100E700023C0E4E5F4E090E080E0448D411117C028
:100E8000E091B404F091B504E20FF31F4081D89EC5
:100E9000F001D99EF00D1124EC5AFB4F448F368F90
:100EA000258F10A2178E61E00E94210405C00196D3
:100EB00036968A30910509F7E394B9CFF394ABCF16
:100EC00010E089A18111182F2696F4E0C039DF07C0
:100ED000C1F70E9415046093B0047093B10480932D
:100EE000B2049093B3041123F9F080917504882320
:100EF000D9F080917304909174040197A9F48091C2
:100F0000700490ED980F953090F0DF91CF911F9184
:100F10000F91FF90EF90DF90CF90BF90AF909F9098
:100F20008F907F906F9008951092C004EECF209123
:100F3000EF023091F002082E000C990BC09721159A
:100F40003105B9F42091ED023091EE0228173907EE
:100F5000E1F2DF91CF911F910F91FF90EF90DF9021
:100F6000CF90BF90AF909F908F907F906F900C9498
:100F7000D6052130310569F72091F1023091F20256
:100F8000E5CF617091CFFB0101900020E9F7319727
:100F9000AF01461B570BDC01ED91FC910280F38100
:100FA000E02D1994CF93DF93BC0185EF92E00E946E
:100FB000C307EC016BE372E085EF92E00E94C30788
:100FC0008C0F9D1FDF91CF910895BC018CE394E0BD
:100FD0000C94C307CF93DF93EC0160E08E810E94F5
:100FE000860361E08E810E94860360E08E810E940C
:100FF00086038BE891E00197F1F7DF91CF91089597
:10100000CF92DF92EF92FF920F931F93CF93DF93D4
:101010006C017C0187E0E80EF11CD0E0C0E0062FF7
:1010200010E0B8010C2E02C0759567950A94E2F79E
:101030006170F70181917F010E9486032196C4307F
:10104000D10579F7C601DF91CF911F910F91FF90E4
:10105000EF90DF90CF900C94EA07CF92DF92EF925F
:10106000FF920F931F93CF93DF93EC01F62E642F23
:101070008C810E9486038D818F3F19F060E00E9471
:1010800086030F2D10E08F8584FF25C06E0187E059
:10109000C80ED11CF12CE12CB8010E2C02C07595A4
:1010A00067950A94E2F76170F60181916F010E94E1
:1010B0008603FFEFEF1AFF0A88E0E816F10461F7F4
:1010C000CE01DF91CF911F910F91FF90EF90DF90B4
:1010D000CF900C94EA07B80184E0759567958A95DE
:1010E000E1F7CE010E9400086F2DCE01DF91CF9174
:1010F0001F910F91FF90EF90DF90CF900C9400081C
:1011000040E0682F8CE394E00C942D08CF93DF939C
:10111000813029F090914B04986090934B04809318
:101120004F041092500480E48093510480E1809336
:10113000520480E58093530461E0809140040E9452
:10114000B403809141048F3F19F061E00E94B40321
:1011500061E0809142040E94B403CCE3D4E09E019C
:101160002C53344080914B0484FD0BC084E090E00C
:1011700021962817390744F461E08E810E94B40358
:10118000EECF88E090E0F4CF8BE39DE00197F1F79C
:1011900060E0809140040E94860360E080914204F8
:1011A0000E948603809141048F3F19F060E00E9405
:1011B000860380914B0484FD39C063E08CE394E0A6
:1011C0000E940008CBE4D6E4CE010197F1F763E07A
:1011D0008CE394E00E9400082197F1F763E08CE330
:1011E00094E00E94000883E592E00197F1F762E045
:1011F0008CE394E00E94000880914B0480620E947E
:10120000800884E080934C048CE00E94800881E098
:101210000E9480088BE39FE10197F1F782E08093C1
:101220004D0486E0DF91CF910C94800880620E948B
:1012300080088BE496E40197F1F780914B0480627B
:101240000E94800883E592E00197F1F780914B04BA
:1012500080620E948008D0CF90914F04691710F0EF
:101260006FEF690FE62FF0E0E45CFB4F9489890F84
:1012700080680C94800841E00E942D0881E090E095
:1012800008958F929F92AF92BF92CF92DF92EF928A
:10129000FF92CF93DF93CDB7DEB7A1970FB6F89447
:1012A000DEBF0FBECDBF6C0181E00E9480088BE3E2
:1012B0009FE10197F1F761E080E00E942C098EE345
:1012C00092E00E94E50762E080E00E942C0986E43B
:1012D00092E00E94E5070D2C000CEE08FF08F7FED7
:1012E0003EC041E06DE28CE394E00E942D0822278D
:1012F0003327A9012C193D094E095F0919A2CE0116
:1013000081967C019AE0892E912CA12CB12CCA01E6
:10131000B901A50194010E94ED0E605DF701629391
:101320007F01211531054105510589F7E114F104CB
:1013300029F0B7018CE394E00E94C307A1960FB691
:10134000F894DEBF0FBECDBFDF91CF91FF90EF903D
:10135000DF90CF90BF90AF909F908F900895A7019E
:10136000960119A2CE0181967C018AE0882E912CEB
:10137000A12CB12CCA01B901A50194010E94ED0E66
:10138000605DF70162937F0121153105410551052B
:1013900089F7CCCF1F920F920FB60F9211240BB684
:1013A0000F922F933F934F935F936F937F938F93FE
:1013B0009F93AF93BF93EF93FF9385EF92E00E94CB
:1013C0003602FF91EF91BF91AF919F918F917F91E5
:1013D0006F915F914F913F912F910F900BBE0F90A6
:1013E0000FBE0F901F9018951F920F920FB60F927D
:1013F00011240BB60F922F938F939F93EF93FF932C
:10140000E0910503F09106038081E0910B03F091D8
:101410000C0382FD1DC0908180910E038F5F8F733E
:1014200020910F03821741F0E0910E03F0E0EB50A2
:10143000FD4F958F80930E03FF91EF919F918F91B8
:101440002F910F900BBE0F900FBE0F901F9018950D
:101450008081F2CF1F920F920FB60F9211242F931B
:101460003F938F939F93AF93BF938091B5029091D9
:10147000B602A091B702B091B8023091B40223E055
:10148000230F2D3758F50196A11DB11D2093B402ED
:101490008093B5029093B602A093B702B093B802BE
:1014A0008091B9029091BA02A091BB02B091BC02A6
:1014B0000196A11DB11D8093B9029093BA02A09329
:1014C000BB02B093BC02BF91AF919F918F913F91AE
:1014D0002F910F900FBE0F901F90189526E8230FA5
:1014E0000296A11DB11DD2CF1F920F920FB60F927F
:1014F00011240BB60F922F933F934F935F936F93EB
:101500007F938F939F93AF93BF93EF93FF9348E2A3
:1015100051E064E271E090E080E00E94AB04FF9152
:10152000EF91BF91AF919F918F917F916F915F915B
:101530004F913F912F910F900BBE0F900FBE0F90C8
:101540001F9018951F920F920FB60F9211240BB691
:101550000F922F933F934F935F936F937F938F934C
:101560009F93AF93BF93EF93FF9348EA50E064EAF1
:1015700070E083E090E00E94AB04FF91EF91BF9197
:10158000AF919F918F917F916F915F914F913F911B
:101590002F910F900BBE0F900FBE0F901F901895BC
:1015A0001F920F920FB60F9211240BB60F922F932A
:1015B0003F934F935F936F937F938F939F93AF93DB
:1015C000BF93EF93FF9348E950E064E970E082E055
:1015D00090E00E94AB04FF91EF91BF91AF919F917A
:1015E0008F917F916F915F914F913F912F910F90CC
:1015F0000BBE0F900FBE0F901F9018951F920F9269
:101600000FB60F9211240BB60F922F933F934F9367
:101610005F936F937F938F939F93AF93BF93EF935A
:10162000FF9348E850E064E870E081E090E00E94B9
:10163000AB04FF91EF91BF91AF919F918F917F91FB
:101640006F915F914F913F912F910F900BBE0F9033
:101650000FBE0F901F901895CF931092F802109222
:10166000F70288EE93E0A0E0B0E08093F902909357
:10167000FA02A093FB02B093FC0287E192E0909300
:10168000F6028093F50285EC90E09093020380933C
:10169000010384EC90E0909304038093030380ECB7
:1016A00090E0909306038093050381EC90E0909383
:1016B00008038093070382EC90E090930A038093E1
:1016C000090386EC90E090930C0380930B03109237
:1016D0000E0310920F031092100310921103109238
:1016E000560410925A041092590410925B0485E338
:1016F00092E09093550480935404E0E7F4E0108264
:10170000148213821582369684E0EC3AF807B9F712
:1017100083E092E09093B7048093B60480E092E077
:101720009093B9048093B80484E08093BA0483E072
:101730008093BB0487E092E09093B5048093B40457
:101740008AE090E09093BD048093BC0484EF91E024
:101750009093BF048093BE041092C2041092C104FF
:101760001092B0041092B1041092B2041092B3041B
:101770001092C00410923F0410923E0489E292E05D
:1017800090933D0480933C0483E180934004CFEF29
:10179000C093410482E1809342048EE0809343042D
:1017A0008FE08093440480E18093450481E180933D
:1017B0004604109247041092480410924904109273
:1017C0004A0410924B0481E00E9486088091220412
:1017D000803308F049C091E0980F909322048093E1
:1017E000390490E0FC01EE0FFF1FE80FF91FEE56E1
:1017F000FC4F88EB9BE09283818321E020932E04B1
:1018000010922F041092300410923104109232047E
:101810008AE090E0A0E0B0E0809333049093340439
:10182000A0933504B093360443E156E05093380456
:10183000409337042093230410922404109225042B
:101840001092260410922704809328049093290470
:10185000A0932A04B0932B048FE496E090932D0478
:1018600080932C04CF910895C0933904C6CF789407
:1018700084B5826084BD84B5816084BD85B5826095
:1018800085BD85B5816085BD80916E008160809346
:101890006E001092810080918100826080938100AF
:1018A00080918100816080938100809180008160BF
:1018B000809380008091B10084608093B10080911A
:1018C000B00081608093B00080919100826080932D
:1018D00091008091910081608093910080919000AF
:1018E0008160809390008091A10082608093A1002C
:1018F0008091A10081608093A1008091A00081600F
:101900008093A000809121018260809321018091C9
:101910002101816080932101809120018160809369
:10192000200180917A00846080937A0080917A000F
:10193000826080937A0080917A00816080937A003F
:1019400080917A00806880937A001092C10061E0F3
:1019500082E20E94B40361E08FE10E94B40361E07F
:1019600080E20E94B40361E08EE10E94B40361E072
:1019700084E20E94B40361E085E20E94B40361E066
:1019800086E20E94B40361E087E20E94B40360E053
:1019900089E20E94B40360E08AE20E94B40360E03E
:1019A0008BE20E94B40360E08CE20E94B40360E02A
:1019B0008EE20E94B40360E08FE20E94B40360E014
:1019C00080E30E94B40360E081E30E94B403E091ED
:1019D0000503F091060382E08083E0910103F0911A
:1019E00002031082E0910303F09104038FEC8083E3
:1019F00010920D03E0910903F0910A0386E08083C1
:101A0000E0910703F0910803808180618083E09179
:101A10000703F0910803808188608083E0910703C9
:101A2000F0910803808180688083E0910703F09142
:101A3000080380818F7D808380913904803308F092
:101A400052C061E082E20E94B40380913904282FE1
:101A500030E0F901EE0FFF1FE20FF31FEE56FC4FCF
:101A60009081907C9262908310923A0410923B0491
:101A70002CE0622F0E940F0F829FB001112430E0F2
:101A800020E0AB01420F531FFA01EE0FFF1FE40FDE
:101A9000F51FEE56FC4F908196FD17C02F5F3F4F0C
:101AA0002C30310571F7813009F0FBC010928000B5
:101AB00082E0809381001092850010928400B19A98
:101AC00080916F00826080936F00E09139048E2FC7
:101AD00090E0FC01EE0FFF1FE80FF91FEE56FC4FE0
:101AE00080818064808384E00E9486088091ED027A
:101AF0009091EE020E9441090E94F0034B015C01AB
:101B000038EEC32E33E0D32EE12CF12C0E94F003EB
:101B1000681979098A099B09683E73408105910516
:101B2000A8F321E0C21AD108E108F10888EE880E76
:101B300083E0981EA11CB11CC114D104E104F1047E
:101B400029F7C1E0D0E08EE294E00E947D0483E2B8
:101B500094E00E947D041EE28EE294E00E947D04E7
:101B600083E294E00E947D04812F0E945D0301972F
:101B700009F430C11F5F123379F78091F30290911D
:101B8000F402181619060CF021C101979093F40283
:101B90008093F302880F991FFC01E354FD4F80816D
:101BA00091819093F2028093F102D093F002C0935E
:101BB000EF0288EE93E00E9474058EE492E00E94AA
:101BC000D20780ED97E00E949B0184EF91E00E9494
:101BD00074058BE592E00E94D2078EE294E00E94A9
:101BE0007D0483E294E00E947D0488EE93E00E94ED
:101BF00074052091F1023091F2028091ED029091F2
:101C0000EE02821793070CF078C001969093EE02D3
:101C10008093ED028EE692E00E94D20761E08FE1B0
:101C20000E94860360E080E20E94860361E08EE10C
:101C30000E9486038091ED029091EE020E9441097C
:101C400060E08DE00E942C0987E792E00E94E507A2
:101C500061E08DE00E942C0987E792E00E94E50791
:101C600061E08CE00E942C0987E792E00E94E50782
:101C700061E08EE00E942C0987E792E00E94E50770
:101C800062E08DE00E942C0987E792E00E94E50760
:101C900063E08DE00E942C0987E792E00E94E5074F
:101CA0009CCF823061F4109290008093910010924A
:101CB00095001092940088BB8093710006CF83300A
:101CC00069F41092A00082E08093A1001092A50018
:101CD0001092A40089BB80937200F7CE8111F5CEDB
:101CE0001092200182E08093210110922501109230
:101CF00024018ABB80937300E8CE28173907F4F5D6
:101D000001979093EE028093ED0289E792E00E94A2
:101D1000D20760E08FE10E94860361E080E20E94CA
:101D2000860361E08EE10E9486038091ED0290912E
:101D3000EE020E94410960E08DE00E942C0987E7D5
:101D400092E00E94E50761E08DE00E942C0987E7A0
:101D500092E00E94E50762E08DE00E942C0987E78F
:101D600092E00E94E50762E08CE00E942C0987E780
:101D700092E00E94E50762E08EE084CF0E94410974
:101D800084E892E00E94D20760E08EE10E94860320
:101D900060E08FE10E94860360E080E20E9486039B
:101DA00084EF91E00E94740583E992E00E94D207DB
:101DB0008CED95E00E949B011092F0021092EF02D0
:101DC0008091ED029091EE020E94F70584EF91E080
:101DD0000E9474050E94C502B6CEA1E21A2EAA1B6B
:101DE000BB1BFD010DC0AA1FBB1FEE1FFF1FA217CB
:101DF000B307E407F50720F0A21BB30BE40BF50BC8
:101E0000661F771F881F991F1A9469F76095709550
:101E1000809590959B01AC01BD01CF010895991B60
:101E200079E004C0991F961708F0961B881F7A95D1
:101E3000C9F780950895EE0FFF1F881F8BBF07908D
:101E4000F691E02D19942A193B094C095D096E0998
:101E50007F09800B910B08952A153B054C055D0504
:0E1E60006E057F05800791070895F894FFCF67
:101E6E00161718191A1B1C313233343536373839D8
:101E7E002A3023000000005802C201EF01A5022003
:101E8E0002FE011202000000003B09C20171057042
:101E9E0005000000006C05680565050D0A00437518
:101EAE007272656E7400466C6F6F723A2000436CEE
:101EBE006F73696E6720646F6F7200537461727412
:101ECE00696E6720746F204D6F76696E6700476F7D
:101EDE00696E67207570002A00476F696E6720640F
:101EEE006F776E0053746F70706564206D6F7669D6
:101EFE006E67004F70656E696E6720646F6F72005B
:00000001FF
